{
	"contracts/exercisePayable.sol": {
		"exercisePayable": {
			"abi": [
				{
					"inputs": [
						{
							"internalType": "uint256",
							"name": "_fee",
							"type": "uint256"
						}
					],
					"stateMutability": "nonpayable",
					"type": "constructor"
				},
				{
					"anonymous": false,
					"inputs": [
						{
							"indexed": true,
							"internalType": "address",
							"name": "userAddress",
							"type": "address"
						},
						{
							"indexed": false,
							"internalType": "uint256",
							"name": "amount",
							"type": "uint256"
						}
					],
					"name": "Deposit",
					"type": "event"
				},
				{
					"anonymous": false,
					"inputs": [
						{
							"indexed": true,
							"internalType": "address",
							"name": "userAddress",
							"type": "address"
						},
						{
							"indexed": false,
							"internalType": "string",
							"name": "firstName",
							"type": "string"
						},
						{
							"indexed": false,
							"internalType": "string",
							"name": "lastName",
							"type": "string"
						}
					],
					"name": "UserRegistered",
					"type": "event"
				},
				{
					"anonymous": false,
					"inputs": [
						{
							"indexed": true,
							"internalType": "address",
							"name": "userAddress",
							"type": "address"
						},
						{
							"indexed": false,
							"internalType": "uint256",
							"name": "amount",
							"type": "uint256"
						}
					],
					"name": "Withdraw",
					"type": "event"
				},
				{
					"anonymous": false,
					"inputs": [
						{
							"indexed": true,
							"internalType": "address",
							"name": "owner",
							"type": "address"
						},
						{
							"indexed": false,
							"internalType": "uint256",
							"name": "amount",
							"type": "uint256"
						}
					],
					"name": "WithdrawTreasury",
					"type": "event"
				},
				{
					"inputs": [],
					"name": "deposit",
					"outputs": [],
					"stateMutability": "payable",
					"type": "function"
				},
				{
					"inputs": [],
					"name": "getBalance",
					"outputs": [
						{
							"internalType": "uint256",
							"name": "",
							"type": "uint256"
						}
					],
					"stateMutability": "view",
					"type": "function"
				},
				{
					"inputs": [],
					"name": "getTreasury",
					"outputs": [
						{
							"internalType": "uint256",
							"name": "",
							"type": "uint256"
						}
					],
					"stateMutability": "view",
					"type": "function"
				},
				{
					"inputs": [
						{
							"internalType": "string",
							"name": "_firstName",
							"type": "string"
						},
						{
							"internalType": "string",
							"name": "_lastName",
							"type": "string"
						}
					],
					"name": "register",
					"outputs": [],
					"stateMutability": "nonpayable",
					"type": "function"
				},
				{
					"inputs": [
						{
							"internalType": "address",
							"name": "",
							"type": "address"
						}
					],
					"name": "users",
					"outputs": [
						{
							"internalType": "string",
							"name": "firstName",
							"type": "string"
						},
						{
							"internalType": "string",
							"name": "lastName",
							"type": "string"
						},
						{
							"internalType": "uint256",
							"name": "amount",
							"type": "uint256"
						},
						{
							"internalType": "bool",
							"name": "state",
							"type": "bool"
						}
					],
					"stateMutability": "view",
					"type": "function"
				},
				{
					"inputs": [
						{
							"internalType": "uint256",
							"name": "_amount",
							"type": "uint256"
						}
					],
					"name": "withdraw",
					"outputs": [],
					"stateMutability": "nonpayable",
					"type": "function"
				},
				{
					"inputs": [
						{
							"internalType": "uint256",
							"name": "_amount",
							"type": "uint256"
						}
					],
					"name": "withdrawTreasury",
					"outputs": [],
					"stateMutability": "nonpayable",
					"type": "function"
				}
			],
			"devdoc": {
				"kind": "dev",
				"methods": {},
				"version": 1
			},
			"evm": {
				"assembly": "    /* \"contracts/exercisePayable.sol\":74:3174  contract exercisePayable {... */\n  mstore(0x40, 0x80)\n    /* \"contracts/exercisePayable.sol\":228:335  constructor(uint256 _fee) {... */\n  callvalue\n  dup1\n  iszero\n  tag_1\n  jumpi\n  0x00\n  dup1\n  revert\ntag_1:\n  pop\n  mload(0x40)\n  sub(codesize, bytecodeSize)\n  dup1\n  bytecodeSize\n  dup4\n  codecopy\n  dup2\n  dup2\n  add\n  0x40\n  mstore\n  dup2\n  add\n  swap1\n  tag_2\n  swap2\n  swap1\n  tag_3\n  jump\t// in\ntag_2:\n    /* \"contracts/exercisePayable.sol\":271:275  _fee */\n  dup1\n    /* \"contracts/exercisePayable.sol\":265:268  fee */\n  0x00\n    /* \"contracts/exercisePayable.sol\":265:275  fee = _fee */\n  dup2\n  swap1\n  sstore\n  pop\n    /* \"contracts/exercisePayable.sol\":294:304  msg.sender */\n  caller\n    /* \"contracts/exercisePayable.sol\":286:291  owner */\n  0x01\n  0x00\n    /* \"contracts/exercisePayable.sol\":286:304  owner = msg.sender */\n  0x0100\n  exp\n  dup2\n  sload\n  dup2\n  0xffffffffffffffffffffffffffffffffffffffff\n  mul\n  not\n  and\n  swap1\n  dup4\n  0xffffffffffffffffffffffffffffffffffffffff\n  and\n  mul\n  or\n  swap1\n  sstore\n  pop\n    /* \"contracts/exercisePayable.sol\":326:327  0 */\n  0x00\n    /* \"contracts/exercisePayable.sol\":315:323  treasury */\n  0x02\n    /* \"contracts/exercisePayable.sol\":315:327  treasury = 0 */\n  dup2\n  swap1\n  sstore\n  pop\n    /* \"contracts/exercisePayable.sol\":228:335  constructor(uint256 _fee) {... */\n  pop\n    /* \"contracts/exercisePayable.sol\":74:3174  contract exercisePayable {... */\n  jump(tag_6)\n    /* \"#utility.yul\":88:205   */\ntag_8:\n    /* \"#utility.yul\":197:198   */\n  0x00\n    /* \"#utility.yul\":194:195   */\n  dup1\n    /* \"#utility.yul\":187:199   */\n  revert\n    /* \"#utility.yul\":334:411   */\ntag_10:\n    /* \"#utility.yul\":371:378   */\n  0x00\n    /* \"#utility.yul\":400:405   */\n  dup2\n    /* \"#utility.yul\":389:405   */\n  swap1\n  pop\n    /* \"#utility.yul\":334:411   */\n  swap2\n  swap1\n  pop\n  jump\t// out\n    /* \"#utility.yul\":417:539   */\ntag_11:\n    /* \"#utility.yul\":490:514   */\n  tag_19\n    /* \"#utility.yul\":508:513   */\n  dup2\n    /* \"#utility.yul\":490:514   */\n  tag_10\n  jump\t// in\ntag_19:\n    /* \"#utility.yul\":483:488   */\n  dup2\n    /* \"#utility.yul\":480:515   */\n  eq\n    /* \"#utility.yul\":470:533   */\n  tag_20\n  jumpi\n    /* \"#utility.yul\":529:530   */\n  0x00\n    /* \"#utility.yul\":526:527   */\n  dup1\n    /* \"#utility.yul\":519:531   */\n  revert\n    /* \"#utility.yul\":470:533   */\ntag_20:\n    /* \"#utility.yul\":417:539   */\n  pop\n  jump\t// out\n    /* \"#utility.yul\":545:688   */\ntag_12:\n    /* \"#utility.yul\":602:607   */\n  0x00\n    /* \"#utility.yul\":633:639   */\n  dup2\n    /* \"#utility.yul\":627:640   */\n  mload\n    /* \"#utility.yul\":618:640   */\n  swap1\n  pop\n    /* \"#utility.yul\":649:682   */\n  tag_22\n    /* \"#utility.yul\":676:681   */\n  dup2\n    /* \"#utility.yul\":649:682   */\n  tag_11\n  jump\t// in\ntag_22:\n    /* \"#utility.yul\":545:688   */\n  swap3\n  swap2\n  pop\n  pop\n  jump\t// out\n    /* \"#utility.yul\":694:1045   */\ntag_3:\n    /* \"#utility.yul\":764:770   */\n  0x00\n    /* \"#utility.yul\":813:815   */\n  0x20\n    /* \"#utility.yul\":801:810   */\n  dup3\n    /* \"#utility.yul\":792:799   */\n  dup5\n    /* \"#utility.yul\":788:811   */\n  sub\n    /* \"#utility.yul\":784:816   */\n  slt\n    /* \"#utility.yul\":781:900   */\n  iszero\n  tag_24\n  jumpi\n    /* \"#utility.yul\":819:898   */\n  tag_25\n  tag_8\n  jump\t// in\ntag_25:\n    /* \"#utility.yul\":781:900   */\ntag_24:\n    /* \"#utility.yul\":939:940   */\n  0x00\n    /* \"#utility.yul\":964:1028   */\n  tag_26\n    /* \"#utility.yul\":1020:1027   */\n  dup5\n    /* \"#utility.yul\":1011:1017   */\n  dup3\n    /* \"#utility.yul\":1000:1009   */\n  dup6\n    /* \"#utility.yul\":996:1018   */\n  add\n    /* \"#utility.yul\":964:1028   */\n  tag_12\n  jump\t// in\ntag_26:\n    /* \"#utility.yul\":954:1028   */\n  swap2\n  pop\n    /* \"#utility.yul\":910:1038   */\n  pop\n    /* \"#utility.yul\":694:1045   */\n  swap3\n  swap2\n  pop\n  pop\n  jump\t// out\n    /* \"contracts/exercisePayable.sol\":74:3174  contract exercisePayable {... */\ntag_6:\n  dataSize(sub_0)\n  dup1\n  dataOffset(sub_0)\n  0x00\n  codecopy\n  0x00\n  return\nstop\n\nsub_0: assembly {\n        /* \"contracts/exercisePayable.sol\":74:3174  contract exercisePayable {... */\n      mstore(0x40, 0x80)\n      jumpi(tag_1, lt(calldatasize, 0x04))\n      shr(0xe0, calldataload(0x00))\n      dup1\n      0x3b19e84a\n      gt\n      tag_9\n      jumpi\n      dup1\n      0x3b19e84a\n      eq\n      tag_5\n      jumpi\n      dup1\n      0x3ffbd47f\n      eq\n      tag_6\n      jumpi\n      dup1\n      0xa87430ba\n      eq\n      tag_7\n      jumpi\n      dup1\n      0xd0e30db0\n      eq\n      tag_8\n      jumpi\n      jump(tag_1)\n    tag_9:\n      dup1\n      0x11f1fc99\n      eq\n      tag_2\n      jumpi\n      dup1\n      0x12065fe0\n      eq\n      tag_3\n      jumpi\n      dup1\n      0x2e1a7d4d\n      eq\n      tag_4\n      jumpi\n    tag_1:\n      0x00\n      dup1\n      revert\n        /* \"contracts/exercisePayable.sol\":2751:3022  function withdrawTreasury(uint256 _amount) external onlyOwner {... */\n    tag_2:\n      callvalue\n      dup1\n      iszero\n      tag_10\n      jumpi\n      0x00\n      dup1\n      revert\n    tag_10:\n      pop\n      tag_11\n      0x04\n      dup1\n      calldatasize\n      sub\n      dup2\n      add\n      swap1\n      tag_12\n      swap2\n      swap1\n      tag_13\n      jump\t// in\n    tag_12:\n      tag_14\n      jump\t// in\n    tag_11:\n      stop\n        /* \"contracts/exercisePayable.sol\":1973:2092  function getBalance() external view onlyRegistered returns (uint256) {... */\n    tag_3:\n      callvalue\n      dup1\n      iszero\n      tag_15\n      jumpi\n      0x00\n      dup1\n      revert\n    tag_15:\n      pop\n      tag_16\n      tag_17\n      jump\t// in\n    tag_16:\n      mload(0x40)\n      tag_18\n      swap2\n      swap1\n      tag_19\n      jump\t// in\n    tag_18:\n      mload(0x40)\n      dup1\n      swap2\n      sub\n      swap1\n      return\n        /* \"contracts/exercisePayable.sol\":2134:2701  function withdraw(uint256 _amount) external onlyRegistered {... */\n    tag_4:\n      callvalue\n      dup1\n      iszero\n      tag_20\n      jumpi\n      0x00\n      dup1\n      revert\n    tag_20:\n      pop\n      tag_21\n      0x04\n      dup1\n      calldatasize\n      sub\n      dup2\n      add\n      swap1\n      tag_22\n      swap2\n      swap1\n      tag_13\n      jump\t// in\n    tag_22:\n      tag_23\n      jump\t// in\n    tag_21:\n      stop\n        /* \"contracts/exercisePayable.sol\":3073:3171  function getTreasury() external view onlyOwner returns(uint256) {... */\n    tag_5:\n      callvalue\n      dup1\n      iszero\n      tag_24\n      jumpi\n      0x00\n      dup1\n      revert\n    tag_24:\n      pop\n      tag_25\n      tag_26\n      jump\t// in\n    tag_25:\n      mload(0x40)\n      tag_27\n      swap2\n      swap1\n      tag_19\n      jump\t// in\n    tag_27:\n      mload(0x40)\n      dup1\n      swap2\n      sub\n      swap1\n      return\n        /* \"contracts/exercisePayable.sol\":1231:1651  function register(string calldata _firstName, string calldata _lastName) external {... */\n    tag_6:\n      callvalue\n      dup1\n      iszero\n      tag_28\n      jumpi\n      0x00\n      dup1\n      revert\n    tag_28:\n      pop\n      tag_29\n      0x04\n      dup1\n      calldatasize\n      sub\n      dup2\n      add\n      swap1\n      tag_30\n      swap2\n      swap1\n      tag_31\n      jump\t// in\n    tag_30:\n      tag_32\n      jump\t// in\n    tag_29:\n      stop\n        /* \"contracts/exercisePayable.sol\":862:899  mapping(address => User) public users */\n    tag_7:\n      callvalue\n      dup1\n      iszero\n      tag_33\n      jumpi\n      0x00\n      dup1\n      revert\n    tag_33:\n      pop\n      tag_34\n      0x04\n      dup1\n      calldatasize\n      sub\n      dup2\n      add\n      swap1\n      tag_35\n      swap2\n      swap1\n      tag_36\n      jump\t// in\n    tag_35:\n      tag_37\n      jump\t// in\n    tag_34:\n      mload(0x40)\n      tag_38\n      swap5\n      swap4\n      swap3\n      swap2\n      swap1\n      tag_39\n      jump\t// in\n    tag_38:\n      mload(0x40)\n      dup1\n      swap2\n      sub\n      swap1\n      return\n        /* \"contracts/exercisePayable.sol\":1696:1928  function deposit() external payable onlyRegistered {... */\n    tag_8:\n      tag_40\n      tag_41\n      jump\t// in\n    tag_40:\n      stop\n        /* \"contracts/exercisePayable.sol\":2751:3022  function withdrawTreasury(uint256 _amount) external onlyOwner {... */\n    tag_14:\n        /* \"contracts/exercisePayable.sol\":1126:1131  owner */\n      0x01\n      0x00\n      swap1\n      sload\n      swap1\n      0x0100\n      exp\n      swap1\n      div\n      0xffffffffffffffffffffffffffffffffffffffff\n      and\n        /* \"contracts/exercisePayable.sol\":1112:1131  msg.sender == owner */\n      0xffffffffffffffffffffffffffffffffffffffff\n      and\n        /* \"contracts/exercisePayable.sol\":1112:1122  msg.sender */\n      caller\n        /* \"contracts/exercisePayable.sol\":1112:1131  msg.sender == owner */\n      0xffffffffffffffffffffffffffffffffffffffff\n      and\n      eq\n        /* \"contracts/exercisePayable.sol\":1104:1172  require(msg.sender == owner, \"You aren't the owner of the contract\") */\n      tag_43\n      jumpi\n      mload(0x40)\n      0x08c379a000000000000000000000000000000000000000000000000000000000\n      dup2\n      mstore\n      0x04\n      add\n      tag_44\n      swap1\n      tag_45\n      jump\t// in\n    tag_44:\n      mload(0x40)\n      dup1\n      swap2\n      sub\n      swap1\n      revert\n    tag_43:\n        /* \"contracts/exercisePayable.sol\":2844:2851  _amount */\n      dup1\n        /* \"contracts/exercisePayable.sol\":2832:2840  treasury */\n      sload(0x02)\n        /* \"contracts/exercisePayable.sol\":2832:2851  treasury >= _amount */\n      lt\n      iszero\n        /* \"contracts/exercisePayable.sol\":2824:2889  require(treasury >= _amount, \"Not enough funds in the treasury.\") */\n      tag_47\n      jumpi\n      mload(0x40)\n      0x08c379a000000000000000000000000000000000000000000000000000000000\n      dup2\n      mstore\n      0x04\n      add\n      tag_48\n      swap1\n      tag_49\n      jump\t// in\n    tag_48:\n      mload(0x40)\n      dup1\n      swap2\n      sub\n      swap1\n      revert\n    tag_47:\n        /* \"contracts/exercisePayable.sol\":2914:2921  _amount */\n      dup1\n        /* \"contracts/exercisePayable.sol\":2902:2910  treasury */\n      0x02\n      0x00\n        /* \"contracts/exercisePayable.sol\":2902:2921  treasury -= _amount */\n      dup3\n      dup3\n      sload\n      tag_50\n      swap2\n      swap1\n      tag_51\n      jump\t// in\n    tag_50:\n      swap3\n      pop\n      pop\n      dup2\n      swap1\n      sstore\n      pop\n        /* \"contracts/exercisePayable.sol\":2940:2945  owner */\n      0x01\n      0x00\n      swap1\n      sload\n      swap1\n      0x0100\n      exp\n      swap1\n      div\n      0xffffffffffffffffffffffffffffffffffffffff\n      and\n        /* \"contracts/exercisePayable.sol\":2932:2955  payable(owner).transfer */\n      0xffffffffffffffffffffffffffffffffffffffff\n      and\n        /* \"contracts/exercisePayable.sol\":2932:2964  payable(owner).transfer(_amount) */\n      0x08fc\n        /* \"contracts/exercisePayable.sol\":2956:2963  _amount */\n      dup3\n        /* \"contracts/exercisePayable.sol\":2932:2964  payable(owner).transfer(_amount) */\n      swap1\n      dup2\n      iszero\n      mul\n      swap1\n      mload(0x40)\n      0x00\n      mload(0x40)\n      dup1\n      dup4\n      sub\n      dup2\n      dup6\n      dup9\n      dup9\n      call\n      swap4\n      pop\n      pop\n      pop\n      pop\n      iszero\n      dup1\n      iszero\n      tag_53\n      jumpi\n      returndatasize\n      0x00\n      dup1\n      returndatacopy\n      revert(0x00, returndatasize)\n    tag_53:\n      pop\n        /* \"contracts/exercisePayable.sol\":2999:3004  owner */\n      0x01\n      0x00\n      swap1\n      sload\n      swap1\n      0x0100\n      exp\n      swap1\n      div\n      0xffffffffffffffffffffffffffffffffffffffff\n      and\n        /* \"contracts/exercisePayable.sol\":2982:3014  WithdrawTreasury(owner, _amount) */\n      0xffffffffffffffffffffffffffffffffffffffff\n      and\n      0x905d2a9b2639a94f09720cfd7b061c3b7a9e27921a009e954d67c8aff6e73667\n        /* \"contracts/exercisePayable.sol\":3006:3013  _amount */\n      dup3\n        /* \"contracts/exercisePayable.sol\":2982:3014  WithdrawTreasury(owner, _amount) */\n      mload(0x40)\n      tag_54\n      swap2\n      swap1\n      tag_19\n      jump\t// in\n    tag_54:\n      mload(0x40)\n      dup1\n      swap2\n      sub\n      swap1\n      log2\n        /* \"contracts/exercisePayable.sol\":2751:3022  function withdrawTreasury(uint256 _amount) external onlyOwner {... */\n      pop\n      jump\t// out\n        /* \"contracts/exercisePayable.sol\":1973:2092  function getBalance() external view onlyRegistered returns (uint256) {... */\n    tag_17:\n        /* \"contracts/exercisePayable.sol\":2033:2040  uint256 */\n      0x00\n        /* \"contracts/exercisePayable.sol\":1019:1020  0 */\n      dup1\n        /* \"contracts/exercisePayable.sol\":981:986  users */\n      0x03\n        /* \"contracts/exercisePayable.sol\":981:998  users[msg.sender] */\n      0x00\n        /* \"contracts/exercisePayable.sol\":987:997  msg.sender */\n      caller\n        /* \"contracts/exercisePayable.sol\":981:998  users[msg.sender] */\n      0xffffffffffffffffffffffffffffffffffffffff\n      and\n      0xffffffffffffffffffffffffffffffffffffffff\n      and\n      dup2\n      mstore\n      0x20\n      add\n      swap1\n      dup2\n      mstore\n      0x20\n      add\n      0x00\n      keccak256\n        /* \"contracts/exercisePayable.sol\":981:1008  users[msg.sender].firstName */\n      0x00\n      add\n        /* \"contracts/exercisePayable.sol\":975:1016  bytes(users[msg.sender].firstName).length */\n      dup1\n      sload\n      tag_56\n      swap1\n      tag_57\n      jump\t// in\n    tag_56:\n      swap1\n      pop\n        /* \"contracts/exercisePayable.sol\":975:1020  bytes(users[msg.sender].firstName).length > 0 */\n      gt\n        /* \"contracts/exercisePayable.sol\":967:1044  require(bytes(users[msg.sender].firstName).length > 0, \"User not registered\") */\n      tag_58\n      jumpi\n      mload(0x40)\n      0x08c379a000000000000000000000000000000000000000000000000000000000\n      dup2\n      mstore\n      0x04\n      add\n      tag_59\n      swap1\n      tag_60\n      jump\t// in\n    tag_59:\n      mload(0x40)\n      dup1\n      swap2\n      sub\n      swap1\n      revert\n    tag_58:\n        /* \"contracts/exercisePayable.sol\":2060:2065  users */\n      0x03\n        /* \"contracts/exercisePayable.sol\":2060:2077  users[msg.sender] */\n      0x00\n        /* \"contracts/exercisePayable.sol\":2066:2076  msg.sender */\n      caller\n        /* \"contracts/exercisePayable.sol\":2060:2077  users[msg.sender] */\n      0xffffffffffffffffffffffffffffffffffffffff\n      and\n      0xffffffffffffffffffffffffffffffffffffffff\n      and\n      dup2\n      mstore\n      0x20\n      add\n      swap1\n      dup2\n      mstore\n      0x20\n      add\n      0x00\n      keccak256\n        /* \"contracts/exercisePayable.sol\":2060:2084  users[msg.sender].amount */\n      0x02\n      add\n      sload\n        /* \"contracts/exercisePayable.sol\":2053:2084  return users[msg.sender].amount */\n      swap1\n      pop\n        /* \"contracts/exercisePayable.sol\":1973:2092  function getBalance() external view onlyRegistered returns (uint256) {... */\n      swap1\n      jump\t// out\n        /* \"contracts/exercisePayable.sol\":2134:2701  function withdraw(uint256 _amount) external onlyRegistered {... */\n    tag_23:\n        /* \"contracts/exercisePayable.sol\":1019:1020  0 */\n      0x00\n        /* \"contracts/exercisePayable.sol\":981:986  users */\n      0x03\n        /* \"contracts/exercisePayable.sol\":981:998  users[msg.sender] */\n      0x00\n        /* \"contracts/exercisePayable.sol\":987:997  msg.sender */\n      caller\n        /* \"contracts/exercisePayable.sol\":981:998  users[msg.sender] */\n      0xffffffffffffffffffffffffffffffffffffffff\n      and\n      0xffffffffffffffffffffffffffffffffffffffff\n      and\n      dup2\n      mstore\n      0x20\n      add\n      swap1\n      dup2\n      mstore\n      0x20\n      add\n      0x00\n      keccak256\n        /* \"contracts/exercisePayable.sol\":981:1008  users[msg.sender].firstName */\n      0x00\n      add\n        /* \"contracts/exercisePayable.sol\":975:1016  bytes(users[msg.sender].firstName).length */\n      dup1\n      sload\n      tag_63\n      swap1\n      tag_57\n      jump\t// in\n    tag_63:\n      swap1\n      pop\n        /* \"contracts/exercisePayable.sol\":975:1020  bytes(users[msg.sender].firstName).length > 0 */\n      gt\n        /* \"contracts/exercisePayable.sol\":967:1044  require(bytes(users[msg.sender].firstName).length > 0, \"User not registered\") */\n      tag_64\n      jumpi\n      mload(0x40)\n      0x08c379a000000000000000000000000000000000000000000000000000000000\n      dup2\n      mstore\n      0x04\n      add\n      tag_65\n      swap1\n      tag_60\n      jump\t// in\n    tag_65:\n      mload(0x40)\n      dup1\n      swap2\n      sub\n      swap1\n      revert\n    tag_64:\n        /* \"contracts/exercisePayable.sol\":2240:2247  _amount */\n      dup1\n        /* \"contracts/exercisePayable.sol\":2212:2217  users */\n      0x03\n        /* \"contracts/exercisePayable.sol\":2212:2229  users[msg.sender] */\n      0x00\n        /* \"contracts/exercisePayable.sol\":2218:2228  msg.sender */\n      caller\n        /* \"contracts/exercisePayable.sol\":2212:2229  users[msg.sender] */\n      0xffffffffffffffffffffffffffffffffffffffff\n      and\n      0xffffffffffffffffffffffffffffffffffffffff\n      and\n      dup2\n      mstore\n      0x20\n      add\n      swap1\n      dup2\n      mstore\n      0x20\n      add\n      0x00\n      keccak256\n        /* \"contracts/exercisePayable.sol\":2212:2236  users[msg.sender].amount */\n      0x02\n      add\n      sload\n        /* \"contracts/exercisePayable.sol\":2212:2247  users[msg.sender].amount >= _amount */\n      lt\n      iszero\n        /* \"contracts/exercisePayable.sol\":2204:2270  require(users[msg.sender].amount >= _amount, \"Not enough amount.\") */\n      tag_67\n      jumpi\n      mload(0x40)\n      0x08c379a000000000000000000000000000000000000000000000000000000000\n      dup2\n      mstore\n      0x04\n      add\n      tag_68\n      swap1\n      tag_69\n      jump\t// in\n    tag_68:\n      mload(0x40)\n      dup1\n      swap2\n      sub\n      swap1\n      revert\n    tag_67:\n        /* \"contracts/exercisePayable.sol\":2283:2299  uint256 feeToPay */\n      0x00\n        /* \"contracts/exercisePayable.sol\":2320:2325  10000 */\n      0x2710\n        /* \"contracts/exercisePayable.sol\":2313:2316  fee */\n      sload(0x00)\n        /* \"contracts/exercisePayable.sol\":2303:2310  _amount */\n      dup4\n        /* \"contracts/exercisePayable.sol\":2303:2316  _amount * fee */\n      tag_70\n      swap2\n      swap1\n      tag_71\n      jump\t// in\n    tag_70:\n        /* \"contracts/exercisePayable.sol\":2302:2325  (_amount * fee) / 10000 */\n      tag_72\n      swap2\n      swap1\n      tag_73\n      jump\t// in\n    tag_72:\n        /* \"contracts/exercisePayable.sol\":2283:2325  uint256 feeToPay = (_amount * fee) / 10000 */\n      swap1\n      pop\n        /* \"contracts/exercisePayable.sol\":2336:2358  uint256 amountAfterFee */\n      0x00\n        /* \"contracts/exercisePayable.sol\":2371:2379  feeToPay */\n      dup2\n        /* \"contracts/exercisePayable.sol\":2361:2368  _amount */\n      dup4\n        /* \"contracts/exercisePayable.sol\":2361:2379  _amount - feeToPay */\n      tag_74\n      swap2\n      swap1\n      tag_51\n      jump\t// in\n    tag_74:\n        /* \"contracts/exercisePayable.sol\":2336:2379  uint256 amountAfterFee = _amount - feeToPay */\n      swap1\n      pop\n        /* \"contracts/exercisePayable.sol\":2464:2471  _amount */\n      dup3\n        /* \"contracts/exercisePayable.sol\":2436:2441  users */\n      0x03\n        /* \"contracts/exercisePayable.sol\":2436:2453  users[msg.sender] */\n      0x00\n        /* \"contracts/exercisePayable.sol\":2442:2452  msg.sender */\n      caller\n        /* \"contracts/exercisePayable.sol\":2436:2453  users[msg.sender] */\n      0xffffffffffffffffffffffffffffffffffffffff\n      and\n      0xffffffffffffffffffffffffffffffffffffffff\n      and\n      dup2\n      mstore\n      0x20\n      add\n      swap1\n      dup2\n      mstore\n      0x20\n      add\n      0x00\n      keccak256\n        /* \"contracts/exercisePayable.sol\":2436:2460  users[msg.sender].amount */\n      0x02\n      add\n      0x00\n        /* \"contracts/exercisePayable.sol\":2436:2471  users[msg.sender].amount -= _amount */\n      dup3\n      dup3\n      sload\n      tag_75\n      swap2\n      swap1\n      tag_51\n      jump\t// in\n    tag_75:\n      swap3\n      pop\n      pop\n      dup2\n      swap1\n      sstore\n      pop\n        /* \"contracts/exercisePayable.sol\":2533:2541  feeToPay */\n      dup2\n        /* \"contracts/exercisePayable.sol\":2521:2529  treasury */\n      0x02\n      0x00\n        /* \"contracts/exercisePayable.sol\":2521:2541  treasury += feeToPay */\n      dup3\n      dup3\n      sload\n      tag_76\n      swap2\n      swap1\n      tag_77\n      jump\t// in\n    tag_76:\n      swap3\n      pop\n      pop\n      dup2\n      swap1\n      sstore\n      pop\n        /* \"contracts/exercisePayable.sol\":2603:2613  msg.sender */\n      caller\n        /* \"contracts/exercisePayable.sol\":2595:2623  payable(msg.sender).transfer */\n      0xffffffffffffffffffffffffffffffffffffffff\n      and\n        /* \"contracts/exercisePayable.sol\":2595:2639  payable(msg.sender).transfer(amountAfterFee) */\n      0x08fc\n        /* \"contracts/exercisePayable.sol\":2624:2638  amountAfterFee */\n      dup3\n        /* \"contracts/exercisePayable.sol\":2595:2639  payable(msg.sender).transfer(amountAfterFee) */\n      swap1\n      dup2\n      iszero\n      mul\n      swap1\n      mload(0x40)\n      0x00\n      mload(0x40)\n      dup1\n      dup4\n      sub\n      dup2\n      dup6\n      dup9\n      dup9\n      call\n      swap4\n      pop\n      pop\n      pop\n      pop\n      iszero\n      dup1\n      iszero\n      tag_79\n      jumpi\n      returndatasize\n      0x00\n      dup1\n      returndatacopy\n      revert(0x00, returndatasize)\n    tag_79:\n      pop\n        /* \"contracts/exercisePayable.sol\":2666:2676  msg.sender */\n      caller\n        /* \"contracts/exercisePayable.sol\":2657:2693  Withdraw(msg.sender, amountAfterFee) */\n      0xffffffffffffffffffffffffffffffffffffffff\n      and\n      0x884edad9ce6fa2440d8a54cc123490eb96d2768479d49ff9c7366125a9424364\n        /* \"contracts/exercisePayable.sol\":2678:2692  amountAfterFee */\n      dup3\n        /* \"contracts/exercisePayable.sol\":2657:2693  Withdraw(msg.sender, amountAfterFee) */\n      mload(0x40)\n      tag_80\n      swap2\n      swap1\n      tag_19\n      jump\t// in\n    tag_80:\n      mload(0x40)\n      dup1\n      swap2\n      sub\n      swap1\n      log2\n        /* \"contracts/exercisePayable.sol\":2193:2701  {... */\n      pop\n      pop\n        /* \"contracts/exercisePayable.sol\":2134:2701  function withdraw(uint256 _amount) external onlyRegistered {... */\n      pop\n      jump\t// out\n        /* \"contracts/exercisePayable.sol\":3073:3171  function getTreasury() external view onlyOwner returns(uint256) {... */\n    tag_26:\n        /* \"contracts/exercisePayable.sol\":3128:3135  uint256 */\n      0x00\n        /* \"contracts/exercisePayable.sol\":1126:1131  owner */\n      0x01\n      0x00\n      swap1\n      sload\n      swap1\n      0x0100\n      exp\n      swap1\n      div\n      0xffffffffffffffffffffffffffffffffffffffff\n      and\n        /* \"contracts/exercisePayable.sol\":1112:1131  msg.sender == owner */\n      0xffffffffffffffffffffffffffffffffffffffff\n      and\n        /* \"contracts/exercisePayable.sol\":1112:1122  msg.sender */\n      caller\n        /* \"contracts/exercisePayable.sol\":1112:1131  msg.sender == owner */\n      0xffffffffffffffffffffffffffffffffffffffff\n      and\n      eq\n        /* \"contracts/exercisePayable.sol\":1104:1172  require(msg.sender == owner, \"You aren't the owner of the contract\") */\n      tag_82\n      jumpi\n      mload(0x40)\n      0x08c379a000000000000000000000000000000000000000000000000000000000\n      dup2\n      mstore\n      0x04\n      add\n      tag_83\n      swap1\n      tag_45\n      jump\t// in\n    tag_83:\n      mload(0x40)\n      dup1\n      swap2\n      sub\n      swap1\n      revert\n    tag_82:\n        /* \"contracts/exercisePayable.sol\":3155:3163  treasury */\n      sload(0x02)\n        /* \"contracts/exercisePayable.sol\":3148:3163  return treasury */\n      swap1\n      pop\n        /* \"contracts/exercisePayable.sol\":3073:3171  function getTreasury() external view onlyOwner returns(uint256) {... */\n      swap1\n      jump\t// out\n        /* \"contracts/exercisePayable.sol\":1231:1651  function register(string calldata _firstName, string calldata _lastName) external {... */\n    tag_32:\n        /* \"contracts/exercisePayable.sol\":1377:1378  0 */\n      0x00\n        /* \"contracts/exercisePayable.sol\":1338:1343  users */\n      0x03\n        /* \"contracts/exercisePayable.sol\":1338:1355  users[msg.sender] */\n      0x00\n        /* \"contracts/exercisePayable.sol\":1344:1354  msg.sender */\n      caller\n        /* \"contracts/exercisePayable.sol\":1338:1355  users[msg.sender] */\n      0xffffffffffffffffffffffffffffffffffffffff\n      and\n      0xffffffffffffffffffffffffffffffffffffffff\n      and\n      dup2\n      mstore\n      0x20\n      add\n      swap1\n      dup2\n      mstore\n      0x20\n      add\n      0x00\n      keccak256\n        /* \"contracts/exercisePayable.sol\":1338:1365  users[msg.sender].firstName */\n      0x00\n      add\n        /* \"contracts/exercisePayable.sol\":1332:1373  bytes(users[msg.sender].firstName).length */\n      dup1\n      sload\n      tag_86\n      swap1\n      tag_57\n      jump\t// in\n    tag_86:\n      swap1\n      pop\n        /* \"contracts/exercisePayable.sol\":1332:1378  bytes(users[msg.sender].firstName).length == 0 */\n      eq\n        /* \"contracts/exercisePayable.sol\":1324:1406  require(bytes(users[msg.sender].firstName).length == 0, \"User already registered\") */\n      tag_87\n      jumpi\n      mload(0x40)\n      0x08c379a000000000000000000000000000000000000000000000000000000000\n      dup2\n      mstore\n      0x04\n      add\n      tag_88\n      swap1\n      tag_89\n      jump\t// in\n    tag_88:\n      mload(0x40)\n      dup1\n      swap2\n      sub\n      swap1\n      revert\n    tag_87:\n        /* \"contracts/exercisePayable.sol\":1439:1576  User({... */\n      mload(0x40)\n      dup1\n      0x80\n      add\n      0x40\n      mstore\n      dup1\n        /* \"contracts/exercisePayable.sol\":1470:1480  _firstName */\n      dup6\n      dup6\n        /* \"contracts/exercisePayable.sol\":1439:1576  User({... */\n      dup1\n      dup1\n      0x1f\n      add\n      0x20\n      dup1\n      swap2\n      div\n      mul\n      0x20\n      add\n      mload(0x40)\n      swap1\n      dup2\n      add\n      0x40\n      mstore\n      dup1\n      swap4\n      swap3\n      swap2\n      swap1\n      dup2\n      dup2\n      mstore\n      0x20\n      add\n      dup4\n      dup4\n      dup1\n      dup3\n      dup5\n      calldatacopy\n      0x00\n      dup2\n      dup5\n      add\n      mstore\n      not(0x1f)\n      0x1f\n      dup3\n      add\n      and\n      swap1\n      pop\n      dup1\n      dup4\n      add\n      swap3\n      pop\n      pop\n      pop\n      pop\n      pop\n      pop\n      pop\n      dup2\n      mstore\n      0x20\n      add\n        /* \"contracts/exercisePayable.sol\":1505:1514  _lastName */\n      dup4\n      dup4\n        /* \"contracts/exercisePayable.sol\":1439:1576  User({... */\n      dup1\n      dup1\n      0x1f\n      add\n      0x20\n      dup1\n      swap2\n      div\n      mul\n      0x20\n      add\n      mload(0x40)\n      swap1\n      dup2\n      add\n      0x40\n      mstore\n      dup1\n      swap4\n      swap3\n      swap2\n      swap1\n      dup2\n      dup2\n      mstore\n      0x20\n      add\n      dup4\n      dup4\n      dup1\n      dup3\n      dup5\n      calldatacopy\n      0x00\n      dup2\n      dup5\n      add\n      mstore\n      not(0x1f)\n      0x1f\n      dup3\n      add\n      and\n      swap1\n      pop\n      dup1\n      dup4\n      add\n      swap3\n      pop\n      pop\n      pop\n      pop\n      pop\n      pop\n      pop\n      dup2\n      mstore\n      0x20\n      add\n        /* \"contracts/exercisePayable.sol\":1537:1538  0 */\n      0x00\n        /* \"contracts/exercisePayable.sol\":1439:1576  User({... */\n      dup2\n      mstore\n      0x20\n      add\n        /* \"contracts/exercisePayable.sol\":1560:1564  true */\n      0x01\n        /* \"contracts/exercisePayable.sol\":1439:1576  User({... */\n      iszero\n      iszero\n      dup2\n      mstore\n      pop\n        /* \"contracts/exercisePayable.sol\":1419:1424  users */\n      0x03\n        /* \"contracts/exercisePayable.sol\":1419:1436  users[msg.sender] */\n      0x00\n        /* \"contracts/exercisePayable.sol\":1425:1435  msg.sender */\n      caller\n        /* \"contracts/exercisePayable.sol\":1419:1436  users[msg.sender] */\n      0xffffffffffffffffffffffffffffffffffffffff\n      and\n      0xffffffffffffffffffffffffffffffffffffffff\n      and\n      dup2\n      mstore\n      0x20\n      add\n      swap1\n      dup2\n      mstore\n      0x20\n      add\n      0x00\n      keccak256\n        /* \"contracts/exercisePayable.sol\":1419:1576  users[msg.sender] = User({... */\n      0x00\n      dup3\n      add\n      mload\n      dup2\n      0x00\n      add\n      swap1\n      dup2\n      tag_90\n      swap2\n      swap1\n      tag_91\n      jump\t// in\n    tag_90:\n      pop\n      0x20\n      dup3\n      add\n      mload\n      dup2\n      0x01\n      add\n      swap1\n      dup2\n      tag_92\n      swap2\n      swap1\n      tag_91\n      jump\t// in\n    tag_92:\n      pop\n      0x40\n      dup3\n      add\n      mload\n      dup2\n      0x02\n      add\n      sstore\n      0x60\n      dup3\n      add\n      mload\n      dup2\n      0x03\n      add\n      exp(0x0100, 0x00)\n      dup2\n      sload\n      dup2\n      0xff\n      mul\n      not\n      and\n      swap1\n      dup4\n      iszero\n      iszero\n      mul\n      or\n      swap1\n      sstore\n      pop\n      swap1\n      pop\n      pop\n        /* \"contracts/exercisePayable.sol\":1609:1619  msg.sender */\n      caller\n        /* \"contracts/exercisePayable.sol\":1594:1643  UserRegistered(msg.sender, _firstName, _lastName) */\n      0xffffffffffffffffffffffffffffffffffffffff\n      and\n      0x92822564bab8864c3a47b34e8d23fbce5c46234eb5da261f94087b995ac0f33b\n        /* \"contracts/exercisePayable.sol\":1621:1631  _firstName */\n      dup6\n      dup6\n        /* \"contracts/exercisePayable.sol\":1633:1642  _lastName */\n      dup6\n      dup6\n        /* \"contracts/exercisePayable.sol\":1594:1643  UserRegistered(msg.sender, _firstName, _lastName) */\n      mload(0x40)\n      tag_93\n      swap5\n      swap4\n      swap3\n      swap2\n      swap1\n      tag_94\n      jump\t// in\n    tag_93:\n      mload(0x40)\n      dup1\n      swap2\n      sub\n      swap1\n      log2\n        /* \"contracts/exercisePayable.sol\":1231:1651  function register(string calldata _firstName, string calldata _lastName) external {... */\n      pop\n      pop\n      pop\n      pop\n      jump\t// out\n        /* \"contracts/exercisePayable.sol\":862:899  mapping(address => User) public users */\n    tag_37:\n      mstore(0x20, 0x03)\n      dup1\n      0x00\n      mstore\n      keccak256(0x00, 0x40)\n      0x00\n      swap2\n      pop\n      swap1\n      pop\n      dup1\n      0x00\n      add\n      dup1\n      sload\n      tag_95\n      swap1\n      tag_57\n      jump\t// in\n    tag_95:\n      dup1\n      0x1f\n      add\n      0x20\n      dup1\n      swap2\n      div\n      mul\n      0x20\n      add\n      mload(0x40)\n      swap1\n      dup2\n      add\n      0x40\n      mstore\n      dup1\n      swap3\n      swap2\n      swap1\n      dup2\n      dup2\n      mstore\n      0x20\n      add\n      dup3\n      dup1\n      sload\n      tag_96\n      swap1\n      tag_57\n      jump\t// in\n    tag_96:\n      dup1\n      iszero\n      tag_97\n      jumpi\n      dup1\n      0x1f\n      lt\n      tag_98\n      jumpi\n      0x0100\n      dup1\n      dup4\n      sload\n      div\n      mul\n      dup4\n      mstore\n      swap2\n      0x20\n      add\n      swap2\n      jump(tag_97)\n    tag_98:\n      dup3\n      add\n      swap2\n      swap1\n      0x00\n      mstore\n      keccak256(0x00, 0x20)\n      swap1\n    tag_99:\n      dup2\n      sload\n      dup2\n      mstore\n      swap1\n      0x01\n      add\n      swap1\n      0x20\n      add\n      dup1\n      dup4\n      gt\n      tag_99\n      jumpi\n      dup3\n      swap1\n      sub\n      0x1f\n      and\n      dup3\n      add\n      swap2\n    tag_97:\n      pop\n      pop\n      pop\n      pop\n      pop\n      swap1\n      dup1\n      0x01\n      add\n      dup1\n      sload\n      tag_100\n      swap1\n      tag_57\n      jump\t// in\n    tag_100:\n      dup1\n      0x1f\n      add\n      0x20\n      dup1\n      swap2\n      div\n      mul\n      0x20\n      add\n      mload(0x40)\n      swap1\n      dup2\n      add\n      0x40\n      mstore\n      dup1\n      swap3\n      swap2\n      swap1\n      dup2\n      dup2\n      mstore\n      0x20\n      add\n      dup3\n      dup1\n      sload\n      tag_101\n      swap1\n      tag_57\n      jump\t// in\n    tag_101:\n      dup1\n      iszero\n      tag_102\n      jumpi\n      dup1\n      0x1f\n      lt\n      tag_103\n      jumpi\n      0x0100\n      dup1\n      dup4\n      sload\n      div\n      mul\n      dup4\n      mstore\n      swap2\n      0x20\n      add\n      swap2\n      jump(tag_102)\n    tag_103:\n      dup3\n      add\n      swap2\n      swap1\n      0x00\n      mstore\n      keccak256(0x00, 0x20)\n      swap1\n    tag_104:\n      dup2\n      sload\n      dup2\n      mstore\n      swap1\n      0x01\n      add\n      swap1\n      0x20\n      add\n      dup1\n      dup4\n      gt\n      tag_104\n      jumpi\n      dup3\n      swap1\n      sub\n      0x1f\n      and\n      dup3\n      add\n      swap2\n    tag_102:\n      pop\n      pop\n      pop\n      pop\n      pop\n      swap1\n      dup1\n      0x02\n      add\n      sload\n      swap1\n      dup1\n      0x03\n      add\n      0x00\n      swap1\n      sload\n      swap1\n      0x0100\n      exp\n      swap1\n      div\n      0xff\n      and\n      swap1\n      pop\n      dup5\n      jump\t// out\n        /* \"contracts/exercisePayable.sol\":1696:1928  function deposit() external payable onlyRegistered {... */\n    tag_41:\n        /* \"contracts/exercisePayable.sol\":1019:1020  0 */\n      0x00\n        /* \"contracts/exercisePayable.sol\":981:986  users */\n      0x03\n        /* \"contracts/exercisePayable.sol\":981:998  users[msg.sender] */\n      0x00\n        /* \"contracts/exercisePayable.sol\":987:997  msg.sender */\n      caller\n        /* \"contracts/exercisePayable.sol\":981:998  users[msg.sender] */\n      0xffffffffffffffffffffffffffffffffffffffff\n      and\n      0xffffffffffffffffffffffffffffffffffffffff\n      and\n      dup2\n      mstore\n      0x20\n      add\n      swap1\n      dup2\n      mstore\n      0x20\n      add\n      0x00\n      keccak256\n        /* \"contracts/exercisePayable.sol\":981:1008  users[msg.sender].firstName */\n      0x00\n      add\n        /* \"contracts/exercisePayable.sol\":975:1016  bytes(users[msg.sender].firstName).length */\n      dup1\n      sload\n      tag_106\n      swap1\n      tag_57\n      jump\t// in\n    tag_106:\n      swap1\n      pop\n        /* \"contracts/exercisePayable.sol\":975:1020  bytes(users[msg.sender].firstName).length > 0 */\n      gt\n        /* \"contracts/exercisePayable.sol\":967:1044  require(bytes(users[msg.sender].firstName).length > 0, \"User not registered\") */\n      tag_107\n      jumpi\n      mload(0x40)\n      0x08c379a000000000000000000000000000000000000000000000000000000000\n      dup2\n      mstore\n      0x04\n      add\n      tag_108\n      swap1\n      tag_60\n      jump\t// in\n    tag_108:\n      mload(0x40)\n      dup1\n      swap2\n      sub\n      swap1\n      revert\n    tag_107:\n        /* \"contracts/exercisePayable.sol\":1778:1779  0 */\n      0x00\n        /* \"contracts/exercisePayable.sol\":1766:1775  msg.value */\n      callvalue\n        /* \"contracts/exercisePayable.sol\":1766:1779  msg.value > 0 */\n      gt\n        /* \"contracts/exercisePayable.sol\":1758:1824  require(msg.value > 0, \"Deposit amount must be greater than zero\") */\n      tag_110\n      jumpi\n      mload(0x40)\n      0x08c379a000000000000000000000000000000000000000000000000000000000\n      dup2\n      mstore\n      0x04\n      add\n      tag_111\n      swap1\n      tag_112\n      jump\t// in\n    tag_111:\n      mload(0x40)\n      dup1\n      swap2\n      sub\n      swap1\n      revert\n    tag_110:\n        /* \"contracts/exercisePayable.sol\":1863:1872  msg.value */\n      callvalue\n        /* \"contracts/exercisePayable.sol\":1835:1840  users */\n      0x03\n        /* \"contracts/exercisePayable.sol\":1835:1852  users[msg.sender] */\n      0x00\n        /* \"contracts/exercisePayable.sol\":1841:1851  msg.sender */\n      caller\n        /* \"contracts/exercisePayable.sol\":1835:1852  users[msg.sender] */\n      0xffffffffffffffffffffffffffffffffffffffff\n      and\n      0xffffffffffffffffffffffffffffffffffffffff\n      and\n      dup2\n      mstore\n      0x20\n      add\n      swap1\n      dup2\n      mstore\n      0x20\n      add\n      0x00\n      keccak256\n        /* \"contracts/exercisePayable.sol\":1835:1859  users[msg.sender].amount */\n      0x02\n      add\n      0x00\n        /* \"contracts/exercisePayable.sol\":1835:1872  users[msg.sender].amount += msg.value */\n      dup3\n      dup3\n      sload\n      tag_113\n      swap2\n      swap1\n      tag_77\n      jump\t// in\n    tag_113:\n      swap3\n      pop\n      pop\n      dup2\n      swap1\n      sstore\n      pop\n        /* \"contracts/exercisePayable.sol\":1898:1908  msg.sender */\n      caller\n        /* \"contracts/exercisePayable.sol\":1890:1920  Deposit(msg.sender, msg.value) */\n      0xffffffffffffffffffffffffffffffffffffffff\n      and\n      0xe1fffcc4923d04b559f4d29a8bfc6cda04eb5b0d3c460751c2402c5c5cc9109c\n        /* \"contracts/exercisePayable.sol\":1910:1919  msg.value */\n      callvalue\n        /* \"contracts/exercisePayable.sol\":1890:1920  Deposit(msg.sender, msg.value) */\n      mload(0x40)\n      tag_114\n      swap2\n      swap1\n      tag_19\n      jump\t// in\n    tag_114:\n      mload(0x40)\n      dup1\n      swap2\n      sub\n      swap1\n      log2\n        /* \"contracts/exercisePayable.sol\":1696:1928  function deposit() external payable onlyRegistered {... */\n      jump\t// out\n        /* \"#utility.yul\":88:205   */\n    tag_116:\n        /* \"#utility.yul\":197:198   */\n      0x00\n        /* \"#utility.yul\":194:195   */\n      dup1\n        /* \"#utility.yul\":187:199   */\n      revert\n        /* \"#utility.yul\":211:328   */\n    tag_117:\n        /* \"#utility.yul\":320:321   */\n      0x00\n        /* \"#utility.yul\":317:318   */\n      dup1\n        /* \"#utility.yul\":310:322   */\n      revert\n        /* \"#utility.yul\":334:411   */\n    tag_118:\n        /* \"#utility.yul\":371:378   */\n      0x00\n        /* \"#utility.yul\":400:405   */\n      dup2\n        /* \"#utility.yul\":389:405   */\n      swap1\n      pop\n        /* \"#utility.yul\":334:411   */\n      swap2\n      swap1\n      pop\n      jump\t// out\n        /* \"#utility.yul\":417:539   */\n    tag_119:\n        /* \"#utility.yul\":490:514   */\n      tag_176\n        /* \"#utility.yul\":508:513   */\n      dup2\n        /* \"#utility.yul\":490:514   */\n      tag_118\n      jump\t// in\n    tag_176:\n        /* \"#utility.yul\":483:488   */\n      dup2\n        /* \"#utility.yul\":480:515   */\n      eq\n        /* \"#utility.yul\":470:533   */\n      tag_177\n      jumpi\n        /* \"#utility.yul\":529:530   */\n      0x00\n        /* \"#utility.yul\":526:527   */\n      dup1\n        /* \"#utility.yul\":519:531   */\n      revert\n        /* \"#utility.yul\":470:533   */\n    tag_177:\n        /* \"#utility.yul\":417:539   */\n      pop\n      jump\t// out\n        /* \"#utility.yul\":545:684   */\n    tag_120:\n        /* \"#utility.yul\":591:596   */\n      0x00\n        /* \"#utility.yul\":629:635   */\n      dup2\n        /* \"#utility.yul\":616:636   */\n      calldataload\n        /* \"#utility.yul\":607:636   */\n      swap1\n      pop\n        /* \"#utility.yul\":645:678   */\n      tag_179\n        /* \"#utility.yul\":672:677   */\n      dup2\n        /* \"#utility.yul\":645:678   */\n      tag_119\n      jump\t// in\n    tag_179:\n        /* \"#utility.yul\":545:684   */\n      swap3\n      swap2\n      pop\n      pop\n      jump\t// out\n        /* \"#utility.yul\":690:1019   */\n    tag_13:\n        /* \"#utility.yul\":749:755   */\n      0x00\n        /* \"#utility.yul\":798:800   */\n      0x20\n        /* \"#utility.yul\":786:795   */\n      dup3\n        /* \"#utility.yul\":777:784   */\n      dup5\n        /* \"#utility.yul\":773:796   */\n      sub\n        /* \"#utility.yul\":769:801   */\n      slt\n        /* \"#utility.yul\":766:885   */\n      iszero\n      tag_181\n      jumpi\n        /* \"#utility.yul\":804:883   */\n      tag_182\n      tag_116\n      jump\t// in\n    tag_182:\n        /* \"#utility.yul\":766:885   */\n    tag_181:\n        /* \"#utility.yul\":924:925   */\n      0x00\n        /* \"#utility.yul\":949:1002   */\n      tag_183\n        /* \"#utility.yul\":994:1001   */\n      dup5\n        /* \"#utility.yul\":985:991   */\n      dup3\n        /* \"#utility.yul\":974:983   */\n      dup6\n        /* \"#utility.yul\":970:992   */\n      add\n        /* \"#utility.yul\":949:1002   */\n      tag_120\n      jump\t// in\n    tag_183:\n        /* \"#utility.yul\":939:1002   */\n      swap2\n      pop\n        /* \"#utility.yul\":895:1012   */\n      pop\n        /* \"#utility.yul\":690:1019   */\n      swap3\n      swap2\n      pop\n      pop\n      jump\t// out\n        /* \"#utility.yul\":1025:1143   */\n    tag_121:\n        /* \"#utility.yul\":1112:1136   */\n      tag_185\n        /* \"#utility.yul\":1130:1135   */\n      dup2\n        /* \"#utility.yul\":1112:1136   */\n      tag_118\n      jump\t// in\n    tag_185:\n        /* \"#utility.yul\":1107:1110   */\n      dup3\n        /* \"#utility.yul\":1100:1137   */\n      mstore\n        /* \"#utility.yul\":1025:1143   */\n      pop\n      pop\n      jump\t// out\n        /* \"#utility.yul\":1149:1371   */\n    tag_19:\n        /* \"#utility.yul\":1242:1246   */\n      0x00\n        /* \"#utility.yul\":1280:1282   */\n      0x20\n        /* \"#utility.yul\":1269:1278   */\n      dup3\n        /* \"#utility.yul\":1265:1283   */\n      add\n        /* \"#utility.yul\":1257:1283   */\n      swap1\n      pop\n        /* \"#utility.yul\":1293:1364   */\n      tag_187\n        /* \"#utility.yul\":1361:1362   */\n      0x00\n        /* \"#utility.yul\":1350:1359   */\n      dup4\n        /* \"#utility.yul\":1346:1363   */\n      add\n        /* \"#utility.yul\":1337:1343   */\n      dup5\n        /* \"#utility.yul\":1293:1364   */\n      tag_121\n      jump\t// in\n    tag_187:\n        /* \"#utility.yul\":1149:1371   */\n      swap3\n      swap2\n      pop\n      pop\n      jump\t// out\n        /* \"#utility.yul\":1377:1494   */\n    tag_122:\n        /* \"#utility.yul\":1486:1487   */\n      0x00\n        /* \"#utility.yul\":1483:1484   */\n      dup1\n        /* \"#utility.yul\":1476:1488   */\n      revert\n        /* \"#utility.yul\":1500:1617   */\n    tag_123:\n        /* \"#utility.yul\":1609:1610   */\n      0x00\n        /* \"#utility.yul\":1606:1607   */\n      dup1\n        /* \"#utility.yul\":1599:1611   */\n      revert\n        /* \"#utility.yul\":1623:1740   */\n    tag_124:\n        /* \"#utility.yul\":1732:1733   */\n      0x00\n        /* \"#utility.yul\":1729:1730   */\n      dup1\n        /* \"#utility.yul\":1722:1734   */\n      revert\n        /* \"#utility.yul\":1760:2313   */\n    tag_125:\n        /* \"#utility.yul\":1818:1826   */\n      0x00\n        /* \"#utility.yul\":1828:1834   */\n      dup1\n        /* \"#utility.yul\":1878:1881   */\n      dup4\n        /* \"#utility.yul\":1871:1875   */\n      0x1f\n        /* \"#utility.yul\":1863:1869   */\n      dup5\n        /* \"#utility.yul\":1859:1876   */\n      add\n        /* \"#utility.yul\":1855:1882   */\n      slt\n        /* \"#utility.yul\":1845:1967   */\n      tag_192\n      jumpi\n        /* \"#utility.yul\":1886:1965   */\n      tag_193\n      tag_122\n      jump\t// in\n    tag_193:\n        /* \"#utility.yul\":1845:1967   */\n    tag_192:\n        /* \"#utility.yul\":1999:2005   */\n      dup3\n        /* \"#utility.yul\":1986:2006   */\n      calldataload\n        /* \"#utility.yul\":1976:2006   */\n      swap1\n      pop\n        /* \"#utility.yul\":2029:2047   */\n      0xffffffffffffffff\n        /* \"#utility.yul\":2021:2027   */\n      dup2\n        /* \"#utility.yul\":2018:2048   */\n      gt\n        /* \"#utility.yul\":2015:2132   */\n      iszero\n      tag_194\n      jumpi\n        /* \"#utility.yul\":2051:2130   */\n      tag_195\n      tag_123\n      jump\t// in\n    tag_195:\n        /* \"#utility.yul\":2015:2132   */\n    tag_194:\n        /* \"#utility.yul\":2165:2169   */\n      0x20\n        /* \"#utility.yul\":2157:2163   */\n      dup4\n        /* \"#utility.yul\":2153:2170   */\n      add\n        /* \"#utility.yul\":2141:2170   */\n      swap2\n      pop\n        /* \"#utility.yul\":2219:2222   */\n      dup4\n        /* \"#utility.yul\":2211:2215   */\n      0x01\n        /* \"#utility.yul\":2203:2209   */\n      dup3\n        /* \"#utility.yul\":2199:2216   */\n      mul\n        /* \"#utility.yul\":2189:2197   */\n      dup4\n        /* \"#utility.yul\":2185:2217   */\n      add\n        /* \"#utility.yul\":2182:2223   */\n      gt\n        /* \"#utility.yul\":2179:2307   */\n      iszero\n      tag_196\n      jumpi\n        /* \"#utility.yul\":2226:2305   */\n      tag_197\n      tag_124\n      jump\t// in\n    tag_197:\n        /* \"#utility.yul\":2179:2307   */\n    tag_196:\n        /* \"#utility.yul\":1760:2313   */\n      swap3\n      pop\n      swap3\n      swap1\n      pop\n      jump\t// out\n        /* \"#utility.yul\":2319:3193   */\n    tag_31:\n        /* \"#utility.yul\":2411:2417   */\n      0x00\n        /* \"#utility.yul\":2419:2425   */\n      dup1\n        /* \"#utility.yul\":2427:2433   */\n      0x00\n        /* \"#utility.yul\":2435:2441   */\n      dup1\n        /* \"#utility.yul\":2484:2486   */\n      0x40\n        /* \"#utility.yul\":2472:2481   */\n      dup6\n        /* \"#utility.yul\":2463:2470   */\n      dup8\n        /* \"#utility.yul\":2459:2482   */\n      sub\n        /* \"#utility.yul\":2455:2487   */\n      slt\n        /* \"#utility.yul\":2452:2571   */\n      iszero\n      tag_199\n      jumpi\n        /* \"#utility.yul\":2490:2569   */\n      tag_200\n      tag_116\n      jump\t// in\n    tag_200:\n        /* \"#utility.yul\":2452:2571   */\n    tag_199:\n        /* \"#utility.yul\":2638:2639   */\n      0x00\n        /* \"#utility.yul\":2627:2636   */\n      dup6\n        /* \"#utility.yul\":2623:2640   */\n      add\n        /* \"#utility.yul\":2610:2641   */\n      calldataload\n        /* \"#utility.yul\":2668:2686   */\n      0xffffffffffffffff\n        /* \"#utility.yul\":2660:2666   */\n      dup2\n        /* \"#utility.yul\":2657:2687   */\n      gt\n        /* \"#utility.yul\":2654:2771   */\n      iszero\n      tag_201\n      jumpi\n        /* \"#utility.yul\":2690:2769   */\n      tag_202\n      tag_117\n      jump\t// in\n    tag_202:\n        /* \"#utility.yul\":2654:2771   */\n    tag_201:\n        /* \"#utility.yul\":2803:2868   */\n      tag_203\n        /* \"#utility.yul\":2860:2867   */\n      dup8\n        /* \"#utility.yul\":2851:2857   */\n      dup3\n        /* \"#utility.yul\":2840:2849   */\n      dup9\n        /* \"#utility.yul\":2836:2858   */\n      add\n        /* \"#utility.yul\":2803:2868   */\n      tag_125\n      jump\t// in\n    tag_203:\n        /* \"#utility.yul\":2785:2868   */\n      swap5\n      pop\n      swap5\n      pop\n        /* \"#utility.yul\":2581:2878   */\n      pop\n        /* \"#utility.yul\":2945:2947   */\n      0x20\n        /* \"#utility.yul\":2934:2943   */\n      dup6\n        /* \"#utility.yul\":2930:2948   */\n      add\n        /* \"#utility.yul\":2917:2949   */\n      calldataload\n        /* \"#utility.yul\":2976:2994   */\n      0xffffffffffffffff\n        /* \"#utility.yul\":2968:2974   */\n      dup2\n        /* \"#utility.yul\":2965:2995   */\n      gt\n        /* \"#utility.yul\":2962:3079   */\n      iszero\n      tag_204\n      jumpi\n        /* \"#utility.yul\":2998:3077   */\n      tag_205\n      tag_117\n      jump\t// in\n    tag_205:\n        /* \"#utility.yul\":2962:3079   */\n    tag_204:\n        /* \"#utility.yul\":3111:3176   */\n      tag_206\n        /* \"#utility.yul\":3168:3175   */\n      dup8\n        /* \"#utility.yul\":3159:3165   */\n      dup3\n        /* \"#utility.yul\":3148:3157   */\n      dup9\n        /* \"#utility.yul\":3144:3166   */\n      add\n        /* \"#utility.yul\":3111:3176   */\n      tag_125\n      jump\t// in\n    tag_206:\n        /* \"#utility.yul\":3093:3176   */\n      swap3\n      pop\n      swap3\n      pop\n        /* \"#utility.yul\":2888:3186   */\n      pop\n        /* \"#utility.yul\":2319:3193   */\n      swap3\n      swap6\n      swap2\n      swap5\n      pop\n      swap3\n      pop\n      jump\t// out\n        /* \"#utility.yul\":3199:3325   */\n    tag_126:\n        /* \"#utility.yul\":3236:3243   */\n      0x00\n        /* \"#utility.yul\":3276:3318   */\n      0xffffffffffffffffffffffffffffffffffffffff\n        /* \"#utility.yul\":3269:3274   */\n      dup3\n        /* \"#utility.yul\":3265:3319   */\n      and\n        /* \"#utility.yul\":3254:3319   */\n      swap1\n      pop\n        /* \"#utility.yul\":3199:3325   */\n      swap2\n      swap1\n      pop\n      jump\t// out\n        /* \"#utility.yul\":3331:3427   */\n    tag_127:\n        /* \"#utility.yul\":3368:3375   */\n      0x00\n        /* \"#utility.yul\":3397:3421   */\n      tag_209\n        /* \"#utility.yul\":3415:3420   */\n      dup3\n        /* \"#utility.yul\":3397:3421   */\n      tag_126\n      jump\t// in\n    tag_209:\n        /* \"#utility.yul\":3386:3421   */\n      swap1\n      pop\n        /* \"#utility.yul\":3331:3427   */\n      swap2\n      swap1\n      pop\n      jump\t// out\n        /* \"#utility.yul\":3433:3555   */\n    tag_128:\n        /* \"#utility.yul\":3506:3530   */\n      tag_211\n        /* \"#utility.yul\":3524:3529   */\n      dup2\n        /* \"#utility.yul\":3506:3530   */\n      tag_127\n      jump\t// in\n    tag_211:\n        /* \"#utility.yul\":3499:3504   */\n      dup2\n        /* \"#utility.yul\":3496:3531   */\n      eq\n        /* \"#utility.yul\":3486:3549   */\n      tag_212\n      jumpi\n        /* \"#utility.yul\":3545:3546   */\n      0x00\n        /* \"#utility.yul\":3542:3543   */\n      dup1\n        /* \"#utility.yul\":3535:3547   */\n      revert\n        /* \"#utility.yul\":3486:3549   */\n    tag_212:\n        /* \"#utility.yul\":3433:3555   */\n      pop\n      jump\t// out\n        /* \"#utility.yul\":3561:3700   */\n    tag_129:\n        /* \"#utility.yul\":3607:3612   */\n      0x00\n        /* \"#utility.yul\":3645:3651   */\n      dup2\n        /* \"#utility.yul\":3632:3652   */\n      calldataload\n        /* \"#utility.yul\":3623:3652   */\n      swap1\n      pop\n        /* \"#utility.yul\":3661:3694   */\n      tag_214\n        /* \"#utility.yul\":3688:3693   */\n      dup2\n        /* \"#utility.yul\":3661:3694   */\n      tag_128\n      jump\t// in\n    tag_214:\n        /* \"#utility.yul\":3561:3700   */\n      swap3\n      swap2\n      pop\n      pop\n      jump\t// out\n        /* \"#utility.yul\":3706:4035   */\n    tag_36:\n        /* \"#utility.yul\":3765:3771   */\n      0x00\n        /* \"#utility.yul\":3814:3816   */\n      0x20\n        /* \"#utility.yul\":3802:3811   */\n      dup3\n        /* \"#utility.yul\":3793:3800   */\n      dup5\n        /* \"#utility.yul\":3789:3812   */\n      sub\n        /* \"#utility.yul\":3785:3817   */\n      slt\n        /* \"#utility.yul\":3782:3901   */\n      iszero\n      tag_216\n      jumpi\n        /* \"#utility.yul\":3820:3899   */\n      tag_217\n      tag_116\n      jump\t// in\n    tag_217:\n        /* \"#utility.yul\":3782:3901   */\n    tag_216:\n        /* \"#utility.yul\":3940:3941   */\n      0x00\n        /* \"#utility.yul\":3965:4018   */\n      tag_218\n        /* \"#utility.yul\":4010:4017   */\n      dup5\n        /* \"#utility.yul\":4001:4007   */\n      dup3\n        /* \"#utility.yul\":3990:3999   */\n      dup6\n        /* \"#utility.yul\":3986:4008   */\n      add\n        /* \"#utility.yul\":3965:4018   */\n      tag_129\n      jump\t// in\n    tag_218:\n        /* \"#utility.yul\":3955:4018   */\n      swap2\n      pop\n        /* \"#utility.yul\":3911:4028   */\n      pop\n        /* \"#utility.yul\":3706:4035   */\n      swap3\n      swap2\n      pop\n      pop\n      jump\t// out\n        /* \"#utility.yul\":4041:4140   */\n    tag_130:\n        /* \"#utility.yul\":4093:4099   */\n      0x00\n        /* \"#utility.yul\":4127:4132   */\n      dup2\n        /* \"#utility.yul\":4121:4133   */\n      mload\n        /* \"#utility.yul\":4111:4133   */\n      swap1\n      pop\n        /* \"#utility.yul\":4041:4140   */\n      swap2\n      swap1\n      pop\n      jump\t// out\n        /* \"#utility.yul\":4146:4315   */\n    tag_131:\n        /* \"#utility.yul\":4230:4241   */\n      0x00\n        /* \"#utility.yul\":4264:4270   */\n      dup3\n        /* \"#utility.yul\":4259:4262   */\n      dup3\n        /* \"#utility.yul\":4252:4271   */\n      mstore\n        /* \"#utility.yul\":4304:4308   */\n      0x20\n        /* \"#utility.yul\":4299:4302   */\n      dup3\n        /* \"#utility.yul\":4295:4309   */\n      add\n        /* \"#utility.yul\":4280:4309   */\n      swap1\n      pop\n        /* \"#utility.yul\":4146:4315   */\n      swap3\n      swap2\n      pop\n      pop\n      jump\t// out\n        /* \"#utility.yul\":4321:4460   */\n    tag_132:\n        /* \"#utility.yul\":4410:4416   */\n      dup3\n        /* \"#utility.yul\":4405:4408   */\n      dup2\n        /* \"#utility.yul\":4400:4403   */\n      dup4\n        /* \"#utility.yul\":4394:4417   */\n      mcopy\n        /* \"#utility.yul\":4451:4452   */\n      0x00\n        /* \"#utility.yul\":4442:4448   */\n      dup4\n        /* \"#utility.yul\":4437:4440   */\n      dup4\n        /* \"#utility.yul\":4433:4449   */\n      add\n        /* \"#utility.yul\":4426:4453   */\n      mstore\n        /* \"#utility.yul\":4321:4460   */\n      pop\n      pop\n      pop\n      jump\t// out\n        /* \"#utility.yul\":4466:4568   */\n    tag_133:\n        /* \"#utility.yul\":4507:4513   */\n      0x00\n        /* \"#utility.yul\":4558:4560   */\n      0x1f\n        /* \"#utility.yul\":4554:4561   */\n      not\n        /* \"#utility.yul\":4549:4551   */\n      0x1f\n        /* \"#utility.yul\":4542:4547   */\n      dup4\n        /* \"#utility.yul\":4538:4552   */\n      add\n        /* \"#utility.yul\":4534:4562   */\n      and\n        /* \"#utility.yul\":4524:4562   */\n      swap1\n      pop\n        /* \"#utility.yul\":4466:4568   */\n      swap2\n      swap1\n      pop\n      jump\t// out\n        /* \"#utility.yul\":4574:4951   */\n    tag_134:\n        /* \"#utility.yul\":4662:4665   */\n      0x00\n        /* \"#utility.yul\":4690:4729   */\n      tag_224\n        /* \"#utility.yul\":4723:4728   */\n      dup3\n        /* \"#utility.yul\":4690:4729   */\n      tag_130\n      jump\t// in\n    tag_224:\n        /* \"#utility.yul\":4745:4816   */\n      tag_225\n        /* \"#utility.yul\":4809:4815   */\n      dup2\n        /* \"#utility.yul\":4804:4807   */\n      dup6\n        /* \"#utility.yul\":4745:4816   */\n      tag_131\n      jump\t// in\n    tag_225:\n        /* \"#utility.yul\":4738:4816   */\n      swap4\n      pop\n        /* \"#utility.yul\":4825:4890   */\n      tag_226\n        /* \"#utility.yul\":4883:4889   */\n      dup2\n        /* \"#utility.yul\":4878:4881   */\n      dup6\n        /* \"#utility.yul\":4871:4875   */\n      0x20\n        /* \"#utility.yul\":4864:4869   */\n      dup7\n        /* \"#utility.yul\":4860:4876   */\n      add\n        /* \"#utility.yul\":4825:4890   */\n      tag_132\n      jump\t// in\n    tag_226:\n        /* \"#utility.yul\":4915:4944   */\n      tag_227\n        /* \"#utility.yul\":4937:4943   */\n      dup2\n        /* \"#utility.yul\":4915:4944   */\n      tag_133\n      jump\t// in\n    tag_227:\n        /* \"#utility.yul\":4910:4913   */\n      dup5\n        /* \"#utility.yul\":4906:4945   */\n      add\n        /* \"#utility.yul\":4899:4945   */\n      swap2\n      pop\n        /* \"#utility.yul\":4666:4951   */\n      pop\n        /* \"#utility.yul\":4574:4951   */\n      swap3\n      swap2\n      pop\n      pop\n      jump\t// out\n        /* \"#utility.yul\":4957:5047   */\n    tag_135:\n        /* \"#utility.yul\":4991:4998   */\n      0x00\n        /* \"#utility.yul\":5034:5039   */\n      dup2\n        /* \"#utility.yul\":5027:5040   */\n      iszero\n        /* \"#utility.yul\":5020:5041   */\n      iszero\n        /* \"#utility.yul\":5009:5041   */\n      swap1\n      pop\n        /* \"#utility.yul\":4957:5047   */\n      swap2\n      swap1\n      pop\n      jump\t// out\n        /* \"#utility.yul\":5053:5162   */\n    tag_136:\n        /* \"#utility.yul\":5134:5155   */\n      tag_230\n        /* \"#utility.yul\":5149:5154   */\n      dup2\n        /* \"#utility.yul\":5134:5155   */\n      tag_135\n      jump\t// in\n    tag_230:\n        /* \"#utility.yul\":5129:5132   */\n      dup3\n        /* \"#utility.yul\":5122:5156   */\n      mstore\n        /* \"#utility.yul\":5053:5162   */\n      pop\n      pop\n      jump\t// out\n        /* \"#utility.yul\":5168:5891   */\n    tag_39:\n        /* \"#utility.yul\":5379:5383   */\n      0x00\n        /* \"#utility.yul\":5417:5420   */\n      0x80\n        /* \"#utility.yul\":5406:5415   */\n      dup3\n        /* \"#utility.yul\":5402:5421   */\n      add\n        /* \"#utility.yul\":5394:5421   */\n      swap1\n      pop\n        /* \"#utility.yul\":5467:5476   */\n      dup2\n        /* \"#utility.yul\":5461:5465   */\n      dup2\n        /* \"#utility.yul\":5457:5477   */\n      sub\n        /* \"#utility.yul\":5453:5454   */\n      0x00\n        /* \"#utility.yul\":5442:5451   */\n      dup4\n        /* \"#utility.yul\":5438:5455   */\n      add\n        /* \"#utility.yul\":5431:5478   */\n      mstore\n        /* \"#utility.yul\":5495:5573   */\n      tag_232\n        /* \"#utility.yul\":5568:5572   */\n      dup2\n        /* \"#utility.yul\":5559:5565   */\n      dup8\n        /* \"#utility.yul\":5495:5573   */\n      tag_134\n      jump\t// in\n    tag_232:\n        /* \"#utility.yul\":5487:5573   */\n      swap1\n      pop\n        /* \"#utility.yul\":5620:5629   */\n      dup2\n        /* \"#utility.yul\":5614:5618   */\n      dup2\n        /* \"#utility.yul\":5610:5630   */\n      sub\n        /* \"#utility.yul\":5605:5607   */\n      0x20\n        /* \"#utility.yul\":5594:5603   */\n      dup4\n        /* \"#utility.yul\":5590:5608   */\n      add\n        /* \"#utility.yul\":5583:5631   */\n      mstore\n        /* \"#utility.yul\":5648:5726   */\n      tag_233\n        /* \"#utility.yul\":5721:5725   */\n      dup2\n        /* \"#utility.yul\":5712:5718   */\n      dup7\n        /* \"#utility.yul\":5648:5726   */\n      tag_134\n      jump\t// in\n    tag_233:\n        /* \"#utility.yul\":5640:5726   */\n      swap1\n      pop\n        /* \"#utility.yul\":5736:5808   */\n      tag_234\n        /* \"#utility.yul\":5804:5806   */\n      0x40\n        /* \"#utility.yul\":5793:5802   */\n      dup4\n        /* \"#utility.yul\":5789:5807   */\n      add\n        /* \"#utility.yul\":5780:5786   */\n      dup6\n        /* \"#utility.yul\":5736:5808   */\n      tag_121\n      jump\t// in\n    tag_234:\n        /* \"#utility.yul\":5818:5884   */\n      tag_235\n        /* \"#utility.yul\":5880:5882   */\n      0x60\n        /* \"#utility.yul\":5869:5878   */\n      dup4\n        /* \"#utility.yul\":5865:5883   */\n      add\n        /* \"#utility.yul\":5856:5862   */\n      dup5\n        /* \"#utility.yul\":5818:5884   */\n      tag_136\n      jump\t// in\n    tag_235:\n        /* \"#utility.yul\":5168:5891   */\n      swap6\n      swap5\n      pop\n      pop\n      pop\n      pop\n      pop\n      jump\t// out\n        /* \"#utility.yul\":5897:6120   */\n    tag_137:\n        /* \"#utility.yul\":6037:6071   */\n      0x596f75206172656e277420746865206f776e6572206f662074686520636f6e74\n        /* \"#utility.yul\":6033:6034   */\n      0x00\n        /* \"#utility.yul\":6025:6031   */\n      dup3\n        /* \"#utility.yul\":6021:6035   */\n      add\n        /* \"#utility.yul\":6014:6072   */\n      mstore\n        /* \"#utility.yul\":6106:6112   */\n      0x7261637400000000000000000000000000000000000000000000000000000000\n        /* \"#utility.yul\":6101:6103   */\n      0x20\n        /* \"#utility.yul\":6093:6099   */\n      dup3\n        /* \"#utility.yul\":6089:6104   */\n      add\n        /* \"#utility.yul\":6082:6113   */\n      mstore\n        /* \"#utility.yul\":5897:6120   */\n      pop\n      jump\t// out\n        /* \"#utility.yul\":6126:6492   */\n    tag_138:\n        /* \"#utility.yul\":6268:6271   */\n      0x00\n        /* \"#utility.yul\":6289:6356   */\n      tag_238\n        /* \"#utility.yul\":6353:6355   */\n      0x24\n        /* \"#utility.yul\":6348:6351   */\n      dup4\n        /* \"#utility.yul\":6289:6356   */\n      tag_131\n      jump\t// in\n    tag_238:\n        /* \"#utility.yul\":6282:6356   */\n      swap2\n      pop\n        /* \"#utility.yul\":6365:6458   */\n      tag_239\n        /* \"#utility.yul\":6454:6457   */\n      dup3\n        /* \"#utility.yul\":6365:6458   */\n      tag_137\n      jump\t// in\n    tag_239:\n        /* \"#utility.yul\":6483:6485   */\n      0x40\n        /* \"#utility.yul\":6478:6481   */\n      dup3\n        /* \"#utility.yul\":6474:6486   */\n      add\n        /* \"#utility.yul\":6467:6486   */\n      swap1\n      pop\n        /* \"#utility.yul\":6126:6492   */\n      swap2\n      swap1\n      pop\n      jump\t// out\n        /* \"#utility.yul\":6498:6917   */\n    tag_45:\n        /* \"#utility.yul\":6664:6668   */\n      0x00\n        /* \"#utility.yul\":6702:6704   */\n      0x20\n        /* \"#utility.yul\":6691:6700   */\n      dup3\n        /* \"#utility.yul\":6687:6705   */\n      add\n        /* \"#utility.yul\":6679:6705   */\n      swap1\n      pop\n        /* \"#utility.yul\":6751:6760   */\n      dup2\n        /* \"#utility.yul\":6745:6749   */\n      dup2\n        /* \"#utility.yul\":6741:6761   */\n      sub\n        /* \"#utility.yul\":6737:6738   */\n      0x00\n        /* \"#utility.yul\":6726:6735   */\n      dup4\n        /* \"#utility.yul\":6722:6739   */\n      add\n        /* \"#utility.yul\":6715:6762   */\n      mstore\n        /* \"#utility.yul\":6779:6910   */\n      tag_241\n        /* \"#utility.yul\":6905:6909   */\n      dup2\n        /* \"#utility.yul\":6779:6910   */\n      tag_138\n      jump\t// in\n    tag_241:\n        /* \"#utility.yul\":6771:6910   */\n      swap1\n      pop\n        /* \"#utility.yul\":6498:6917   */\n      swap2\n      swap1\n      pop\n      jump\t// out\n        /* \"#utility.yul\":6923:7143   */\n    tag_139:\n        /* \"#utility.yul\":7063:7097   */\n      0x4e6f7420656e6f7567682066756e647320696e20746865207472656173757279\n        /* \"#utility.yul\":7059:7060   */\n      0x00\n        /* \"#utility.yul\":7051:7057   */\n      dup3\n        /* \"#utility.yul\":7047:7061   */\n      add\n        /* \"#utility.yul\":7040:7098   */\n      mstore\n        /* \"#utility.yul\":7132:7135   */\n      0x2e00000000000000000000000000000000000000000000000000000000000000\n        /* \"#utility.yul\":7127:7129   */\n      0x20\n        /* \"#utility.yul\":7119:7125   */\n      dup3\n        /* \"#utility.yul\":7115:7130   */\n      add\n        /* \"#utility.yul\":7108:7136   */\n      mstore\n        /* \"#utility.yul\":6923:7143   */\n      pop\n      jump\t// out\n        /* \"#utility.yul\":7149:7515   */\n    tag_140:\n        /* \"#utility.yul\":7291:7294   */\n      0x00\n        /* \"#utility.yul\":7312:7379   */\n      tag_244\n        /* \"#utility.yul\":7376:7378   */\n      0x21\n        /* \"#utility.yul\":7371:7374   */\n      dup4\n        /* \"#utility.yul\":7312:7379   */\n      tag_131\n      jump\t// in\n    tag_244:\n        /* \"#utility.yul\":7305:7379   */\n      swap2\n      pop\n        /* \"#utility.yul\":7388:7481   */\n      tag_245\n        /* \"#utility.yul\":7477:7480   */\n      dup3\n        /* \"#utility.yul\":7388:7481   */\n      tag_139\n      jump\t// in\n    tag_245:\n        /* \"#utility.yul\":7506:7508   */\n      0x40\n        /* \"#utility.yul\":7501:7504   */\n      dup3\n        /* \"#utility.yul\":7497:7509   */\n      add\n        /* \"#utility.yul\":7490:7509   */\n      swap1\n      pop\n        /* \"#utility.yul\":7149:7515   */\n      swap2\n      swap1\n      pop\n      jump\t// out\n        /* \"#utility.yul\":7521:7940   */\n    tag_49:\n        /* \"#utility.yul\":7687:7691   */\n      0x00\n        /* \"#utility.yul\":7725:7727   */\n      0x20\n        /* \"#utility.yul\":7714:7723   */\n      dup3\n        /* \"#utility.yul\":7710:7728   */\n      add\n        /* \"#utility.yul\":7702:7728   */\n      swap1\n      pop\n        /* \"#utility.yul\":7774:7783   */\n      dup2\n        /* \"#utility.yul\":7768:7772   */\n      dup2\n        /* \"#utility.yul\":7764:7784   */\n      sub\n        /* \"#utility.yul\":7760:7761   */\n      0x00\n        /* \"#utility.yul\":7749:7758   */\n      dup4\n        /* \"#utility.yul\":7745:7762   */\n      add\n        /* \"#utility.yul\":7738:7785   */\n      mstore\n        /* \"#utility.yul\":7802:7933   */\n      tag_247\n        /* \"#utility.yul\":7928:7932   */\n      dup2\n        /* \"#utility.yul\":7802:7933   */\n      tag_140\n      jump\t// in\n    tag_247:\n        /* \"#utility.yul\":7794:7933   */\n      swap1\n      pop\n        /* \"#utility.yul\":7521:7940   */\n      swap2\n      swap1\n      pop\n      jump\t// out\n        /* \"#utility.yul\":7946:8126   */\n    tag_141:\n        /* \"#utility.yul\":7994:8071   */\n      0x4e487b7100000000000000000000000000000000000000000000000000000000\n        /* \"#utility.yul\":7991:7992   */\n      0x00\n        /* \"#utility.yul\":7984:8072   */\n      mstore\n        /* \"#utility.yul\":8091:8095   */\n      0x11\n        /* \"#utility.yul\":8088:8089   */\n      0x04\n        /* \"#utility.yul\":8081:8096   */\n      mstore\n        /* \"#utility.yul\":8115:8119   */\n      0x24\n        /* \"#utility.yul\":8112:8113   */\n      0x00\n        /* \"#utility.yul\":8105:8120   */\n      revert\n        /* \"#utility.yul\":8132:8326   */\n    tag_51:\n        /* \"#utility.yul\":8172:8176   */\n      0x00\n        /* \"#utility.yul\":8192:8212   */\n      tag_250\n        /* \"#utility.yul\":8210:8211   */\n      dup3\n        /* \"#utility.yul\":8192:8212   */\n      tag_118\n      jump\t// in\n    tag_250:\n        /* \"#utility.yul\":8187:8212   */\n      swap2\n      pop\n        /* \"#utility.yul\":8226:8246   */\n      tag_251\n        /* \"#utility.yul\":8244:8245   */\n      dup4\n        /* \"#utility.yul\":8226:8246   */\n      tag_118\n      jump\t// in\n    tag_251:\n        /* \"#utility.yul\":8221:8246   */\n      swap3\n      pop\n        /* \"#utility.yul\":8270:8271   */\n      dup3\n        /* \"#utility.yul\":8267:8268   */\n      dup3\n        /* \"#utility.yul\":8263:8272   */\n      sub\n        /* \"#utility.yul\":8255:8272   */\n      swap1\n      pop\n        /* \"#utility.yul\":8294:8295   */\n      dup2\n        /* \"#utility.yul\":8288:8292   */\n      dup2\n        /* \"#utility.yul\":8285:8296   */\n      gt\n        /* \"#utility.yul\":8282:8319   */\n      iszero\n      tag_252\n      jumpi\n        /* \"#utility.yul\":8299:8317   */\n      tag_253\n      tag_141\n      jump\t// in\n    tag_253:\n        /* \"#utility.yul\":8282:8319   */\n    tag_252:\n        /* \"#utility.yul\":8132:8326   */\n      swap3\n      swap2\n      pop\n      pop\n      jump\t// out\n        /* \"#utility.yul\":8332:8512   */\n    tag_142:\n        /* \"#utility.yul\":8380:8457   */\n      0x4e487b7100000000000000000000000000000000000000000000000000000000\n        /* \"#utility.yul\":8377:8378   */\n      0x00\n        /* \"#utility.yul\":8370:8458   */\n      mstore\n        /* \"#utility.yul\":8477:8481   */\n      0x22\n        /* \"#utility.yul\":8474:8475   */\n      0x04\n        /* \"#utility.yul\":8467:8482   */\n      mstore\n        /* \"#utility.yul\":8501:8505   */\n      0x24\n        /* \"#utility.yul\":8498:8499   */\n      0x00\n        /* \"#utility.yul\":8491:8506   */\n      revert\n        /* \"#utility.yul\":8518:8838   */\n    tag_57:\n        /* \"#utility.yul\":8562:8568   */\n      0x00\n        /* \"#utility.yul\":8599:8600   */\n      0x02\n        /* \"#utility.yul\":8593:8597   */\n      dup3\n        /* \"#utility.yul\":8589:8601   */\n      div\n        /* \"#utility.yul\":8579:8601   */\n      swap1\n      pop\n        /* \"#utility.yul\":8646:8647   */\n      0x01\n        /* \"#utility.yul\":8640:8644   */\n      dup3\n        /* \"#utility.yul\":8636:8648   */\n      and\n        /* \"#utility.yul\":8667:8685   */\n      dup1\n        /* \"#utility.yul\":8657:8738   */\n      tag_256\n      jumpi\n        /* \"#utility.yul\":8723:8727   */\n      0x7f\n        /* \"#utility.yul\":8715:8721   */\n      dup3\n        /* \"#utility.yul\":8711:8728   */\n      and\n        /* \"#utility.yul\":8701:8728   */\n      swap2\n      pop\n        /* \"#utility.yul\":8657:8738   */\n    tag_256:\n        /* \"#utility.yul\":8785:8787   */\n      0x20\n        /* \"#utility.yul\":8777:8783   */\n      dup3\n        /* \"#utility.yul\":8774:8788   */\n      lt\n        /* \"#utility.yul\":8754:8772   */\n      dup2\n        /* \"#utility.yul\":8751:8789   */\n      sub\n        /* \"#utility.yul\":8748:8832   */\n      tag_257\n      jumpi\n        /* \"#utility.yul\":8804:8822   */\n      tag_258\n      tag_142\n      jump\t// in\n    tag_258:\n        /* \"#utility.yul\":8748:8832   */\n    tag_257:\n        /* \"#utility.yul\":8569:8838   */\n      pop\n        /* \"#utility.yul\":8518:8838   */\n      swap2\n      swap1\n      pop\n      jump\t// out\n        /* \"#utility.yul\":8844:9013   */\n    tag_143:\n        /* \"#utility.yul\":8984:9005   */\n      0x55736572206e6f74207265676973746572656400000000000000000000000000\n        /* \"#utility.yul\":8980:8981   */\n      0x00\n        /* \"#utility.yul\":8972:8978   */\n      dup3\n        /* \"#utility.yul\":8968:8982   */\n      add\n        /* \"#utility.yul\":8961:9006   */\n      mstore\n        /* \"#utility.yul\":8844:9013   */\n      pop\n      jump\t// out\n        /* \"#utility.yul\":9019:9385   */\n    tag_144:\n        /* \"#utility.yul\":9161:9164   */\n      0x00\n        /* \"#utility.yul\":9182:9249   */\n      tag_261\n        /* \"#utility.yul\":9246:9248   */\n      0x13\n        /* \"#utility.yul\":9241:9244   */\n      dup4\n        /* \"#utility.yul\":9182:9249   */\n      tag_131\n      jump\t// in\n    tag_261:\n        /* \"#utility.yul\":9175:9249   */\n      swap2\n      pop\n        /* \"#utility.yul\":9258:9351   */\n      tag_262\n        /* \"#utility.yul\":9347:9350   */\n      dup3\n        /* \"#utility.yul\":9258:9351   */\n      tag_143\n      jump\t// in\n    tag_262:\n        /* \"#utility.yul\":9376:9378   */\n      0x20\n        /* \"#utility.yul\":9371:9374   */\n      dup3\n        /* \"#utility.yul\":9367:9379   */\n      add\n        /* \"#utility.yul\":9360:9379   */\n      swap1\n      pop\n        /* \"#utility.yul\":9019:9385   */\n      swap2\n      swap1\n      pop\n      jump\t// out\n        /* \"#utility.yul\":9391:9810   */\n    tag_60:\n        /* \"#utility.yul\":9557:9561   */\n      0x00\n        /* \"#utility.yul\":9595:9597   */\n      0x20\n        /* \"#utility.yul\":9584:9593   */\n      dup3\n        /* \"#utility.yul\":9580:9598   */\n      add\n        /* \"#utility.yul\":9572:9598   */\n      swap1\n      pop\n        /* \"#utility.yul\":9644:9653   */\n      dup2\n        /* \"#utility.yul\":9638:9642   */\n      dup2\n        /* \"#utility.yul\":9634:9654   */\n      sub\n        /* \"#utility.yul\":9630:9631   */\n      0x00\n        /* \"#utility.yul\":9619:9628   */\n      dup4\n        /* \"#utility.yul\":9615:9632   */\n      add\n        /* \"#utility.yul\":9608:9655   */\n      mstore\n        /* \"#utility.yul\":9672:9803   */\n      tag_264\n        /* \"#utility.yul\":9798:9802   */\n      dup2\n        /* \"#utility.yul\":9672:9803   */\n      tag_144\n      jump\t// in\n    tag_264:\n        /* \"#utility.yul\":9664:9803   */\n      swap1\n      pop\n        /* \"#utility.yul\":9391:9810   */\n      swap2\n      swap1\n      pop\n      jump\t// out\n        /* \"#utility.yul\":9816:9984   */\n    tag_145:\n        /* \"#utility.yul\":9956:9976   */\n      0x4e6f7420656e6f75676820616d6f756e742e0000000000000000000000000000\n        /* \"#utility.yul\":9952:9953   */\n      0x00\n        /* \"#utility.yul\":9944:9950   */\n      dup3\n        /* \"#utility.yul\":9940:9954   */\n      add\n        /* \"#utility.yul\":9933:9977   */\n      mstore\n        /* \"#utility.yul\":9816:9984   */\n      pop\n      jump\t// out\n        /* \"#utility.yul\":9990:10356   */\n    tag_146:\n        /* \"#utility.yul\":10132:10135   */\n      0x00\n        /* \"#utility.yul\":10153:10220   */\n      tag_267\n        /* \"#utility.yul\":10217:10219   */\n      0x12\n        /* \"#utility.yul\":10212:10215   */\n      dup4\n        /* \"#utility.yul\":10153:10220   */\n      tag_131\n      jump\t// in\n    tag_267:\n        /* \"#utility.yul\":10146:10220   */\n      swap2\n      pop\n        /* \"#utility.yul\":10229:10322   */\n      tag_268\n        /* \"#utility.yul\":10318:10321   */\n      dup3\n        /* \"#utility.yul\":10229:10322   */\n      tag_145\n      jump\t// in\n    tag_268:\n        /* \"#utility.yul\":10347:10349   */\n      0x20\n        /* \"#utility.yul\":10342:10345   */\n      dup3\n        /* \"#utility.yul\":10338:10350   */\n      add\n        /* \"#utility.yul\":10331:10350   */\n      swap1\n      pop\n        /* \"#utility.yul\":9990:10356   */\n      swap2\n      swap1\n      pop\n      jump\t// out\n        /* \"#utility.yul\":10362:10781   */\n    tag_69:\n        /* \"#utility.yul\":10528:10532   */\n      0x00\n        /* \"#utility.yul\":10566:10568   */\n      0x20\n        /* \"#utility.yul\":10555:10564   */\n      dup3\n        /* \"#utility.yul\":10551:10569   */\n      add\n        /* \"#utility.yul\":10543:10569   */\n      swap1\n      pop\n        /* \"#utility.yul\":10615:10624   */\n      dup2\n        /* \"#utility.yul\":10609:10613   */\n      dup2\n        /* \"#utility.yul\":10605:10625   */\n      sub\n        /* \"#utility.yul\":10601:10602   */\n      0x00\n        /* \"#utility.yul\":10590:10599   */\n      dup4\n        /* \"#utility.yul\":10586:10603   */\n      add\n        /* \"#utility.yul\":10579:10626   */\n      mstore\n        /* \"#utility.yul\":10643:10774   */\n      tag_270\n        /* \"#utility.yul\":10769:10773   */\n      dup2\n        /* \"#utility.yul\":10643:10774   */\n      tag_146\n      jump\t// in\n    tag_270:\n        /* \"#utility.yul\":10635:10774   */\n      swap1\n      pop\n        /* \"#utility.yul\":10362:10781   */\n      swap2\n      swap1\n      pop\n      jump\t// out\n        /* \"#utility.yul\":10787:11197   */\n    tag_71:\n        /* \"#utility.yul\":10827:10834   */\n      0x00\n        /* \"#utility.yul\":10850:10870   */\n      tag_272\n        /* \"#utility.yul\":10868:10869   */\n      dup3\n        /* \"#utility.yul\":10850:10870   */\n      tag_118\n      jump\t// in\n    tag_272:\n        /* \"#utility.yul\":10845:10870   */\n      swap2\n      pop\n        /* \"#utility.yul\":10884:10904   */\n      tag_273\n        /* \"#utility.yul\":10902:10903   */\n      dup4\n        /* \"#utility.yul\":10884:10904   */\n      tag_118\n      jump\t// in\n    tag_273:\n        /* \"#utility.yul\":10879:10904   */\n      swap3\n      pop\n        /* \"#utility.yul\":10939:10940   */\n      dup3\n        /* \"#utility.yul\":10936:10937   */\n      dup3\n        /* \"#utility.yul\":10932:10941   */\n      mul\n        /* \"#utility.yul\":10961:10991   */\n      tag_274\n        /* \"#utility.yul\":10979:10990   */\n      dup2\n        /* \"#utility.yul\":10961:10991   */\n      tag_118\n      jump\t// in\n    tag_274:\n        /* \"#utility.yul\":10950:10991   */\n      swap2\n      pop\n        /* \"#utility.yul\":11140:11141   */\n      dup3\n        /* \"#utility.yul\":11131:11138   */\n      dup3\n        /* \"#utility.yul\":11127:11142   */\n      div\n        /* \"#utility.yul\":11124:11125   */\n      dup5\n        /* \"#utility.yul\":11121:11143   */\n      eq\n        /* \"#utility.yul\":11101:11102   */\n      dup4\n        /* \"#utility.yul\":11094:11103   */\n      iszero\n        /* \"#utility.yul\":11074:11157   */\n      or\n        /* \"#utility.yul\":11051:11190   */\n      tag_275\n      jumpi\n        /* \"#utility.yul\":11170:11188   */\n      tag_276\n      tag_141\n      jump\t// in\n    tag_276:\n        /* \"#utility.yul\":11051:11190   */\n    tag_275:\n        /* \"#utility.yul\":10835:11197   */\n      pop\n        /* \"#utility.yul\":10787:11197   */\n      swap3\n      swap2\n      pop\n      pop\n      jump\t// out\n        /* \"#utility.yul\":11203:11383   */\n    tag_147:\n        /* \"#utility.yul\":11251:11328   */\n      0x4e487b7100000000000000000000000000000000000000000000000000000000\n        /* \"#utility.yul\":11248:11249   */\n      0x00\n        /* \"#utility.yul\":11241:11329   */\n      mstore\n        /* \"#utility.yul\":11348:11352   */\n      0x12\n        /* \"#utility.yul\":11345:11346   */\n      0x04\n        /* \"#utility.yul\":11338:11353   */\n      mstore\n        /* \"#utility.yul\":11372:11376   */\n      0x24\n        /* \"#utility.yul\":11369:11370   */\n      0x00\n        /* \"#utility.yul\":11362:11377   */\n      revert\n        /* \"#utility.yul\":11389:11574   */\n    tag_73:\n        /* \"#utility.yul\":11429:11430   */\n      0x00\n        /* \"#utility.yul\":11446:11466   */\n      tag_279\n        /* \"#utility.yul\":11464:11465   */\n      dup3\n        /* \"#utility.yul\":11446:11466   */\n      tag_118\n      jump\t// in\n    tag_279:\n        /* \"#utility.yul\":11441:11466   */\n      swap2\n      pop\n        /* \"#utility.yul\":11480:11500   */\n      tag_280\n        /* \"#utility.yul\":11498:11499   */\n      dup4\n        /* \"#utility.yul\":11480:11500   */\n      tag_118\n      jump\t// in\n    tag_280:\n        /* \"#utility.yul\":11475:11500   */\n      swap3\n      pop\n        /* \"#utility.yul\":11519:11520   */\n      dup3\n        /* \"#utility.yul\":11509:11544   */\n      tag_281\n      jumpi\n        /* \"#utility.yul\":11524:11542   */\n      tag_282\n      tag_147\n      jump\t// in\n    tag_282:\n        /* \"#utility.yul\":11509:11544   */\n    tag_281:\n        /* \"#utility.yul\":11566:11567   */\n      dup3\n        /* \"#utility.yul\":11563:11564   */\n      dup3\n        /* \"#utility.yul\":11559:11568   */\n      div\n        /* \"#utility.yul\":11554:11568   */\n      swap1\n      pop\n        /* \"#utility.yul\":11389:11574   */\n      swap3\n      swap2\n      pop\n      pop\n      jump\t// out\n        /* \"#utility.yul\":11580:11771   */\n    tag_77:\n        /* \"#utility.yul\":11620:11623   */\n      0x00\n        /* \"#utility.yul\":11639:11659   */\n      tag_284\n        /* \"#utility.yul\":11657:11658   */\n      dup3\n        /* \"#utility.yul\":11639:11659   */\n      tag_118\n      jump\t// in\n    tag_284:\n        /* \"#utility.yul\":11634:11659   */\n      swap2\n      pop\n        /* \"#utility.yul\":11673:11693   */\n      tag_285\n        /* \"#utility.yul\":11691:11692   */\n      dup4\n        /* \"#utility.yul\":11673:11693   */\n      tag_118\n      jump\t// in\n    tag_285:\n        /* \"#utility.yul\":11668:11693   */\n      swap3\n      pop\n        /* \"#utility.yul\":11716:11717   */\n      dup3\n        /* \"#utility.yul\":11713:11714   */\n      dup3\n        /* \"#utility.yul\":11709:11718   */\n      add\n        /* \"#utility.yul\":11702:11718   */\n      swap1\n      pop\n        /* \"#utility.yul\":11737:11740   */\n      dup1\n        /* \"#utility.yul\":11734:11735   */\n      dup3\n        /* \"#utility.yul\":11731:11741   */\n      gt\n        /* \"#utility.yul\":11728:11764   */\n      iszero\n      tag_286\n      jumpi\n        /* \"#utility.yul\":11744:11762   */\n      tag_287\n      tag_141\n      jump\t// in\n    tag_287:\n        /* \"#utility.yul\":11728:11764   */\n    tag_286:\n        /* \"#utility.yul\":11580:11771   */\n      swap3\n      swap2\n      pop\n      pop\n      jump\t// out\n        /* \"#utility.yul\":11777:11950   */\n    tag_148:\n        /* \"#utility.yul\":11917:11942   */\n      0x5573657220616c72656164792072656769737465726564000000000000000000\n        /* \"#utility.yul\":11913:11914   */\n      0x00\n        /* \"#utility.yul\":11905:11911   */\n      dup3\n        /* \"#utility.yul\":11901:11915   */\n      add\n        /* \"#utility.yul\":11894:11943   */\n      mstore\n        /* \"#utility.yul\":11777:11950   */\n      pop\n      jump\t// out\n        /* \"#utility.yul\":11956:12322   */\n    tag_149:\n        /* \"#utility.yul\":12098:12101   */\n      0x00\n        /* \"#utility.yul\":12119:12186   */\n      tag_290\n        /* \"#utility.yul\":12183:12185   */\n      0x17\n        /* \"#utility.yul\":12178:12181   */\n      dup4\n        /* \"#utility.yul\":12119:12186   */\n      tag_131\n      jump\t// in\n    tag_290:\n        /* \"#utility.yul\":12112:12186   */\n      swap2\n      pop\n        /* \"#utility.yul\":12195:12288   */\n      tag_291\n        /* \"#utility.yul\":12284:12287   */\n      dup3\n        /* \"#utility.yul\":12195:12288   */\n      tag_148\n      jump\t// in\n    tag_291:\n        /* \"#utility.yul\":12313:12315   */\n      0x20\n        /* \"#utility.yul\":12308:12311   */\n      dup3\n        /* \"#utility.yul\":12304:12316   */\n      add\n        /* \"#utility.yul\":12297:12316   */\n      swap1\n      pop\n        /* \"#utility.yul\":11956:12322   */\n      swap2\n      swap1\n      pop\n      jump\t// out\n        /* \"#utility.yul\":12328:12747   */\n    tag_89:\n        /* \"#utility.yul\":12494:12498   */\n      0x00\n        /* \"#utility.yul\":12532:12534   */\n      0x20\n        /* \"#utility.yul\":12521:12530   */\n      dup3\n        /* \"#utility.yul\":12517:12535   */\n      add\n        /* \"#utility.yul\":12509:12535   */\n      swap1\n      pop\n        /* \"#utility.yul\":12581:12590   */\n      dup2\n        /* \"#utility.yul\":12575:12579   */\n      dup2\n        /* \"#utility.yul\":12571:12591   */\n      sub\n        /* \"#utility.yul\":12567:12568   */\n      0x00\n        /* \"#utility.yul\":12556:12565   */\n      dup4\n        /* \"#utility.yul\":12552:12569   */\n      add\n        /* \"#utility.yul\":12545:12592   */\n      mstore\n        /* \"#utility.yul\":12609:12740   */\n      tag_293\n        /* \"#utility.yul\":12735:12739   */\n      dup2\n        /* \"#utility.yul\":12609:12740   */\n      tag_149\n      jump\t// in\n    tag_293:\n        /* \"#utility.yul\":12601:12740   */\n      swap1\n      pop\n        /* \"#utility.yul\":12328:12747   */\n      swap2\n      swap1\n      pop\n      jump\t// out\n        /* \"#utility.yul\":12753:12933   */\n    tag_150:\n        /* \"#utility.yul\":12801:12878   */\n      0x4e487b7100000000000000000000000000000000000000000000000000000000\n        /* \"#utility.yul\":12798:12799   */\n      0x00\n        /* \"#utility.yul\":12791:12879   */\n      mstore\n        /* \"#utility.yul\":12898:12902   */\n      0x41\n        /* \"#utility.yul\":12895:12896   */\n      0x04\n        /* \"#utility.yul\":12888:12903   */\n      mstore\n        /* \"#utility.yul\":12922:12926   */\n      0x24\n        /* \"#utility.yul\":12919:12920   */\n      0x00\n        /* \"#utility.yul\":12912:12927   */\n      revert\n        /* \"#utility.yul\":12939:13080   */\n    tag_151:\n        /* \"#utility.yul\":12988:12992   */\n      0x00\n        /* \"#utility.yul\":13011:13014   */\n      dup2\n        /* \"#utility.yul\":13003:13014   */\n      swap1\n      pop\n        /* \"#utility.yul\":13034:13037   */\n      dup2\n        /* \"#utility.yul\":13031:13032   */\n      0x00\n        /* \"#utility.yul\":13024:13038   */\n      mstore\n        /* \"#utility.yul\":13068:13072   */\n      0x20\n        /* \"#utility.yul\":13065:13066   */\n      0x00\n        /* \"#utility.yul\":13055:13073   */\n      keccak256\n        /* \"#utility.yul\":13047:13073   */\n      swap1\n      pop\n        /* \"#utility.yul\":12939:13080   */\n      swap2\n      swap1\n      pop\n      jump\t// out\n        /* \"#utility.yul\":13086:13179   */\n    tag_152:\n        /* \"#utility.yul\":13123:13129   */\n      0x00\n        /* \"#utility.yul\":13170:13172   */\n      0x20\n        /* \"#utility.yul\":13165:13167   */\n      0x1f\n        /* \"#utility.yul\":13158:13163   */\n      dup4\n        /* \"#utility.yul\":13154:13168   */\n      add\n        /* \"#utility.yul\":13150:13173   */\n      div\n        /* \"#utility.yul\":13140:13173   */\n      swap1\n      pop\n        /* \"#utility.yul\":13086:13179   */\n      swap2\n      swap1\n      pop\n      jump\t// out\n        /* \"#utility.yul\":13185:13292   */\n    tag_153:\n        /* \"#utility.yul\":13229:13237   */\n      0x00\n        /* \"#utility.yul\":13279:13284   */\n      dup3\n        /* \"#utility.yul\":13273:13277   */\n      dup3\n        /* \"#utility.yul\":13269:13285   */\n      shl\n        /* \"#utility.yul\":13248:13285   */\n      swap1\n      pop\n        /* \"#utility.yul\":13185:13292   */\n      swap3\n      swap2\n      pop\n      pop\n      jump\t// out\n        /* \"#utility.yul\":13298:13691   */\n    tag_154:\n        /* \"#utility.yul\":13367:13373   */\n      0x00\n        /* \"#utility.yul\":13417:13418   */\n      0x08\n        /* \"#utility.yul\":13405:13415   */\n      dup4\n        /* \"#utility.yul\":13401:13419   */\n      mul\n        /* \"#utility.yul\":13440:13537   */\n      tag_299\n        /* \"#utility.yul\":13470:13536   */\n      0xffffffffffffffffffffffffffffffffffffffffffffffffffffffffffffffff\n        /* \"#utility.yul\":13459:13468   */\n      dup3\n        /* \"#utility.yul\":13440:13537   */\n      tag_153\n      jump\t// in\n    tag_299:\n        /* \"#utility.yul\":13558:13597   */\n      tag_300\n        /* \"#utility.yul\":13588:13596   */\n      dup7\n        /* \"#utility.yul\":13577:13586   */\n      dup4\n        /* \"#utility.yul\":13558:13597   */\n      tag_153\n      jump\t// in\n    tag_300:\n        /* \"#utility.yul\":13546:13597   */\n      swap6\n      pop\n        /* \"#utility.yul\":13630:13634   */\n      dup1\n        /* \"#utility.yul\":13626:13635   */\n      not\n        /* \"#utility.yul\":13619:13624   */\n      dup5\n        /* \"#utility.yul\":13615:13636   */\n      and\n        /* \"#utility.yul\":13606:13636   */\n      swap4\n      pop\n        /* \"#utility.yul\":13679:13683   */\n      dup1\n        /* \"#utility.yul\":13669:13677   */\n      dup7\n        /* \"#utility.yul\":13665:13684   */\n      and\n        /* \"#utility.yul\":13658:13663   */\n      dup5\n        /* \"#utility.yul\":13655:13685   */\n      or\n        /* \"#utility.yul\":13645:13685   */\n      swap3\n      pop\n        /* \"#utility.yul\":13374:13691   */\n      pop\n      pop\n        /* \"#utility.yul\":13298:13691   */\n      swap4\n      swap3\n      pop\n      pop\n      pop\n      jump\t// out\n        /* \"#utility.yul\":13697:13757   */\n    tag_155:\n        /* \"#utility.yul\":13725:13728   */\n      0x00\n        /* \"#utility.yul\":13746:13751   */\n      dup2\n        /* \"#utility.yul\":13739:13751   */\n      swap1\n      pop\n        /* \"#utility.yul\":13697:13757   */\n      swap2\n      swap1\n      pop\n      jump\t// out\n        /* \"#utility.yul\":13763:13905   */\n    tag_156:\n        /* \"#utility.yul\":13813:13822   */\n      0x00\n        /* \"#utility.yul\":13846:13899   */\n      tag_303\n        /* \"#utility.yul\":13864:13898   */\n      tag_304\n        /* \"#utility.yul\":13873:13897   */\n      tag_305\n        /* \"#utility.yul\":13891:13896   */\n      dup5\n        /* \"#utility.yul\":13873:13897   */\n      tag_118\n      jump\t// in\n    tag_305:\n        /* \"#utility.yul\":13864:13898   */\n      tag_155\n      jump\t// in\n    tag_304:\n        /* \"#utility.yul\":13846:13899   */\n      tag_118\n      jump\t// in\n    tag_303:\n        /* \"#utility.yul\":13833:13899   */\n      swap1\n      pop\n        /* \"#utility.yul\":13763:13905   */\n      swap2\n      swap1\n      pop\n      jump\t// out\n        /* \"#utility.yul\":13911:13986   */\n    tag_157:\n        /* \"#utility.yul\":13954:13957   */\n      0x00\n        /* \"#utility.yul\":13975:13980   */\n      dup2\n        /* \"#utility.yul\":13968:13980   */\n      swap1\n      pop\n        /* \"#utility.yul\":13911:13986   */\n      swap2\n      swap1\n      pop\n      jump\t// out\n        /* \"#utility.yul\":13992:14261   */\n    tag_158:\n        /* \"#utility.yul\":14102:14141   */\n      tag_308\n        /* \"#utility.yul\":14133:14140   */\n      dup4\n        /* \"#utility.yul\":14102:14141   */\n      tag_156\n      jump\t// in\n    tag_308:\n        /* \"#utility.yul\":14163:14254   */\n      tag_309\n        /* \"#utility.yul\":14212:14253   */\n      tag_310\n        /* \"#utility.yul\":14236:14252   */\n      dup3\n        /* \"#utility.yul\":14212:14253   */\n      tag_157\n      jump\t// in\n    tag_310:\n        /* \"#utility.yul\":14204:14210   */\n      dup5\n        /* \"#utility.yul\":14197:14201   */\n      dup5\n        /* \"#utility.yul\":14191:14202   */\n      sload\n        /* \"#utility.yul\":14163:14254   */\n      tag_154\n      jump\t// in\n    tag_309:\n        /* \"#utility.yul\":14157:14161   */\n      dup3\n        /* \"#utility.yul\":14150:14255   */\n      sstore\n        /* \"#utility.yul\":14068:14261   */\n      pop\n        /* \"#utility.yul\":13992:14261   */\n      pop\n      pop\n      pop\n      jump\t// out\n        /* \"#utility.yul\":14267:14340   */\n    tag_159:\n        /* \"#utility.yul\":14312:14315   */\n      0x00\n        /* \"#utility.yul\":14267:14340   */\n      swap1\n      jump\t// out\n        /* \"#utility.yul\":14346:14535   */\n    tag_160:\n        /* \"#utility.yul\":14423:14455   */\n      tag_313\n      tag_159\n      jump\t// in\n    tag_313:\n        /* \"#utility.yul\":14464:14529   */\n      tag_314\n        /* \"#utility.yul\":14522:14528   */\n      dup2\n        /* \"#utility.yul\":14514:14520   */\n      dup5\n        /* \"#utility.yul\":14508:14512   */\n      dup5\n        /* \"#utility.yul\":14464:14529   */\n      tag_158\n      jump\t// in\n    tag_314:\n        /* \"#utility.yul\":14399:14535   */\n      pop\n        /* \"#utility.yul\":14346:14535   */\n      pop\n      pop\n      jump\t// out\n        /* \"#utility.yul\":14541:14727   */\n    tag_161:\n        /* \"#utility.yul\":14601:14721   */\n    tag_316:\n        /* \"#utility.yul\":14618:14621   */\n      dup2\n        /* \"#utility.yul\":14611:14616   */\n      dup2\n        /* \"#utility.yul\":14608:14622   */\n      lt\n        /* \"#utility.yul\":14601:14721   */\n      iszero\n      tag_318\n      jumpi\n        /* \"#utility.yul\":14672:14711   */\n      tag_319\n        /* \"#utility.yul\":14709:14710   */\n      0x00\n        /* \"#utility.yul\":14702:14707   */\n      dup3\n        /* \"#utility.yul\":14672:14711   */\n      tag_160\n      jump\t// in\n    tag_319:\n        /* \"#utility.yul\":14645:14646   */\n      0x01\n        /* \"#utility.yul\":14638:14643   */\n      dup2\n        /* \"#utility.yul\":14634:14647   */\n      add\n        /* \"#utility.yul\":14625:14647   */\n      swap1\n      pop\n        /* \"#utility.yul\":14601:14721   */\n      jump(tag_316)\n    tag_318:\n        /* \"#utility.yul\":14541:14727   */\n      pop\n      pop\n      jump\t// out\n        /* \"#utility.yul\":14733:15276   */\n    tag_162:\n        /* \"#utility.yul\":14834:14836   */\n      0x1f\n        /* \"#utility.yul\":14829:14832   */\n      dup3\n        /* \"#utility.yul\":14826:14837   */\n      gt\n        /* \"#utility.yul\":14823:15269   */\n      iszero\n      tag_321\n      jumpi\n        /* \"#utility.yul\":14868:14906   */\n      tag_322\n        /* \"#utility.yul\":14900:14905   */\n      dup2\n        /* \"#utility.yul\":14868:14906   */\n      tag_151\n      jump\t// in\n    tag_322:\n        /* \"#utility.yul\":14952:14981   */\n      tag_323\n        /* \"#utility.yul\":14970:14980   */\n      dup5\n        /* \"#utility.yul\":14952:14981   */\n      tag_152\n      jump\t// in\n    tag_323:\n        /* \"#utility.yul\":14942:14950   */\n      dup2\n        /* \"#utility.yul\":14938:14982   */\n      add\n        /* \"#utility.yul\":15135:15137   */\n      0x20\n        /* \"#utility.yul\":15123:15133   */\n      dup6\n        /* \"#utility.yul\":15120:15138   */\n      lt\n        /* \"#utility.yul\":15117:15166   */\n      iszero\n      tag_324\n      jumpi\n        /* \"#utility.yul\":15156:15164   */\n      dup2\n        /* \"#utility.yul\":15141:15164   */\n      swap1\n      pop\n        /* \"#utility.yul\":15117:15166   */\n    tag_324:\n        /* \"#utility.yul\":15179:15259   */\n      tag_325\n        /* \"#utility.yul\":15235:15257   */\n      tag_326\n        /* \"#utility.yul\":15253:15256   */\n      dup6\n        /* \"#utility.yul\":15235:15257   */\n      tag_152\n      jump\t// in\n    tag_326:\n        /* \"#utility.yul\":15225:15233   */\n      dup4\n        /* \"#utility.yul\":15221:15258   */\n      add\n        /* \"#utility.yul\":15208:15219   */\n      dup3\n        /* \"#utility.yul\":15179:15259   */\n      tag_161\n      jump\t// in\n    tag_325:\n        /* \"#utility.yul\":14838:15269   */\n      pop\n      pop\n        /* \"#utility.yul\":14823:15269   */\n    tag_321:\n        /* \"#utility.yul\":14733:15276   */\n      pop\n      pop\n      pop\n      jump\t// out\n        /* \"#utility.yul\":15282:15399   */\n    tag_163:\n        /* \"#utility.yul\":15336:15344   */\n      0x00\n        /* \"#utility.yul\":15386:15391   */\n      dup3\n        /* \"#utility.yul\":15380:15384   */\n      dup3\n        /* \"#utility.yul\":15376:15392   */\n      shr\n        /* \"#utility.yul\":15355:15392   */\n      swap1\n      pop\n        /* \"#utility.yul\":15282:15399   */\n      swap3\n      swap2\n      pop\n      pop\n      jump\t// out\n        /* \"#utility.yul\":15405:15574   */\n    tag_164:\n        /* \"#utility.yul\":15449:15455   */\n      0x00\n        /* \"#utility.yul\":15482:15533   */\n      tag_329\n        /* \"#utility.yul\":15530:15531   */\n      0x00\n        /* \"#utility.yul\":15526:15532   */\n      not\n        /* \"#utility.yul\":15518:15523   */\n      dup5\n        /* \"#utility.yul\":15515:15516   */\n      0x08\n        /* \"#utility.yul\":15511:15524   */\n      mul\n        /* \"#utility.yul\":15482:15533   */\n      tag_163\n      jump\t// in\n    tag_329:\n        /* \"#utility.yul\":15478:15534   */\n      not\n        /* \"#utility.yul\":15563:15567   */\n      dup1\n        /* \"#utility.yul\":15557:15561   */\n      dup4\n        /* \"#utility.yul\":15553:15568   */\n      and\n        /* \"#utility.yul\":15543:15568   */\n      swap2\n      pop\n        /* \"#utility.yul\":15456:15574   */\n      pop\n        /* \"#utility.yul\":15405:15574   */\n      swap3\n      swap2\n      pop\n      pop\n      jump\t// out\n        /* \"#utility.yul\":15579:15874   */\n    tag_165:\n        /* \"#utility.yul\":15655:15659   */\n      0x00\n        /* \"#utility.yul\":15801:15830   */\n      tag_331\n        /* \"#utility.yul\":15826:15829   */\n      dup4\n        /* \"#utility.yul\":15820:15824   */\n      dup4\n        /* \"#utility.yul\":15801:15830   */\n      tag_164\n      jump\t// in\n    tag_331:\n        /* \"#utility.yul\":15793:15830   */\n      swap2\n      pop\n        /* \"#utility.yul\":15863:15866   */\n      dup3\n        /* \"#utility.yul\":15860:15861   */\n      0x02\n        /* \"#utility.yul\":15856:15867   */\n      mul\n        /* \"#utility.yul\":15850:15854   */\n      dup3\n        /* \"#utility.yul\":15847:15868   */\n      or\n        /* \"#utility.yul\":15839:15868   */\n      swap1\n      pop\n        /* \"#utility.yul\":15579:15874   */\n      swap3\n      swap2\n      pop\n      pop\n      jump\t// out\n        /* \"#utility.yul\":15879:17274   */\n    tag_91:\n        /* \"#utility.yul\":15996:16033   */\n      tag_333\n        /* \"#utility.yul\":16029:16032   */\n      dup3\n        /* \"#utility.yul\":15996:16033   */\n      tag_130\n      jump\t// in\n    tag_333:\n        /* \"#utility.yul\":16098:16116   */\n      0xffffffffffffffff\n        /* \"#utility.yul\":16090:16096   */\n      dup2\n        /* \"#utility.yul\":16087:16117   */\n      gt\n        /* \"#utility.yul\":16084:16140   */\n      iszero\n      tag_334\n      jumpi\n        /* \"#utility.yul\":16120:16138   */\n      tag_335\n      tag_150\n      jump\t// in\n    tag_335:\n        /* \"#utility.yul\":16084:16140   */\n    tag_334:\n        /* \"#utility.yul\":16164:16202   */\n      tag_336\n        /* \"#utility.yul\":16196:16200   */\n      dup3\n        /* \"#utility.yul\":16190:16201   */\n      sload\n        /* \"#utility.yul\":16164:16202   */\n      tag_57\n      jump\t// in\n    tag_336:\n        /* \"#utility.yul\":16249:16316   */\n      tag_337\n        /* \"#utility.yul\":16309:16315   */\n      dup3\n        /* \"#utility.yul\":16301:16307   */\n      dup3\n        /* \"#utility.yul\":16295:16299   */\n      dup6\n        /* \"#utility.yul\":16249:16316   */\n      tag_162\n      jump\t// in\n    tag_337:\n        /* \"#utility.yul\":16343:16344   */\n      0x00\n        /* \"#utility.yul\":16367:16371   */\n      0x20\n        /* \"#utility.yul\":16354:16371   */\n      swap1\n      pop\n        /* \"#utility.yul\":16399:16401   */\n      0x1f\n        /* \"#utility.yul\":16391:16397   */\n      dup4\n        /* \"#utility.yul\":16388:16402   */\n      gt\n        /* \"#utility.yul\":16416:16417   */\n      0x01\n        /* \"#utility.yul\":16411:17029   */\n      dup2\n      eq\n      tag_339\n      jumpi\n        /* \"#utility.yul\":17073:17074   */\n      0x00\n        /* \"#utility.yul\":17090:17096   */\n      dup5\n        /* \"#utility.yul\":17087:17164   */\n      iszero\n      tag_340\n      jumpi\n        /* \"#utility.yul\":17139:17148   */\n      dup3\n        /* \"#utility.yul\":17134:17137   */\n      dup8\n        /* \"#utility.yul\":17130:17149   */\n      add\n        /* \"#utility.yul\":17124:17150   */\n      mload\n        /* \"#utility.yul\":17115:17150   */\n      swap1\n      pop\n        /* \"#utility.yul\":17087:17164   */\n    tag_340:\n        /* \"#utility.yul\":17190:17257   */\n      tag_341\n        /* \"#utility.yul\":17250:17256   */\n      dup6\n        /* \"#utility.yul\":17243:17248   */\n      dup3\n        /* \"#utility.yul\":17190:17257   */\n      tag_165\n      jump\t// in\n    tag_341:\n        /* \"#utility.yul\":17184:17188   */\n      dup7\n        /* \"#utility.yul\":17177:17258   */\n      sstore\n        /* \"#utility.yul\":17046:17268   */\n      pop\n        /* \"#utility.yul\":16381:17268   */\n      jump(tag_338)\n        /* \"#utility.yul\":16411:17029   */\n    tag_339:\n        /* \"#utility.yul\":16463:16467   */\n      0x1f\n        /* \"#utility.yul\":16459:16468   */\n      not\n        /* \"#utility.yul\":16451:16457   */\n      dup5\n        /* \"#utility.yul\":16447:16469   */\n      and\n        /* \"#utility.yul\":16497:16534   */\n      tag_342\n        /* \"#utility.yul\":16529:16533   */\n      dup7\n        /* \"#utility.yul\":16497:16534   */\n      tag_151\n      jump\t// in\n    tag_342:\n        /* \"#utility.yul\":16556:16557   */\n      0x00\n        /* \"#utility.yul\":16570:16778   */\n    tag_343:\n        /* \"#utility.yul\":16584:16591   */\n      dup3\n        /* \"#utility.yul\":16581:16582   */\n      dup2\n        /* \"#utility.yul\":16578:16592   */\n      lt\n        /* \"#utility.yul\":16570:16778   */\n      iszero\n      tag_345\n      jumpi\n        /* \"#utility.yul\":16663:16672   */\n      dup5\n        /* \"#utility.yul\":16658:16661   */\n      dup10\n        /* \"#utility.yul\":16654:16673   */\n      add\n        /* \"#utility.yul\":16648:16674   */\n      mload\n        /* \"#utility.yul\":16640:16646   */\n      dup3\n        /* \"#utility.yul\":16633:16675   */\n      sstore\n        /* \"#utility.yul\":16714:16715   */\n      0x01\n        /* \"#utility.yul\":16706:16712   */\n      dup3\n        /* \"#utility.yul\":16702:16716   */\n      add\n        /* \"#utility.yul\":16692:16716   */\n      swap2\n      pop\n        /* \"#utility.yul\":16761:16763   */\n      0x20\n        /* \"#utility.yul\":16750:16759   */\n      dup6\n        /* \"#utility.yul\":16746:16764   */\n      add\n        /* \"#utility.yul\":16733:16764   */\n      swap5\n      pop\n        /* \"#utility.yul\":16607:16611   */\n      0x20\n        /* \"#utility.yul\":16604:16605   */\n      dup2\n        /* \"#utility.yul\":16600:16612   */\n      add\n        /* \"#utility.yul\":16595:16612   */\n      swap1\n      pop\n        /* \"#utility.yul\":16570:16778   */\n      jump(tag_343)\n    tag_345:\n        /* \"#utility.yul\":16806:16812   */\n      dup7\n        /* \"#utility.yul\":16797:16804   */\n      dup4\n        /* \"#utility.yul\":16794:16813   */\n      lt\n        /* \"#utility.yul\":16791:16970   */\n      iszero\n      tag_346\n      jumpi\n        /* \"#utility.yul\":16864:16873   */\n      dup5\n        /* \"#utility.yul\":16859:16862   */\n      dup10\n        /* \"#utility.yul\":16855:16874   */\n      add\n        /* \"#utility.yul\":16849:16875   */\n      mload\n        /* \"#utility.yul\":16907:16955   */\n      tag_347\n        /* \"#utility.yul\":16949:16953   */\n      0x1f\n        /* \"#utility.yul\":16941:16947   */\n      dup10\n        /* \"#utility.yul\":16937:16954   */\n      and\n        /* \"#utility.yul\":16926:16935   */\n      dup3\n        /* \"#utility.yul\":16907:16955   */\n      tag_164\n      jump\t// in\n    tag_347:\n        /* \"#utility.yul\":16899:16905   */\n      dup4\n        /* \"#utility.yul\":16892:16956   */\n      sstore\n        /* \"#utility.yul\":16814:16970   */\n      pop\n        /* \"#utility.yul\":16791:16970   */\n    tag_346:\n        /* \"#utility.yul\":17016:17017   */\n      0x01\n        /* \"#utility.yul\":17012:17013   */\n      0x02\n        /* \"#utility.yul\":17004:17010   */\n      dup9\n        /* \"#utility.yul\":17000:17014   */\n      mul\n        /* \"#utility.yul\":16996:17018   */\n      add\n        /* \"#utility.yul\":16990:16994   */\n      dup9\n        /* \"#utility.yul\":16983:17019   */\n      sstore\n        /* \"#utility.yul\":16418:17029   */\n      pop\n      pop\n      pop\n        /* \"#utility.yul\":16381:17268   */\n    tag_338:\n      pop\n        /* \"#utility.yul\":15971:17274   */\n      pop\n      pop\n      pop\n        /* \"#utility.yul\":15879:17274   */\n      pop\n      pop\n      jump\t// out\n        /* \"#utility.yul\":17280:17428   */\n    tag_166:\n        /* \"#utility.yul\":17378:17384   */\n      dup3\n        /* \"#utility.yul\":17373:17376   */\n      dup2\n        /* \"#utility.yul\":17368:17371   */\n      dup4\n        /* \"#utility.yul\":17355:17385   */\n      calldatacopy\n        /* \"#utility.yul\":17419:17420   */\n      0x00\n        /* \"#utility.yul\":17410:17416   */\n      dup4\n        /* \"#utility.yul\":17405:17408   */\n      dup4\n        /* \"#utility.yul\":17401:17417   */\n      add\n        /* \"#utility.yul\":17394:17421   */\n      mstore\n        /* \"#utility.yul\":17280:17428   */\n      pop\n      pop\n      pop\n      jump\t// out\n        /* \"#utility.yul\":17458:17775   */\n    tag_167:\n        /* \"#utility.yul\":17556:17559   */\n      0x00\n        /* \"#utility.yul\":17577:17648   */\n      tag_350\n        /* \"#utility.yul\":17641:17647   */\n      dup4\n        /* \"#utility.yul\":17636:17639   */\n      dup6\n        /* \"#utility.yul\":17577:17648   */\n      tag_131\n      jump\t// in\n    tag_350:\n        /* \"#utility.yul\":17570:17648   */\n      swap4\n      pop\n        /* \"#utility.yul\":17658:17714   */\n      tag_351\n        /* \"#utility.yul\":17707:17713   */\n      dup4\n        /* \"#utility.yul\":17702:17705   */\n      dup6\n        /* \"#utility.yul\":17695:17700   */\n      dup5\n        /* \"#utility.yul\":17658:17714   */\n      tag_166\n      jump\t// in\n    tag_351:\n        /* \"#utility.yul\":17739:17768   */\n      tag_352\n        /* \"#utility.yul\":17761:17767   */\n      dup4\n        /* \"#utility.yul\":17739:17768   */\n      tag_133\n      jump\t// in\n    tag_352:\n        /* \"#utility.yul\":17734:17737   */\n      dup5\n        /* \"#utility.yul\":17730:17769   */\n      add\n        /* \"#utility.yul\":17723:17769   */\n      swap1\n      pop\n        /* \"#utility.yul\":17458:17775   */\n      swap4\n      swap3\n      pop\n      pop\n      pop\n      jump\t// out\n        /* \"#utility.yul\":17781:18335   */\n    tag_94:\n        /* \"#utility.yul\":17962:17966   */\n      0x00\n        /* \"#utility.yul\":18000:18002   */\n      0x40\n        /* \"#utility.yul\":17989:17998   */\n      dup3\n        /* \"#utility.yul\":17985:18003   */\n      add\n        /* \"#utility.yul\":17977:18003   */\n      swap1\n      pop\n        /* \"#utility.yul\":18049:18058   */\n      dup2\n        /* \"#utility.yul\":18043:18047   */\n      dup2\n        /* \"#utility.yul\":18039:18059   */\n      sub\n        /* \"#utility.yul\":18035:18036   */\n      0x00\n        /* \"#utility.yul\":18024:18033   */\n      dup4\n        /* \"#utility.yul\":18020:18037   */\n      add\n        /* \"#utility.yul\":18013:18060   */\n      mstore\n        /* \"#utility.yul\":18077:18165   */\n      tag_354\n        /* \"#utility.yul\":18160:18164   */\n      dup2\n        /* \"#utility.yul\":18151:18157   */\n      dup7\n        /* \"#utility.yul\":18143:18149   */\n      dup9\n        /* \"#utility.yul\":18077:18165   */\n      tag_167\n      jump\t// in\n    tag_354:\n        /* \"#utility.yul\":18069:18165   */\n      swap1\n      pop\n        /* \"#utility.yul\":18212:18221   */\n      dup2\n        /* \"#utility.yul\":18206:18210   */\n      dup2\n        /* \"#utility.yul\":18202:18222   */\n      sub\n        /* \"#utility.yul\":18197:18199   */\n      0x20\n        /* \"#utility.yul\":18186:18195   */\n      dup4\n        /* \"#utility.yul\":18182:18200   */\n      add\n        /* \"#utility.yul\":18175:18223   */\n      mstore\n        /* \"#utility.yul\":18240:18328   */\n      tag_355\n        /* \"#utility.yul\":18323:18327   */\n      dup2\n        /* \"#utility.yul\":18314:18320   */\n      dup5\n        /* \"#utility.yul\":18306:18312   */\n      dup7\n        /* \"#utility.yul\":18240:18328   */\n      tag_167\n      jump\t// in\n    tag_355:\n        /* \"#utility.yul\":18232:18328   */\n      swap1\n      pop\n        /* \"#utility.yul\":17781:18335   */\n      swap6\n      swap5\n      pop\n      pop\n      pop\n      pop\n      pop\n      jump\t// out\n        /* \"#utility.yul\":18341:18568   */\n    tag_168:\n        /* \"#utility.yul\":18481:18515   */\n      0x4465706f73697420616d6f756e74206d75737420626520677265617465722074\n        /* \"#utility.yul\":18477:18478   */\n      0x00\n        /* \"#utility.yul\":18469:18475   */\n      dup3\n        /* \"#utility.yul\":18465:18479   */\n      add\n        /* \"#utility.yul\":18458:18516   */\n      mstore\n        /* \"#utility.yul\":18550:18560   */\n      0x68616e207a65726f000000000000000000000000000000000000000000000000\n        /* \"#utility.yul\":18545:18547   */\n      0x20\n        /* \"#utility.yul\":18537:18543   */\n      dup3\n        /* \"#utility.yul\":18533:18548   */\n      add\n        /* \"#utility.yul\":18526:18561   */\n      mstore\n        /* \"#utility.yul\":18341:18568   */\n      pop\n      jump\t// out\n        /* \"#utility.yul\":18574:18940   */\n    tag_169:\n        /* \"#utility.yul\":18716:18719   */\n      0x00\n        /* \"#utility.yul\":18737:18804   */\n      tag_358\n        /* \"#utility.yul\":18801:18803   */\n      0x28\n        /* \"#utility.yul\":18796:18799   */\n      dup4\n        /* \"#utility.yul\":18737:18804   */\n      tag_131\n      jump\t// in\n    tag_358:\n        /* \"#utility.yul\":18730:18804   */\n      swap2\n      pop\n        /* \"#utility.yul\":18813:18906   */\n      tag_359\n        /* \"#utility.yul\":18902:18905   */\n      dup3\n        /* \"#utility.yul\":18813:18906   */\n      tag_168\n      jump\t// in\n    tag_359:\n        /* \"#utility.yul\":18931:18933   */\n      0x40\n        /* \"#utility.yul\":18926:18929   */\n      dup3\n        /* \"#utility.yul\":18922:18934   */\n      add\n        /* \"#utility.yul\":18915:18934   */\n      swap1\n      pop\n        /* \"#utility.yul\":18574:18940   */\n      swap2\n      swap1\n      pop\n      jump\t// out\n        /* \"#utility.yul\":18946:19365   */\n    tag_112:\n        /* \"#utility.yul\":19112:19116   */\n      0x00\n        /* \"#utility.yul\":19150:19152   */\n      0x20\n        /* \"#utility.yul\":19139:19148   */\n      dup3\n        /* \"#utility.yul\":19135:19153   */\n      add\n        /* \"#utility.yul\":19127:19153   */\n      swap1\n      pop\n        /* \"#utility.yul\":19199:19208   */\n      dup2\n        /* \"#utility.yul\":19193:19197   */\n      dup2\n        /* \"#utility.yul\":19189:19209   */\n      sub\n        /* \"#utility.yul\":19185:19186   */\n      0x00\n        /* \"#utility.yul\":19174:19183   */\n      dup4\n        /* \"#utility.yul\":19170:19187   */\n      add\n        /* \"#utility.yul\":19163:19210   */\n      mstore\n        /* \"#utility.yul\":19227:19358   */\n      tag_361\n        /* \"#utility.yul\":19353:19357   */\n      dup2\n        /* \"#utility.yul\":19227:19358   */\n      tag_169\n      jump\t// in\n    tag_361:\n        /* \"#utility.yul\":19219:19358   */\n      swap1\n      pop\n        /* \"#utility.yul\":18946:19365   */\n      swap2\n      swap1\n      pop\n      jump\t// out\n\n    auxdata: 0xa2646970667358221220fece3393261d7b3ed376ef2507327e8ddd12dd234f0e238e8b5cb262a3e0875064736f6c634300081a0033\n}\n",
				"bytecode": {
					"linkReferences": {},
					"object": "608060405234801561000f575f80fd5b50604051611747380380611747833981810160405281019061003191906100bb565b805f819055503360015f6101000a81548173ffffffffffffffffffffffffffffffffffffffff021916908373ffffffffffffffffffffffffffffffffffffffff1602179055505f600281905550506100e6565b5f80fd5b5f819050919050565b61009a81610088565b81146100a4575f80fd5b50565b5f815190506100b581610091565b92915050565b5f602082840312156100d0576100cf610084565b5b5f6100dd848285016100a7565b91505092915050565b611654806100f35f395ff3fe60806040526004361061006f575f3560e01c80633b19e84a1161004d5780633b19e84a146100ed5780633ffbd47f14610117578063a87430ba1461013f578063d0e30db01461017e5761006f565b806311f1fc991461007357806312065fe01461009b5780632e1a7d4d146100c5575b5f80fd5b34801561007e575f80fd5b5061009960048036038101906100949190610c10565b610188565b005b3480156100a6575f80fd5b506100af61034b565b6040516100bc9190610c4a565b60405180910390f35b3480156100d0575f80fd5b506100eb60048036038101906100e69190610c10565b61041f565b005b3480156100f8575f80fd5b50610101610660565b60405161010e9190610c4a565b60405180910390f35b348015610122575f80fd5b5061013d60048036038101906101389190610cc4565b6106f8565b005b34801561014a575f80fd5b5061016560048036038101906101609190610d9c565b61091c565b6040516101759493929190610e51565b60405180910390f35b610186610a60565b005b60015f9054906101000a900473ffffffffffffffffffffffffffffffffffffffff1673ffffffffffffffffffffffffffffffffffffffff163373ffffffffffffffffffffffffffffffffffffffff1614610217576040517f08c379a000000000000000000000000000000000000000000000000000000000815260040161020e90610f12565b60405180910390fd5b80600254101561025c576040517f08c379a000000000000000000000000000000000000000000000000000000000815260040161025390610fa0565b60405180910390fd5b8060025f82825461026d9190610feb565b9250508190555060015f9054906101000a900473ffffffffffffffffffffffffffffffffffffffff1673ffffffffffffffffffffffffffffffffffffffff166108fc8290811502906040515f60405180830381858888f193505050501580156102d8573d5f803e3d5ffd5b5060015f9054906101000a900473ffffffffffffffffffffffffffffffffffffffff1673ffffffffffffffffffffffffffffffffffffffff167f905d2a9b2639a94f09720cfd7b061c3b7a9e27921a009e954d67c8aff6e73667826040516103409190610c4a565b60405180910390a250565b5f8060035f3373ffffffffffffffffffffffffffffffffffffffff1673ffffffffffffffffffffffffffffffffffffffff1681526020019081526020015f205f0180546103979061104b565b9050116103d9576040517f08c379a00000000000000000000000000000000000000000000000000000000081526004016103d0906110c5565b60405180910390fd5b60035f3373ffffffffffffffffffffffffffffffffffffffff1673ffffffffffffffffffffffffffffffffffffffff1681526020019081526020015f2060020154905090565b5f60035f3373ffffffffffffffffffffffffffffffffffffffff1673ffffffffffffffffffffffffffffffffffffffff1681526020019081526020015f205f01805461046a9061104b565b9050116104ac576040517f08c379a00000000000000000000000000000000000000000000000000000000081526004016104a3906110c5565b60405180910390fd5b8060035f3373ffffffffffffffffffffffffffffffffffffffff1673ffffffffffffffffffffffffffffffffffffffff1681526020019081526020015f2060020154101561052f576040517f08c379a00000000000000000000000000000000000000000000000000000000081526004016105269061112d565b60405180910390fd5b5f6127105f5483610540919061114b565b61054a91906111b9565b90505f81836105599190610feb565b90508260035f3373ffffffffffffffffffffffffffffffffffffffff1673ffffffffffffffffffffffffffffffffffffffff1681526020019081526020015f206002015f8282546105aa9190610feb565b925050819055508160025f8282546105c291906111e9565b925050819055503373ffffffffffffffffffffffffffffffffffffffff166108fc8290811502906040515f60405180830381858888f1935050505015801561060c573d5f803e3d5ffd5b503373ffffffffffffffffffffffffffffffffffffffff167f884edad9ce6fa2440d8a54cc123490eb96d2768479d49ff9c7366125a9424364826040516106539190610c4a565b60405180910390a2505050565b5f60015f9054906101000a900473ffffffffffffffffffffffffffffffffffffffff1673ffffffffffffffffffffffffffffffffffffffff163373ffffffffffffffffffffffffffffffffffffffff16146106f0576040517f08c379a00000000000000000000000000000000000000000000000000000000081526004016106e790610f12565b60405180910390fd5b600254905090565b5f60035f3373ffffffffffffffffffffffffffffffffffffffff1673ffffffffffffffffffffffffffffffffffffffff1681526020019081526020015f205f0180546107439061104b565b905014610785576040517f08c379a000000000000000000000000000000000000000000000000000000000815260040161077c90611266565b60405180910390fd5b604051806080016040528085858080601f0160208091040260200160405190810160405280939291908181526020018383808284375f81840152601f19601f82011690508083019250505050505050815260200183838080601f0160208091040260200160405190810160405280939291908181526020018383808284375f81840152601f19601f8201169050808301925050505050505081526020015f81526020016001151581525060035f3373ffffffffffffffffffffffffffffffffffffffff1673ffffffffffffffffffffffffffffffffffffffff1681526020019081526020015f205f820151815f01908161087f919061144e565b506020820151816001019081610895919061144e565b50604082015181600201556060820151816003015f6101000a81548160ff0219169083151502179055509050503373ffffffffffffffffffffffffffffffffffffffff167f92822564bab8864c3a47b34e8d23fbce5c46234eb5da261f94087b995ac0f33b8585858560405161090e9493929190611557565b60405180910390a250505050565b6003602052805f5260405f205f91509050805f01805461093b9061104b565b80601f01602080910402602001604051908101604052809291908181526020018280546109679061104b565b80156109b25780601f10610989576101008083540402835291602001916109b2565b820191905f5260205f20905b81548152906001019060200180831161099557829003601f168201915b5050505050908060010180546109c79061104b565b80601f01602080910402602001604051908101604052809291908181526020018280546109f39061104b565b8015610a3e5780601f10610a1557610100808354040283529160200191610a3e565b820191905f5260205f20905b815481529060010190602001808311610a2157829003601f168201915b505050505090806002015490806003015f9054906101000a900460ff16905084565b5f60035f3373ffffffffffffffffffffffffffffffffffffffff1673ffffffffffffffffffffffffffffffffffffffff1681526020019081526020015f205f018054610aab9061104b565b905011610aed576040517f08c379a0000000000000000000000000000000000000000000000000000000008152600401610ae4906110c5565b60405180910390fd5b5f3411610b2f576040517f08c379a0000000000000000000000000000000000000000000000000000000008152600401610b2690611600565b60405180910390fd5b3460035f3373ffffffffffffffffffffffffffffffffffffffff1673ffffffffffffffffffffffffffffffffffffffff1681526020019081526020015f206002015f828254610b7e91906111e9565b925050819055503373ffffffffffffffffffffffffffffffffffffffff167fe1fffcc4923d04b559f4d29a8bfc6cda04eb5b0d3c460751c2402c5c5cc9109c34604051610bcb9190610c4a565b60405180910390a2565b5f80fd5b5f80fd5b5f819050919050565b610bef81610bdd565b8114610bf9575f80fd5b50565b5f81359050610c0a81610be6565b92915050565b5f60208284031215610c2557610c24610bd5565b5b5f610c3284828501610bfc565b91505092915050565b610c4481610bdd565b82525050565b5f602082019050610c5d5f830184610c3b565b92915050565b5f80fd5b5f80fd5b5f80fd5b5f8083601f840112610c8457610c83610c63565b5b8235905067ffffffffffffffff811115610ca157610ca0610c67565b5b602083019150836001820283011115610cbd57610cbc610c6b565b5b9250929050565b5f805f8060408587031215610cdc57610cdb610bd5565b5b5f85013567ffffffffffffffff811115610cf957610cf8610bd9565b5b610d0587828801610c6f565b9450945050602085013567ffffffffffffffff811115610d2857610d27610bd9565b5b610d3487828801610c6f565b925092505092959194509250565b5f73ffffffffffffffffffffffffffffffffffffffff82169050919050565b5f610d6b82610d42565b9050919050565b610d7b81610d61565b8114610d85575f80fd5b50565b5f81359050610d9681610d72565b92915050565b5f60208284031215610db157610db0610bd5565b5b5f610dbe84828501610d88565b91505092915050565b5f81519050919050565b5f82825260208201905092915050565b8281835e5f83830152505050565b5f601f19601f8301169050919050565b5f610e0982610dc7565b610e138185610dd1565b9350610e23818560208601610de1565b610e2c81610def565b840191505092915050565b5f8115159050919050565b610e4b81610e37565b82525050565b5f6080820190508181035f830152610e698187610dff565b90508181036020830152610e7d8186610dff565b9050610e8c6040830185610c3b565b610e996060830184610e42565b95945050505050565b7f596f75206172656e277420746865206f776e6572206f662074686520636f6e745f8201527f7261637400000000000000000000000000000000000000000000000000000000602082015250565b5f610efc602483610dd1565b9150610f0782610ea2565b604082019050919050565b5f6020820190508181035f830152610f2981610ef0565b9050919050565b7f4e6f7420656e6f7567682066756e647320696e207468652074726561737572795f8201527f2e00000000000000000000000000000000000000000000000000000000000000602082015250565b5f610f8a602183610dd1565b9150610f9582610f30565b604082019050919050565b5f6020820190508181035f830152610fb781610f7e565b9050919050565b7f4e487b71000000000000000000000000000000000000000000000000000000005f52601160045260245ffd5b5f610ff582610bdd565b915061100083610bdd565b925082820390508181111561101857611017610fbe565b5b92915050565b7f4e487b71000000000000000000000000000000000000000000000000000000005f52602260045260245ffd5b5f600282049050600182168061106257607f821691505b6020821081036110755761107461101e565b5b50919050565b7f55736572206e6f742072656769737465726564000000000000000000000000005f82015250565b5f6110af601383610dd1565b91506110ba8261107b565b602082019050919050565b5f6020820190508181035f8301526110dc816110a3565b9050919050565b7f4e6f7420656e6f75676820616d6f756e742e00000000000000000000000000005f82015250565b5f611117601283610dd1565b9150611122826110e3565b602082019050919050565b5f6020820190508181035f8301526111448161110b565b9050919050565b5f61115582610bdd565b915061116083610bdd565b925082820261116e81610bdd565b9150828204841483151761118557611184610fbe565b5b5092915050565b7f4e487b71000000000000000000000000000000000000000000000000000000005f52601260045260245ffd5b5f6111c382610bdd565b91506111ce83610bdd565b9250826111de576111dd61118c565b5b828204905092915050565b5f6111f382610bdd565b91506111fe83610bdd565b925082820190508082111561121657611215610fbe565b5b92915050565b7f5573657220616c726561647920726567697374657265640000000000000000005f82015250565b5f611250601783610dd1565b915061125b8261121c565b602082019050919050565b5f6020820190508181035f83015261127d81611244565b9050919050565b7f4e487b71000000000000000000000000000000000000000000000000000000005f52604160045260245ffd5b5f819050815f5260205f209050919050565b5f6020601f8301049050919050565b5f82821b905092915050565b5f6008830261130d7fffffffffffffffffffffffffffffffffffffffffffffffffffffffffffffffff826112d2565b61131786836112d2565b95508019841693508086168417925050509392505050565b5f819050919050565b5f61135261134d61134884610bdd565b61132f565b610bdd565b9050919050565b5f819050919050565b61136b83611338565b61137f61137782611359565b8484546112de565b825550505050565b5f90565b611393611387565b61139e818484611362565b505050565b5b818110156113c1576113b65f8261138b565b6001810190506113a4565b5050565b601f821115611406576113d7816112b1565b6113e0846112c3565b810160208510156113ef578190505b6114036113fb856112c3565b8301826113a3565b50505b505050565b5f82821c905092915050565b5f6114265f198460080261140b565b1980831691505092915050565b5f61143e8383611417565b9150826002028217905092915050565b61145782610dc7565b67ffffffffffffffff8111156114705761146f611284565b5b61147a825461104b565b6114858282856113c5565b5f60209050601f8311600181146114b6575f84156114a4578287015190505b6114ae8582611433565b865550611515565b601f1984166114c4866112b1565b5f5b828110156114eb578489015182556001820191506020850194506020810190506114c6565b868310156115085784890151611504601f891682611417565b8355505b6001600288020188555050505b505050505050565b828183375f83830152505050565b5f6115368385610dd1565b935061154383858461151d565b61154c83610def565b840190509392505050565b5f6040820190508181035f83015261157081868861152b565b9050818103602083015261158581848661152b565b905095945050505050565b7f4465706f73697420616d6f756e74206d757374206265206772656174657220745f8201527f68616e207a65726f000000000000000000000000000000000000000000000000602082015250565b5f6115ea602883610dd1565b91506115f582611590565b604082019050919050565b5f6020820190508181035f830152611617816115de565b905091905056fea2646970667358221220fece3393261d7b3ed376ef2507327e8ddd12dd234f0e238e8b5cb262a3e0875064736f6c634300081a0033",
					"opcodes": "PUSH1 0x80 PUSH1 0x40 MSTORE CALLVALUE DUP1 ISZERO PUSH2 0xF JUMPI PUSH0 DUP1 REVERT JUMPDEST POP PUSH1 0x40 MLOAD PUSH2 0x1747 CODESIZE SUB DUP1 PUSH2 0x1747 DUP4 CODECOPY DUP2 DUP2 ADD PUSH1 0x40 MSTORE DUP2 ADD SWAP1 PUSH2 0x31 SWAP2 SWAP1 PUSH2 0xBB JUMP JUMPDEST DUP1 PUSH0 DUP2 SWAP1 SSTORE POP CALLER PUSH1 0x1 PUSH0 PUSH2 0x100 EXP DUP2 SLOAD DUP2 PUSH20 0xFFFFFFFFFFFFFFFFFFFFFFFFFFFFFFFFFFFFFFFF MUL NOT AND SWAP1 DUP4 PUSH20 0xFFFFFFFFFFFFFFFFFFFFFFFFFFFFFFFFFFFFFFFF AND MUL OR SWAP1 SSTORE POP PUSH0 PUSH1 0x2 DUP2 SWAP1 SSTORE POP POP PUSH2 0xE6 JUMP JUMPDEST PUSH0 DUP1 REVERT JUMPDEST PUSH0 DUP2 SWAP1 POP SWAP2 SWAP1 POP JUMP JUMPDEST PUSH2 0x9A DUP2 PUSH2 0x88 JUMP JUMPDEST DUP2 EQ PUSH2 0xA4 JUMPI PUSH0 DUP1 REVERT JUMPDEST POP JUMP JUMPDEST PUSH0 DUP2 MLOAD SWAP1 POP PUSH2 0xB5 DUP2 PUSH2 0x91 JUMP JUMPDEST SWAP3 SWAP2 POP POP JUMP JUMPDEST PUSH0 PUSH1 0x20 DUP3 DUP5 SUB SLT ISZERO PUSH2 0xD0 JUMPI PUSH2 0xCF PUSH2 0x84 JUMP JUMPDEST JUMPDEST PUSH0 PUSH2 0xDD DUP5 DUP3 DUP6 ADD PUSH2 0xA7 JUMP JUMPDEST SWAP2 POP POP SWAP3 SWAP2 POP POP JUMP JUMPDEST PUSH2 0x1654 DUP1 PUSH2 0xF3 PUSH0 CODECOPY PUSH0 RETURN INVALID PUSH1 0x80 PUSH1 0x40 MSTORE PUSH1 0x4 CALLDATASIZE LT PUSH2 0x6F JUMPI PUSH0 CALLDATALOAD PUSH1 0xE0 SHR DUP1 PUSH4 0x3B19E84A GT PUSH2 0x4D JUMPI DUP1 PUSH4 0x3B19E84A EQ PUSH2 0xED JUMPI DUP1 PUSH4 0x3FFBD47F EQ PUSH2 0x117 JUMPI DUP1 PUSH4 0xA87430BA EQ PUSH2 0x13F JUMPI DUP1 PUSH4 0xD0E30DB0 EQ PUSH2 0x17E JUMPI PUSH2 0x6F JUMP JUMPDEST DUP1 PUSH4 0x11F1FC99 EQ PUSH2 0x73 JUMPI DUP1 PUSH4 0x12065FE0 EQ PUSH2 0x9B JUMPI DUP1 PUSH4 0x2E1A7D4D EQ PUSH2 0xC5 JUMPI JUMPDEST PUSH0 DUP1 REVERT JUMPDEST CALLVALUE DUP1 ISZERO PUSH2 0x7E JUMPI PUSH0 DUP1 REVERT JUMPDEST POP PUSH2 0x99 PUSH1 0x4 DUP1 CALLDATASIZE SUB DUP2 ADD SWAP1 PUSH2 0x94 SWAP2 SWAP1 PUSH2 0xC10 JUMP JUMPDEST PUSH2 0x188 JUMP JUMPDEST STOP JUMPDEST CALLVALUE DUP1 ISZERO PUSH2 0xA6 JUMPI PUSH0 DUP1 REVERT JUMPDEST POP PUSH2 0xAF PUSH2 0x34B JUMP JUMPDEST PUSH1 0x40 MLOAD PUSH2 0xBC SWAP2 SWAP1 PUSH2 0xC4A JUMP JUMPDEST PUSH1 0x40 MLOAD DUP1 SWAP2 SUB SWAP1 RETURN JUMPDEST CALLVALUE DUP1 ISZERO PUSH2 0xD0 JUMPI PUSH0 DUP1 REVERT JUMPDEST POP PUSH2 0xEB PUSH1 0x4 DUP1 CALLDATASIZE SUB DUP2 ADD SWAP1 PUSH2 0xE6 SWAP2 SWAP1 PUSH2 0xC10 JUMP JUMPDEST PUSH2 0x41F JUMP JUMPDEST STOP JUMPDEST CALLVALUE DUP1 ISZERO PUSH2 0xF8 JUMPI PUSH0 DUP1 REVERT JUMPDEST POP PUSH2 0x101 PUSH2 0x660 JUMP JUMPDEST PUSH1 0x40 MLOAD PUSH2 0x10E SWAP2 SWAP1 PUSH2 0xC4A JUMP JUMPDEST PUSH1 0x40 MLOAD DUP1 SWAP2 SUB SWAP1 RETURN JUMPDEST CALLVALUE DUP1 ISZERO PUSH2 0x122 JUMPI PUSH0 DUP1 REVERT JUMPDEST POP PUSH2 0x13D PUSH1 0x4 DUP1 CALLDATASIZE SUB DUP2 ADD SWAP1 PUSH2 0x138 SWAP2 SWAP1 PUSH2 0xCC4 JUMP JUMPDEST PUSH2 0x6F8 JUMP JUMPDEST STOP JUMPDEST CALLVALUE DUP1 ISZERO PUSH2 0x14A JUMPI PUSH0 DUP1 REVERT JUMPDEST POP PUSH2 0x165 PUSH1 0x4 DUP1 CALLDATASIZE SUB DUP2 ADD SWAP1 PUSH2 0x160 SWAP2 SWAP1 PUSH2 0xD9C JUMP JUMPDEST PUSH2 0x91C JUMP JUMPDEST PUSH1 0x40 MLOAD PUSH2 0x175 SWAP5 SWAP4 SWAP3 SWAP2 SWAP1 PUSH2 0xE51 JUMP JUMPDEST PUSH1 0x40 MLOAD DUP1 SWAP2 SUB SWAP1 RETURN JUMPDEST PUSH2 0x186 PUSH2 0xA60 JUMP JUMPDEST STOP JUMPDEST PUSH1 0x1 PUSH0 SWAP1 SLOAD SWAP1 PUSH2 0x100 EXP SWAP1 DIV PUSH20 0xFFFFFFFFFFFFFFFFFFFFFFFFFFFFFFFFFFFFFFFF AND PUSH20 0xFFFFFFFFFFFFFFFFFFFFFFFFFFFFFFFFFFFFFFFF AND CALLER PUSH20 0xFFFFFFFFFFFFFFFFFFFFFFFFFFFFFFFFFFFFFFFF AND EQ PUSH2 0x217 JUMPI PUSH1 0x40 MLOAD PUSH32 0x8C379A000000000000000000000000000000000000000000000000000000000 DUP2 MSTORE PUSH1 0x4 ADD PUSH2 0x20E SWAP1 PUSH2 0xF12 JUMP JUMPDEST PUSH1 0x40 MLOAD DUP1 SWAP2 SUB SWAP1 REVERT JUMPDEST DUP1 PUSH1 0x2 SLOAD LT ISZERO PUSH2 0x25C JUMPI PUSH1 0x40 MLOAD PUSH32 0x8C379A000000000000000000000000000000000000000000000000000000000 DUP2 MSTORE PUSH1 0x4 ADD PUSH2 0x253 SWAP1 PUSH2 0xFA0 JUMP JUMPDEST PUSH1 0x40 MLOAD DUP1 SWAP2 SUB SWAP1 REVERT JUMPDEST DUP1 PUSH1 0x2 PUSH0 DUP3 DUP3 SLOAD PUSH2 0x26D SWAP2 SWAP1 PUSH2 0xFEB JUMP JUMPDEST SWAP3 POP POP DUP2 SWAP1 SSTORE POP PUSH1 0x1 PUSH0 SWAP1 SLOAD SWAP1 PUSH2 0x100 EXP SWAP1 DIV PUSH20 0xFFFFFFFFFFFFFFFFFFFFFFFFFFFFFFFFFFFFFFFF AND PUSH20 0xFFFFFFFFFFFFFFFFFFFFFFFFFFFFFFFFFFFFFFFF AND PUSH2 0x8FC DUP3 SWAP1 DUP2 ISZERO MUL SWAP1 PUSH1 0x40 MLOAD PUSH0 PUSH1 0x40 MLOAD DUP1 DUP4 SUB DUP2 DUP6 DUP9 DUP9 CALL SWAP4 POP POP POP POP ISZERO DUP1 ISZERO PUSH2 0x2D8 JUMPI RETURNDATASIZE PUSH0 DUP1 RETURNDATACOPY RETURNDATASIZE PUSH0 REVERT JUMPDEST POP PUSH1 0x1 PUSH0 SWAP1 SLOAD SWAP1 PUSH2 0x100 EXP SWAP1 DIV PUSH20 0xFFFFFFFFFFFFFFFFFFFFFFFFFFFFFFFFFFFFFFFF AND PUSH20 0xFFFFFFFFFFFFFFFFFFFFFFFFFFFFFFFFFFFFFFFF AND PUSH32 0x905D2A9B2639A94F09720CFD7B061C3B7A9E27921A009E954D67C8AFF6E73667 DUP3 PUSH1 0x40 MLOAD PUSH2 0x340 SWAP2 SWAP1 PUSH2 0xC4A JUMP JUMPDEST PUSH1 0x40 MLOAD DUP1 SWAP2 SUB SWAP1 LOG2 POP JUMP JUMPDEST PUSH0 DUP1 PUSH1 0x3 PUSH0 CALLER PUSH20 0xFFFFFFFFFFFFFFFFFFFFFFFFFFFFFFFFFFFFFFFF AND PUSH20 0xFFFFFFFFFFFFFFFFFFFFFFFFFFFFFFFFFFFFFFFF AND DUP2 MSTORE PUSH1 0x20 ADD SWAP1 DUP2 MSTORE PUSH1 0x20 ADD PUSH0 KECCAK256 PUSH0 ADD DUP1 SLOAD PUSH2 0x397 SWAP1 PUSH2 0x104B JUMP JUMPDEST SWAP1 POP GT PUSH2 0x3D9 JUMPI PUSH1 0x40 MLOAD PUSH32 0x8C379A000000000000000000000000000000000000000000000000000000000 DUP2 MSTORE PUSH1 0x4 ADD PUSH2 0x3D0 SWAP1 PUSH2 0x10C5 JUMP JUMPDEST PUSH1 0x40 MLOAD DUP1 SWAP2 SUB SWAP1 REVERT JUMPDEST PUSH1 0x3 PUSH0 CALLER PUSH20 0xFFFFFFFFFFFFFFFFFFFFFFFFFFFFFFFFFFFFFFFF AND PUSH20 0xFFFFFFFFFFFFFFFFFFFFFFFFFFFFFFFFFFFFFFFF AND DUP2 MSTORE PUSH1 0x20 ADD SWAP1 DUP2 MSTORE PUSH1 0x20 ADD PUSH0 KECCAK256 PUSH1 0x2 ADD SLOAD SWAP1 POP SWAP1 JUMP JUMPDEST PUSH0 PUSH1 0x3 PUSH0 CALLER PUSH20 0xFFFFFFFFFFFFFFFFFFFFFFFFFFFFFFFFFFFFFFFF AND PUSH20 0xFFFFFFFFFFFFFFFFFFFFFFFFFFFFFFFFFFFFFFFF AND DUP2 MSTORE PUSH1 0x20 ADD SWAP1 DUP2 MSTORE PUSH1 0x20 ADD PUSH0 KECCAK256 PUSH0 ADD DUP1 SLOAD PUSH2 0x46A SWAP1 PUSH2 0x104B JUMP JUMPDEST SWAP1 POP GT PUSH2 0x4AC JUMPI PUSH1 0x40 MLOAD PUSH32 0x8C379A000000000000000000000000000000000000000000000000000000000 DUP2 MSTORE PUSH1 0x4 ADD PUSH2 0x4A3 SWAP1 PUSH2 0x10C5 JUMP JUMPDEST PUSH1 0x40 MLOAD DUP1 SWAP2 SUB SWAP1 REVERT JUMPDEST DUP1 PUSH1 0x3 PUSH0 CALLER PUSH20 0xFFFFFFFFFFFFFFFFFFFFFFFFFFFFFFFFFFFFFFFF AND PUSH20 0xFFFFFFFFFFFFFFFFFFFFFFFFFFFFFFFFFFFFFFFF AND DUP2 MSTORE PUSH1 0x20 ADD SWAP1 DUP2 MSTORE PUSH1 0x20 ADD PUSH0 KECCAK256 PUSH1 0x2 ADD SLOAD LT ISZERO PUSH2 0x52F JUMPI PUSH1 0x40 MLOAD PUSH32 0x8C379A000000000000000000000000000000000000000000000000000000000 DUP2 MSTORE PUSH1 0x4 ADD PUSH2 0x526 SWAP1 PUSH2 0x112D JUMP JUMPDEST PUSH1 0x40 MLOAD DUP1 SWAP2 SUB SWAP1 REVERT JUMPDEST PUSH0 PUSH2 0x2710 PUSH0 SLOAD DUP4 PUSH2 0x540 SWAP2 SWAP1 PUSH2 0x114B JUMP JUMPDEST PUSH2 0x54A SWAP2 SWAP1 PUSH2 0x11B9 JUMP JUMPDEST SWAP1 POP PUSH0 DUP2 DUP4 PUSH2 0x559 SWAP2 SWAP1 PUSH2 0xFEB JUMP JUMPDEST SWAP1 POP DUP3 PUSH1 0x3 PUSH0 CALLER PUSH20 0xFFFFFFFFFFFFFFFFFFFFFFFFFFFFFFFFFFFFFFFF AND PUSH20 0xFFFFFFFFFFFFFFFFFFFFFFFFFFFFFFFFFFFFFFFF AND DUP2 MSTORE PUSH1 0x20 ADD SWAP1 DUP2 MSTORE PUSH1 0x20 ADD PUSH0 KECCAK256 PUSH1 0x2 ADD PUSH0 DUP3 DUP3 SLOAD PUSH2 0x5AA SWAP2 SWAP1 PUSH2 0xFEB JUMP JUMPDEST SWAP3 POP POP DUP2 SWAP1 SSTORE POP DUP2 PUSH1 0x2 PUSH0 DUP3 DUP3 SLOAD PUSH2 0x5C2 SWAP2 SWAP1 PUSH2 0x11E9 JUMP JUMPDEST SWAP3 POP POP DUP2 SWAP1 SSTORE POP CALLER PUSH20 0xFFFFFFFFFFFFFFFFFFFFFFFFFFFFFFFFFFFFFFFF AND PUSH2 0x8FC DUP3 SWAP1 DUP2 ISZERO MUL SWAP1 PUSH1 0x40 MLOAD PUSH0 PUSH1 0x40 MLOAD DUP1 DUP4 SUB DUP2 DUP6 DUP9 DUP9 CALL SWAP4 POP POP POP POP ISZERO DUP1 ISZERO PUSH2 0x60C JUMPI RETURNDATASIZE PUSH0 DUP1 RETURNDATACOPY RETURNDATASIZE PUSH0 REVERT JUMPDEST POP CALLER PUSH20 0xFFFFFFFFFFFFFFFFFFFFFFFFFFFFFFFFFFFFFFFF AND PUSH32 0x884EDAD9CE6FA2440D8A54CC123490EB96D2768479D49FF9C7366125A9424364 DUP3 PUSH1 0x40 MLOAD PUSH2 0x653 SWAP2 SWAP1 PUSH2 0xC4A JUMP JUMPDEST PUSH1 0x40 MLOAD DUP1 SWAP2 SUB SWAP1 LOG2 POP POP POP JUMP JUMPDEST PUSH0 PUSH1 0x1 PUSH0 SWAP1 SLOAD SWAP1 PUSH2 0x100 EXP SWAP1 DIV PUSH20 0xFFFFFFFFFFFFFFFFFFFFFFFFFFFFFFFFFFFFFFFF AND PUSH20 0xFFFFFFFFFFFFFFFFFFFFFFFFFFFFFFFFFFFFFFFF AND CALLER PUSH20 0xFFFFFFFFFFFFFFFFFFFFFFFFFFFFFFFFFFFFFFFF AND EQ PUSH2 0x6F0 JUMPI PUSH1 0x40 MLOAD PUSH32 0x8C379A000000000000000000000000000000000000000000000000000000000 DUP2 MSTORE PUSH1 0x4 ADD PUSH2 0x6E7 SWAP1 PUSH2 0xF12 JUMP JUMPDEST PUSH1 0x40 MLOAD DUP1 SWAP2 SUB SWAP1 REVERT JUMPDEST PUSH1 0x2 SLOAD SWAP1 POP SWAP1 JUMP JUMPDEST PUSH0 PUSH1 0x3 PUSH0 CALLER PUSH20 0xFFFFFFFFFFFFFFFFFFFFFFFFFFFFFFFFFFFFFFFF AND PUSH20 0xFFFFFFFFFFFFFFFFFFFFFFFFFFFFFFFFFFFFFFFF AND DUP2 MSTORE PUSH1 0x20 ADD SWAP1 DUP2 MSTORE PUSH1 0x20 ADD PUSH0 KECCAK256 PUSH0 ADD DUP1 SLOAD PUSH2 0x743 SWAP1 PUSH2 0x104B JUMP JUMPDEST SWAP1 POP EQ PUSH2 0x785 JUMPI PUSH1 0x40 MLOAD PUSH32 0x8C379A000000000000000000000000000000000000000000000000000000000 DUP2 MSTORE PUSH1 0x4 ADD PUSH2 0x77C SWAP1 PUSH2 0x1266 JUMP JUMPDEST PUSH1 0x40 MLOAD DUP1 SWAP2 SUB SWAP1 REVERT JUMPDEST PUSH1 0x40 MLOAD DUP1 PUSH1 0x80 ADD PUSH1 0x40 MSTORE DUP1 DUP6 DUP6 DUP1 DUP1 PUSH1 0x1F ADD PUSH1 0x20 DUP1 SWAP2 DIV MUL PUSH1 0x20 ADD PUSH1 0x40 MLOAD SWAP1 DUP2 ADD PUSH1 0x40 MSTORE DUP1 SWAP4 SWAP3 SWAP2 SWAP1 DUP2 DUP2 MSTORE PUSH1 0x20 ADD DUP4 DUP4 DUP1 DUP3 DUP5 CALLDATACOPY PUSH0 DUP2 DUP5 ADD MSTORE PUSH1 0x1F NOT PUSH1 0x1F DUP3 ADD AND SWAP1 POP DUP1 DUP4 ADD SWAP3 POP POP POP POP POP POP POP DUP2 MSTORE PUSH1 0x20 ADD DUP4 DUP4 DUP1 DUP1 PUSH1 0x1F ADD PUSH1 0x20 DUP1 SWAP2 DIV MUL PUSH1 0x20 ADD PUSH1 0x40 MLOAD SWAP1 DUP2 ADD PUSH1 0x40 MSTORE DUP1 SWAP4 SWAP3 SWAP2 SWAP1 DUP2 DUP2 MSTORE PUSH1 0x20 ADD DUP4 DUP4 DUP1 DUP3 DUP5 CALLDATACOPY PUSH0 DUP2 DUP5 ADD MSTORE PUSH1 0x1F NOT PUSH1 0x1F DUP3 ADD AND SWAP1 POP DUP1 DUP4 ADD SWAP3 POP POP POP POP POP POP POP DUP2 MSTORE PUSH1 0x20 ADD PUSH0 DUP2 MSTORE PUSH1 0x20 ADD PUSH1 0x1 ISZERO ISZERO DUP2 MSTORE POP PUSH1 0x3 PUSH0 CALLER PUSH20 0xFFFFFFFFFFFFFFFFFFFFFFFFFFFFFFFFFFFFFFFF AND PUSH20 0xFFFFFFFFFFFFFFFFFFFFFFFFFFFFFFFFFFFFFFFF AND DUP2 MSTORE PUSH1 0x20 ADD SWAP1 DUP2 MSTORE PUSH1 0x20 ADD PUSH0 KECCAK256 PUSH0 DUP3 ADD MLOAD DUP2 PUSH0 ADD SWAP1 DUP2 PUSH2 0x87F SWAP2 SWAP1 PUSH2 0x144E JUMP JUMPDEST POP PUSH1 0x20 DUP3 ADD MLOAD DUP2 PUSH1 0x1 ADD SWAP1 DUP2 PUSH2 0x895 SWAP2 SWAP1 PUSH2 0x144E JUMP JUMPDEST POP PUSH1 0x40 DUP3 ADD MLOAD DUP2 PUSH1 0x2 ADD SSTORE PUSH1 0x60 DUP3 ADD MLOAD DUP2 PUSH1 0x3 ADD PUSH0 PUSH2 0x100 EXP DUP2 SLOAD DUP2 PUSH1 0xFF MUL NOT AND SWAP1 DUP4 ISZERO ISZERO MUL OR SWAP1 SSTORE POP SWAP1 POP POP CALLER PUSH20 0xFFFFFFFFFFFFFFFFFFFFFFFFFFFFFFFFFFFFFFFF AND PUSH32 0x92822564BAB8864C3A47B34E8D23FBCE5C46234EB5DA261F94087B995AC0F33B DUP6 DUP6 DUP6 DUP6 PUSH1 0x40 MLOAD PUSH2 0x90E SWAP5 SWAP4 SWAP3 SWAP2 SWAP1 PUSH2 0x1557 JUMP JUMPDEST PUSH1 0x40 MLOAD DUP1 SWAP2 SUB SWAP1 LOG2 POP POP POP POP JUMP JUMPDEST PUSH1 0x3 PUSH1 0x20 MSTORE DUP1 PUSH0 MSTORE PUSH1 0x40 PUSH0 KECCAK256 PUSH0 SWAP2 POP SWAP1 POP DUP1 PUSH0 ADD DUP1 SLOAD PUSH2 0x93B SWAP1 PUSH2 0x104B JUMP JUMPDEST DUP1 PUSH1 0x1F ADD PUSH1 0x20 DUP1 SWAP2 DIV MUL PUSH1 0x20 ADD PUSH1 0x40 MLOAD SWAP1 DUP2 ADD PUSH1 0x40 MSTORE DUP1 SWAP3 SWAP2 SWAP1 DUP2 DUP2 MSTORE PUSH1 0x20 ADD DUP3 DUP1 SLOAD PUSH2 0x967 SWAP1 PUSH2 0x104B JUMP JUMPDEST DUP1 ISZERO PUSH2 0x9B2 JUMPI DUP1 PUSH1 0x1F LT PUSH2 0x989 JUMPI PUSH2 0x100 DUP1 DUP4 SLOAD DIV MUL DUP4 MSTORE SWAP2 PUSH1 0x20 ADD SWAP2 PUSH2 0x9B2 JUMP JUMPDEST DUP3 ADD SWAP2 SWAP1 PUSH0 MSTORE PUSH1 0x20 PUSH0 KECCAK256 SWAP1 JUMPDEST DUP2 SLOAD DUP2 MSTORE SWAP1 PUSH1 0x1 ADD SWAP1 PUSH1 0x20 ADD DUP1 DUP4 GT PUSH2 0x995 JUMPI DUP3 SWAP1 SUB PUSH1 0x1F AND DUP3 ADD SWAP2 JUMPDEST POP POP POP POP POP SWAP1 DUP1 PUSH1 0x1 ADD DUP1 SLOAD PUSH2 0x9C7 SWAP1 PUSH2 0x104B JUMP JUMPDEST DUP1 PUSH1 0x1F ADD PUSH1 0x20 DUP1 SWAP2 DIV MUL PUSH1 0x20 ADD PUSH1 0x40 MLOAD SWAP1 DUP2 ADD PUSH1 0x40 MSTORE DUP1 SWAP3 SWAP2 SWAP1 DUP2 DUP2 MSTORE PUSH1 0x20 ADD DUP3 DUP1 SLOAD PUSH2 0x9F3 SWAP1 PUSH2 0x104B JUMP JUMPDEST DUP1 ISZERO PUSH2 0xA3E JUMPI DUP1 PUSH1 0x1F LT PUSH2 0xA15 JUMPI PUSH2 0x100 DUP1 DUP4 SLOAD DIV MUL DUP4 MSTORE SWAP2 PUSH1 0x20 ADD SWAP2 PUSH2 0xA3E JUMP JUMPDEST DUP3 ADD SWAP2 SWAP1 PUSH0 MSTORE PUSH1 0x20 PUSH0 KECCAK256 SWAP1 JUMPDEST DUP2 SLOAD DUP2 MSTORE SWAP1 PUSH1 0x1 ADD SWAP1 PUSH1 0x20 ADD DUP1 DUP4 GT PUSH2 0xA21 JUMPI DUP3 SWAP1 SUB PUSH1 0x1F AND DUP3 ADD SWAP2 JUMPDEST POP POP POP POP POP SWAP1 DUP1 PUSH1 0x2 ADD SLOAD SWAP1 DUP1 PUSH1 0x3 ADD PUSH0 SWAP1 SLOAD SWAP1 PUSH2 0x100 EXP SWAP1 DIV PUSH1 0xFF AND SWAP1 POP DUP5 JUMP JUMPDEST PUSH0 PUSH1 0x3 PUSH0 CALLER PUSH20 0xFFFFFFFFFFFFFFFFFFFFFFFFFFFFFFFFFFFFFFFF AND PUSH20 0xFFFFFFFFFFFFFFFFFFFFFFFFFFFFFFFFFFFFFFFF AND DUP2 MSTORE PUSH1 0x20 ADD SWAP1 DUP2 MSTORE PUSH1 0x20 ADD PUSH0 KECCAK256 PUSH0 ADD DUP1 SLOAD PUSH2 0xAAB SWAP1 PUSH2 0x104B JUMP JUMPDEST SWAP1 POP GT PUSH2 0xAED JUMPI PUSH1 0x40 MLOAD PUSH32 0x8C379A000000000000000000000000000000000000000000000000000000000 DUP2 MSTORE PUSH1 0x4 ADD PUSH2 0xAE4 SWAP1 PUSH2 0x10C5 JUMP JUMPDEST PUSH1 0x40 MLOAD DUP1 SWAP2 SUB SWAP1 REVERT JUMPDEST PUSH0 CALLVALUE GT PUSH2 0xB2F JUMPI PUSH1 0x40 MLOAD PUSH32 0x8C379A000000000000000000000000000000000000000000000000000000000 DUP2 MSTORE PUSH1 0x4 ADD PUSH2 0xB26 SWAP1 PUSH2 0x1600 JUMP JUMPDEST PUSH1 0x40 MLOAD DUP1 SWAP2 SUB SWAP1 REVERT JUMPDEST CALLVALUE PUSH1 0x3 PUSH0 CALLER PUSH20 0xFFFFFFFFFFFFFFFFFFFFFFFFFFFFFFFFFFFFFFFF AND PUSH20 0xFFFFFFFFFFFFFFFFFFFFFFFFFFFFFFFFFFFFFFFF AND DUP2 MSTORE PUSH1 0x20 ADD SWAP1 DUP2 MSTORE PUSH1 0x20 ADD PUSH0 KECCAK256 PUSH1 0x2 ADD PUSH0 DUP3 DUP3 SLOAD PUSH2 0xB7E SWAP2 SWAP1 PUSH2 0x11E9 JUMP JUMPDEST SWAP3 POP POP DUP2 SWAP1 SSTORE POP CALLER PUSH20 0xFFFFFFFFFFFFFFFFFFFFFFFFFFFFFFFFFFFFFFFF AND PUSH32 0xE1FFFCC4923D04B559F4D29A8BFC6CDA04EB5B0D3C460751C2402C5C5CC9109C CALLVALUE PUSH1 0x40 MLOAD PUSH2 0xBCB SWAP2 SWAP1 PUSH2 0xC4A JUMP JUMPDEST PUSH1 0x40 MLOAD DUP1 SWAP2 SUB SWAP1 LOG2 JUMP JUMPDEST PUSH0 DUP1 REVERT JUMPDEST PUSH0 DUP1 REVERT JUMPDEST PUSH0 DUP2 SWAP1 POP SWAP2 SWAP1 POP JUMP JUMPDEST PUSH2 0xBEF DUP2 PUSH2 0xBDD JUMP JUMPDEST DUP2 EQ PUSH2 0xBF9 JUMPI PUSH0 DUP1 REVERT JUMPDEST POP JUMP JUMPDEST PUSH0 DUP2 CALLDATALOAD SWAP1 POP PUSH2 0xC0A DUP2 PUSH2 0xBE6 JUMP JUMPDEST SWAP3 SWAP2 POP POP JUMP JUMPDEST PUSH0 PUSH1 0x20 DUP3 DUP5 SUB SLT ISZERO PUSH2 0xC25 JUMPI PUSH2 0xC24 PUSH2 0xBD5 JUMP JUMPDEST JUMPDEST PUSH0 PUSH2 0xC32 DUP5 DUP3 DUP6 ADD PUSH2 0xBFC JUMP JUMPDEST SWAP2 POP POP SWAP3 SWAP2 POP POP JUMP JUMPDEST PUSH2 0xC44 DUP2 PUSH2 0xBDD JUMP JUMPDEST DUP3 MSTORE POP POP JUMP JUMPDEST PUSH0 PUSH1 0x20 DUP3 ADD SWAP1 POP PUSH2 0xC5D PUSH0 DUP4 ADD DUP5 PUSH2 0xC3B JUMP JUMPDEST SWAP3 SWAP2 POP POP JUMP JUMPDEST PUSH0 DUP1 REVERT JUMPDEST PUSH0 DUP1 REVERT JUMPDEST PUSH0 DUP1 REVERT JUMPDEST PUSH0 DUP1 DUP4 PUSH1 0x1F DUP5 ADD SLT PUSH2 0xC84 JUMPI PUSH2 0xC83 PUSH2 0xC63 JUMP JUMPDEST JUMPDEST DUP3 CALLDATALOAD SWAP1 POP PUSH8 0xFFFFFFFFFFFFFFFF DUP2 GT ISZERO PUSH2 0xCA1 JUMPI PUSH2 0xCA0 PUSH2 0xC67 JUMP JUMPDEST JUMPDEST PUSH1 0x20 DUP4 ADD SWAP2 POP DUP4 PUSH1 0x1 DUP3 MUL DUP4 ADD GT ISZERO PUSH2 0xCBD JUMPI PUSH2 0xCBC PUSH2 0xC6B JUMP JUMPDEST JUMPDEST SWAP3 POP SWAP3 SWAP1 POP JUMP JUMPDEST PUSH0 DUP1 PUSH0 DUP1 PUSH1 0x40 DUP6 DUP8 SUB SLT ISZERO PUSH2 0xCDC JUMPI PUSH2 0xCDB PUSH2 0xBD5 JUMP JUMPDEST JUMPDEST PUSH0 DUP6 ADD CALLDATALOAD PUSH8 0xFFFFFFFFFFFFFFFF DUP2 GT ISZERO PUSH2 0xCF9 JUMPI PUSH2 0xCF8 PUSH2 0xBD9 JUMP JUMPDEST JUMPDEST PUSH2 0xD05 DUP8 DUP3 DUP9 ADD PUSH2 0xC6F JUMP JUMPDEST SWAP5 POP SWAP5 POP POP PUSH1 0x20 DUP6 ADD CALLDATALOAD PUSH8 0xFFFFFFFFFFFFFFFF DUP2 GT ISZERO PUSH2 0xD28 JUMPI PUSH2 0xD27 PUSH2 0xBD9 JUMP JUMPDEST JUMPDEST PUSH2 0xD34 DUP8 DUP3 DUP9 ADD PUSH2 0xC6F JUMP JUMPDEST SWAP3 POP SWAP3 POP POP SWAP3 SWAP6 SWAP2 SWAP5 POP SWAP3 POP JUMP JUMPDEST PUSH0 PUSH20 0xFFFFFFFFFFFFFFFFFFFFFFFFFFFFFFFFFFFFFFFF DUP3 AND SWAP1 POP SWAP2 SWAP1 POP JUMP JUMPDEST PUSH0 PUSH2 0xD6B DUP3 PUSH2 0xD42 JUMP JUMPDEST SWAP1 POP SWAP2 SWAP1 POP JUMP JUMPDEST PUSH2 0xD7B DUP2 PUSH2 0xD61 JUMP JUMPDEST DUP2 EQ PUSH2 0xD85 JUMPI PUSH0 DUP1 REVERT JUMPDEST POP JUMP JUMPDEST PUSH0 DUP2 CALLDATALOAD SWAP1 POP PUSH2 0xD96 DUP2 PUSH2 0xD72 JUMP JUMPDEST SWAP3 SWAP2 POP POP JUMP JUMPDEST PUSH0 PUSH1 0x20 DUP3 DUP5 SUB SLT ISZERO PUSH2 0xDB1 JUMPI PUSH2 0xDB0 PUSH2 0xBD5 JUMP JUMPDEST JUMPDEST PUSH0 PUSH2 0xDBE DUP5 DUP3 DUP6 ADD PUSH2 0xD88 JUMP JUMPDEST SWAP2 POP POP SWAP3 SWAP2 POP POP JUMP JUMPDEST PUSH0 DUP2 MLOAD SWAP1 POP SWAP2 SWAP1 POP JUMP JUMPDEST PUSH0 DUP3 DUP3 MSTORE PUSH1 0x20 DUP3 ADD SWAP1 POP SWAP3 SWAP2 POP POP JUMP JUMPDEST DUP3 DUP2 DUP4 MCOPY PUSH0 DUP4 DUP4 ADD MSTORE POP POP POP JUMP JUMPDEST PUSH0 PUSH1 0x1F NOT PUSH1 0x1F DUP4 ADD AND SWAP1 POP SWAP2 SWAP1 POP JUMP JUMPDEST PUSH0 PUSH2 0xE09 DUP3 PUSH2 0xDC7 JUMP JUMPDEST PUSH2 0xE13 DUP2 DUP6 PUSH2 0xDD1 JUMP JUMPDEST SWAP4 POP PUSH2 0xE23 DUP2 DUP6 PUSH1 0x20 DUP7 ADD PUSH2 0xDE1 JUMP JUMPDEST PUSH2 0xE2C DUP2 PUSH2 0xDEF JUMP JUMPDEST DUP5 ADD SWAP2 POP POP SWAP3 SWAP2 POP POP JUMP JUMPDEST PUSH0 DUP2 ISZERO ISZERO SWAP1 POP SWAP2 SWAP1 POP JUMP JUMPDEST PUSH2 0xE4B DUP2 PUSH2 0xE37 JUMP JUMPDEST DUP3 MSTORE POP POP JUMP JUMPDEST PUSH0 PUSH1 0x80 DUP3 ADD SWAP1 POP DUP2 DUP2 SUB PUSH0 DUP4 ADD MSTORE PUSH2 0xE69 DUP2 DUP8 PUSH2 0xDFF JUMP JUMPDEST SWAP1 POP DUP2 DUP2 SUB PUSH1 0x20 DUP4 ADD MSTORE PUSH2 0xE7D DUP2 DUP7 PUSH2 0xDFF JUMP JUMPDEST SWAP1 POP PUSH2 0xE8C PUSH1 0x40 DUP4 ADD DUP6 PUSH2 0xC3B JUMP JUMPDEST PUSH2 0xE99 PUSH1 0x60 DUP4 ADD DUP5 PUSH2 0xE42 JUMP JUMPDEST SWAP6 SWAP5 POP POP POP POP POP JUMP JUMPDEST PUSH32 0x596F75206172656E277420746865206F776E6572206F662074686520636F6E74 PUSH0 DUP3 ADD MSTORE PUSH32 0x7261637400000000000000000000000000000000000000000000000000000000 PUSH1 0x20 DUP3 ADD MSTORE POP JUMP JUMPDEST PUSH0 PUSH2 0xEFC PUSH1 0x24 DUP4 PUSH2 0xDD1 JUMP JUMPDEST SWAP2 POP PUSH2 0xF07 DUP3 PUSH2 0xEA2 JUMP JUMPDEST PUSH1 0x40 DUP3 ADD SWAP1 POP SWAP2 SWAP1 POP JUMP JUMPDEST PUSH0 PUSH1 0x20 DUP3 ADD SWAP1 POP DUP2 DUP2 SUB PUSH0 DUP4 ADD MSTORE PUSH2 0xF29 DUP2 PUSH2 0xEF0 JUMP JUMPDEST SWAP1 POP SWAP2 SWAP1 POP JUMP JUMPDEST PUSH32 0x4E6F7420656E6F7567682066756E647320696E20746865207472656173757279 PUSH0 DUP3 ADD MSTORE PUSH32 0x2E00000000000000000000000000000000000000000000000000000000000000 PUSH1 0x20 DUP3 ADD MSTORE POP JUMP JUMPDEST PUSH0 PUSH2 0xF8A PUSH1 0x21 DUP4 PUSH2 0xDD1 JUMP JUMPDEST SWAP2 POP PUSH2 0xF95 DUP3 PUSH2 0xF30 JUMP JUMPDEST PUSH1 0x40 DUP3 ADD SWAP1 POP SWAP2 SWAP1 POP JUMP JUMPDEST PUSH0 PUSH1 0x20 DUP3 ADD SWAP1 POP DUP2 DUP2 SUB PUSH0 DUP4 ADD MSTORE PUSH2 0xFB7 DUP2 PUSH2 0xF7E JUMP JUMPDEST SWAP1 POP SWAP2 SWAP1 POP JUMP JUMPDEST PUSH32 0x4E487B7100000000000000000000000000000000000000000000000000000000 PUSH0 MSTORE PUSH1 0x11 PUSH1 0x4 MSTORE PUSH1 0x24 PUSH0 REVERT JUMPDEST PUSH0 PUSH2 0xFF5 DUP3 PUSH2 0xBDD JUMP JUMPDEST SWAP2 POP PUSH2 0x1000 DUP4 PUSH2 0xBDD JUMP JUMPDEST SWAP3 POP DUP3 DUP3 SUB SWAP1 POP DUP2 DUP2 GT ISZERO PUSH2 0x1018 JUMPI PUSH2 0x1017 PUSH2 0xFBE JUMP JUMPDEST JUMPDEST SWAP3 SWAP2 POP POP JUMP JUMPDEST PUSH32 0x4E487B7100000000000000000000000000000000000000000000000000000000 PUSH0 MSTORE PUSH1 0x22 PUSH1 0x4 MSTORE PUSH1 0x24 PUSH0 REVERT JUMPDEST PUSH0 PUSH1 0x2 DUP3 DIV SWAP1 POP PUSH1 0x1 DUP3 AND DUP1 PUSH2 0x1062 JUMPI PUSH1 0x7F DUP3 AND SWAP2 POP JUMPDEST PUSH1 0x20 DUP3 LT DUP2 SUB PUSH2 0x1075 JUMPI PUSH2 0x1074 PUSH2 0x101E JUMP JUMPDEST JUMPDEST POP SWAP2 SWAP1 POP JUMP JUMPDEST PUSH32 0x55736572206E6F74207265676973746572656400000000000000000000000000 PUSH0 DUP3 ADD MSTORE POP JUMP JUMPDEST PUSH0 PUSH2 0x10AF PUSH1 0x13 DUP4 PUSH2 0xDD1 JUMP JUMPDEST SWAP2 POP PUSH2 0x10BA DUP3 PUSH2 0x107B JUMP JUMPDEST PUSH1 0x20 DUP3 ADD SWAP1 POP SWAP2 SWAP1 POP JUMP JUMPDEST PUSH0 PUSH1 0x20 DUP3 ADD SWAP1 POP DUP2 DUP2 SUB PUSH0 DUP4 ADD MSTORE PUSH2 0x10DC DUP2 PUSH2 0x10A3 JUMP JUMPDEST SWAP1 POP SWAP2 SWAP1 POP JUMP JUMPDEST PUSH32 0x4E6F7420656E6F75676820616D6F756E742E0000000000000000000000000000 PUSH0 DUP3 ADD MSTORE POP JUMP JUMPDEST PUSH0 PUSH2 0x1117 PUSH1 0x12 DUP4 PUSH2 0xDD1 JUMP JUMPDEST SWAP2 POP PUSH2 0x1122 DUP3 PUSH2 0x10E3 JUMP JUMPDEST PUSH1 0x20 DUP3 ADD SWAP1 POP SWAP2 SWAP1 POP JUMP JUMPDEST PUSH0 PUSH1 0x20 DUP3 ADD SWAP1 POP DUP2 DUP2 SUB PUSH0 DUP4 ADD MSTORE PUSH2 0x1144 DUP2 PUSH2 0x110B JUMP JUMPDEST SWAP1 POP SWAP2 SWAP1 POP JUMP JUMPDEST PUSH0 PUSH2 0x1155 DUP3 PUSH2 0xBDD JUMP JUMPDEST SWAP2 POP PUSH2 0x1160 DUP4 PUSH2 0xBDD JUMP JUMPDEST SWAP3 POP DUP3 DUP3 MUL PUSH2 0x116E DUP2 PUSH2 0xBDD JUMP JUMPDEST SWAP2 POP DUP3 DUP3 DIV DUP5 EQ DUP4 ISZERO OR PUSH2 0x1185 JUMPI PUSH2 0x1184 PUSH2 0xFBE JUMP JUMPDEST JUMPDEST POP SWAP3 SWAP2 POP POP JUMP JUMPDEST PUSH32 0x4E487B7100000000000000000000000000000000000000000000000000000000 PUSH0 MSTORE PUSH1 0x12 PUSH1 0x4 MSTORE PUSH1 0x24 PUSH0 REVERT JUMPDEST PUSH0 PUSH2 0x11C3 DUP3 PUSH2 0xBDD JUMP JUMPDEST SWAP2 POP PUSH2 0x11CE DUP4 PUSH2 0xBDD JUMP JUMPDEST SWAP3 POP DUP3 PUSH2 0x11DE JUMPI PUSH2 0x11DD PUSH2 0x118C JUMP JUMPDEST JUMPDEST DUP3 DUP3 DIV SWAP1 POP SWAP3 SWAP2 POP POP JUMP JUMPDEST PUSH0 PUSH2 0x11F3 DUP3 PUSH2 0xBDD JUMP JUMPDEST SWAP2 POP PUSH2 0x11FE DUP4 PUSH2 0xBDD JUMP JUMPDEST SWAP3 POP DUP3 DUP3 ADD SWAP1 POP DUP1 DUP3 GT ISZERO PUSH2 0x1216 JUMPI PUSH2 0x1215 PUSH2 0xFBE JUMP JUMPDEST JUMPDEST SWAP3 SWAP2 POP POP JUMP JUMPDEST PUSH32 0x5573657220616C72656164792072656769737465726564000000000000000000 PUSH0 DUP3 ADD MSTORE POP JUMP JUMPDEST PUSH0 PUSH2 0x1250 PUSH1 0x17 DUP4 PUSH2 0xDD1 JUMP JUMPDEST SWAP2 POP PUSH2 0x125B DUP3 PUSH2 0x121C JUMP JUMPDEST PUSH1 0x20 DUP3 ADD SWAP1 POP SWAP2 SWAP1 POP JUMP JUMPDEST PUSH0 PUSH1 0x20 DUP3 ADD SWAP1 POP DUP2 DUP2 SUB PUSH0 DUP4 ADD MSTORE PUSH2 0x127D DUP2 PUSH2 0x1244 JUMP JUMPDEST SWAP1 POP SWAP2 SWAP1 POP JUMP JUMPDEST PUSH32 0x4E487B7100000000000000000000000000000000000000000000000000000000 PUSH0 MSTORE PUSH1 0x41 PUSH1 0x4 MSTORE PUSH1 0x24 PUSH0 REVERT JUMPDEST PUSH0 DUP2 SWAP1 POP DUP2 PUSH0 MSTORE PUSH1 0x20 PUSH0 KECCAK256 SWAP1 POP SWAP2 SWAP1 POP JUMP JUMPDEST PUSH0 PUSH1 0x20 PUSH1 0x1F DUP4 ADD DIV SWAP1 POP SWAP2 SWAP1 POP JUMP JUMPDEST PUSH0 DUP3 DUP3 SHL SWAP1 POP SWAP3 SWAP2 POP POP JUMP JUMPDEST PUSH0 PUSH1 0x8 DUP4 MUL PUSH2 0x130D PUSH32 0xFFFFFFFFFFFFFFFFFFFFFFFFFFFFFFFFFFFFFFFFFFFFFFFFFFFFFFFFFFFFFFFF DUP3 PUSH2 0x12D2 JUMP JUMPDEST PUSH2 0x1317 DUP7 DUP4 PUSH2 0x12D2 JUMP JUMPDEST SWAP6 POP DUP1 NOT DUP5 AND SWAP4 POP DUP1 DUP7 AND DUP5 OR SWAP3 POP POP POP SWAP4 SWAP3 POP POP POP JUMP JUMPDEST PUSH0 DUP2 SWAP1 POP SWAP2 SWAP1 POP JUMP JUMPDEST PUSH0 PUSH2 0x1352 PUSH2 0x134D PUSH2 0x1348 DUP5 PUSH2 0xBDD JUMP JUMPDEST PUSH2 0x132F JUMP JUMPDEST PUSH2 0xBDD JUMP JUMPDEST SWAP1 POP SWAP2 SWAP1 POP JUMP JUMPDEST PUSH0 DUP2 SWAP1 POP SWAP2 SWAP1 POP JUMP JUMPDEST PUSH2 0x136B DUP4 PUSH2 0x1338 JUMP JUMPDEST PUSH2 0x137F PUSH2 0x1377 DUP3 PUSH2 0x1359 JUMP JUMPDEST DUP5 DUP5 SLOAD PUSH2 0x12DE JUMP JUMPDEST DUP3 SSTORE POP POP POP POP JUMP JUMPDEST PUSH0 SWAP1 JUMP JUMPDEST PUSH2 0x1393 PUSH2 0x1387 JUMP JUMPDEST PUSH2 0x139E DUP2 DUP5 DUP5 PUSH2 0x1362 JUMP JUMPDEST POP POP POP JUMP JUMPDEST JUMPDEST DUP2 DUP2 LT ISZERO PUSH2 0x13C1 JUMPI PUSH2 0x13B6 PUSH0 DUP3 PUSH2 0x138B JUMP JUMPDEST PUSH1 0x1 DUP2 ADD SWAP1 POP PUSH2 0x13A4 JUMP JUMPDEST POP POP JUMP JUMPDEST PUSH1 0x1F DUP3 GT ISZERO PUSH2 0x1406 JUMPI PUSH2 0x13D7 DUP2 PUSH2 0x12B1 JUMP JUMPDEST PUSH2 0x13E0 DUP5 PUSH2 0x12C3 JUMP JUMPDEST DUP2 ADD PUSH1 0x20 DUP6 LT ISZERO PUSH2 0x13EF JUMPI DUP2 SWAP1 POP JUMPDEST PUSH2 0x1403 PUSH2 0x13FB DUP6 PUSH2 0x12C3 JUMP JUMPDEST DUP4 ADD DUP3 PUSH2 0x13A3 JUMP JUMPDEST POP POP JUMPDEST POP POP POP JUMP JUMPDEST PUSH0 DUP3 DUP3 SHR SWAP1 POP SWAP3 SWAP2 POP POP JUMP JUMPDEST PUSH0 PUSH2 0x1426 PUSH0 NOT DUP5 PUSH1 0x8 MUL PUSH2 0x140B JUMP JUMPDEST NOT DUP1 DUP4 AND SWAP2 POP POP SWAP3 SWAP2 POP POP JUMP JUMPDEST PUSH0 PUSH2 0x143E DUP4 DUP4 PUSH2 0x1417 JUMP JUMPDEST SWAP2 POP DUP3 PUSH1 0x2 MUL DUP3 OR SWAP1 POP SWAP3 SWAP2 POP POP JUMP JUMPDEST PUSH2 0x1457 DUP3 PUSH2 0xDC7 JUMP JUMPDEST PUSH8 0xFFFFFFFFFFFFFFFF DUP2 GT ISZERO PUSH2 0x1470 JUMPI PUSH2 0x146F PUSH2 0x1284 JUMP JUMPDEST JUMPDEST PUSH2 0x147A DUP3 SLOAD PUSH2 0x104B JUMP JUMPDEST PUSH2 0x1485 DUP3 DUP3 DUP6 PUSH2 0x13C5 JUMP JUMPDEST PUSH0 PUSH1 0x20 SWAP1 POP PUSH1 0x1F DUP4 GT PUSH1 0x1 DUP2 EQ PUSH2 0x14B6 JUMPI PUSH0 DUP5 ISZERO PUSH2 0x14A4 JUMPI DUP3 DUP8 ADD MLOAD SWAP1 POP JUMPDEST PUSH2 0x14AE DUP6 DUP3 PUSH2 0x1433 JUMP JUMPDEST DUP7 SSTORE POP PUSH2 0x1515 JUMP JUMPDEST PUSH1 0x1F NOT DUP5 AND PUSH2 0x14C4 DUP7 PUSH2 0x12B1 JUMP JUMPDEST PUSH0 JUMPDEST DUP3 DUP2 LT ISZERO PUSH2 0x14EB JUMPI DUP5 DUP10 ADD MLOAD DUP3 SSTORE PUSH1 0x1 DUP3 ADD SWAP2 POP PUSH1 0x20 DUP6 ADD SWAP5 POP PUSH1 0x20 DUP2 ADD SWAP1 POP PUSH2 0x14C6 JUMP JUMPDEST DUP7 DUP4 LT ISZERO PUSH2 0x1508 JUMPI DUP5 DUP10 ADD MLOAD PUSH2 0x1504 PUSH1 0x1F DUP10 AND DUP3 PUSH2 0x1417 JUMP JUMPDEST DUP4 SSTORE POP JUMPDEST PUSH1 0x1 PUSH1 0x2 DUP9 MUL ADD DUP9 SSTORE POP POP POP JUMPDEST POP POP POP POP POP POP JUMP JUMPDEST DUP3 DUP2 DUP4 CALLDATACOPY PUSH0 DUP4 DUP4 ADD MSTORE POP POP POP JUMP JUMPDEST PUSH0 PUSH2 0x1536 DUP4 DUP6 PUSH2 0xDD1 JUMP JUMPDEST SWAP4 POP PUSH2 0x1543 DUP4 DUP6 DUP5 PUSH2 0x151D JUMP JUMPDEST PUSH2 0x154C DUP4 PUSH2 0xDEF JUMP JUMPDEST DUP5 ADD SWAP1 POP SWAP4 SWAP3 POP POP POP JUMP JUMPDEST PUSH0 PUSH1 0x40 DUP3 ADD SWAP1 POP DUP2 DUP2 SUB PUSH0 DUP4 ADD MSTORE PUSH2 0x1570 DUP2 DUP7 DUP9 PUSH2 0x152B JUMP JUMPDEST SWAP1 POP DUP2 DUP2 SUB PUSH1 0x20 DUP4 ADD MSTORE PUSH2 0x1585 DUP2 DUP5 DUP7 PUSH2 0x152B JUMP JUMPDEST SWAP1 POP SWAP6 SWAP5 POP POP POP POP POP JUMP JUMPDEST PUSH32 0x4465706F73697420616D6F756E74206D75737420626520677265617465722074 PUSH0 DUP3 ADD MSTORE PUSH32 0x68616E207A65726F000000000000000000000000000000000000000000000000 PUSH1 0x20 DUP3 ADD MSTORE POP JUMP JUMPDEST PUSH0 PUSH2 0x15EA PUSH1 0x28 DUP4 PUSH2 0xDD1 JUMP JUMPDEST SWAP2 POP PUSH2 0x15F5 DUP3 PUSH2 0x1590 JUMP JUMPDEST PUSH1 0x40 DUP3 ADD SWAP1 POP SWAP2 SWAP1 POP JUMP JUMPDEST PUSH0 PUSH1 0x20 DUP3 ADD SWAP1 POP DUP2 DUP2 SUB PUSH0 DUP4 ADD MSTORE PUSH2 0x1617 DUP2 PUSH2 0x15DE JUMP JUMPDEST SWAP1 POP SWAP2 SWAP1 POP JUMP INVALID LOG2 PUSH5 0x6970667358 0x22 SLT KECCAK256 INVALID 0xCE CALLER SWAP4 0x26 SAR PUSH28 0x3ED376EF2507327E8DDD12DD234F0E238E8B5CB262A3E0875064736F PUSH13 0x634300081A0033000000000000 "
				},
				"gasEstimates": {
					"creation": {
						"codeDepositCost": "1143200",
						"executionCost": "infinite",
						"totalCost": "infinite"
					},
					"external": {
						"deposit()": "infinite",
						"getBalance()": "4895",
						"getTreasury()": "4601",
						"register(string,string)": "infinite",
						"users(address)": "infinite",
						"withdraw(uint256)": "infinite",
						"withdrawTreasury(uint256)": "infinite"
					}
				},
				"methodIdentifiers": {
					"deposit()": "d0e30db0",
					"getBalance()": "12065fe0",
					"getTreasury()": "3b19e84a",
					"register(string,string)": "3ffbd47f",
					"users(address)": "a87430ba",
					"withdraw(uint256)": "2e1a7d4d",
					"withdrawTreasury(uint256)": "11f1fc99"
				}
			},
			"storageLayout": {
				"storage": [
					{
						"astId": 3,
						"contract": "contracts/exercisePayable.sol:exercisePayable",
						"label": "fee",
						"offset": 0,
						"slot": "0",
						"type": "t_uint256"
					},
					{
						"astId": 5,
						"contract": "contracts/exercisePayable.sol:exercisePayable",
						"label": "owner",
						"offset": 0,
						"slot": "1",
						"type": "t_address"
					},
					{
						"astId": 7,
						"contract": "contracts/exercisePayable.sol:exercisePayable",
						"label": "treasury",
						"offset": 0,
						"slot": "2",
						"type": "t_uint256"
					},
					{
						"astId": 66,
						"contract": "contracts/exercisePayable.sol:exercisePayable",
						"label": "users",
						"offset": 0,
						"slot": "3",
						"type": "t_mapping(t_address,t_struct(User)35_storage)"
					}
				],
				"types": {
					"t_address": {
						"encoding": "inplace",
						"label": "address",
						"numberOfBytes": "20"
					},
					"t_bool": {
						"encoding": "inplace",
						"label": "bool",
						"numberOfBytes": "1"
					},
					"t_mapping(t_address,t_struct(User)35_storage)": {
						"encoding": "mapping",
						"key": "t_address",
						"label": "mapping(address => struct exercisePayable.User)",
						"numberOfBytes": "32",
						"value": "t_struct(User)35_storage"
					},
					"t_string_storage": {
						"encoding": "bytes",
						"label": "string",
						"numberOfBytes": "32"
					},
					"t_struct(User)35_storage": {
						"encoding": "inplace",
						"label": "struct exercisePayable.User",
						"members": [
							{
								"astId": 28,
								"contract": "contracts/exercisePayable.sol:exercisePayable",
								"label": "firstName",
								"offset": 0,
								"slot": "0",
								"type": "t_string_storage"
							},
							{
								"astId": 30,
								"contract": "contracts/exercisePayable.sol:exercisePayable",
								"label": "lastName",
								"offset": 0,
								"slot": "1",
								"type": "t_string_storage"
							},
							{
								"astId": 32,
								"contract": "contracts/exercisePayable.sol:exercisePayable",
								"label": "amount",
								"offset": 0,
								"slot": "2",
								"type": "t_uint256"
							},
							{
								"astId": 34,
								"contract": "contracts/exercisePayable.sol:exercisePayable",
								"label": "state",
								"offset": 0,
								"slot": "3",
								"type": "t_bool"
							}
						],
						"numberOfBytes": "128"
					},
					"t_uint256": {
						"encoding": "inplace",
						"label": "uint256",
						"numberOfBytes": "32"
					}
				}
			},
			"userdoc": {
				"kind": "user",
				"methods": {},
				"version": 1
			}
		}
	}
}